:020000040000FA
:100000000040002019910100559101005791010015
:1000100000000000000000000000000000000000E0
:1000200000000000000000000000000059910100E5
:1000300000000000000000005B9101005D910100E4
:100040005F910100456900005D9801005F9101002A
:100050005F91010000000000199201005F91010012
:1000600061AD0000CD9D0100D19601005F910100BE
:100070005F9101005F9101005F9101005F910100BC
:100080005F9101005F9101005F9101005F910100AC
:100090005F910100998E0100B18D01009DAE0000BD
:1000A000ADAE00005F910100000000000000000004
:1000B0000000000000000000000000000000000040
:1000C00010B5064C2378002B07D1054B002B02D02E
:1000D000044800E000BF0123237010BD2001002070
:1000E0000000000074A00300044B10B5002B03D0E7
:1000F0000349044800E000BF10BDC04600000000F6
:100100002401002074A00300164B002B00D1144BD7
:100110009D46402292029A1A924600218B460F4633
:100120001348144A121A29F062FC0F4B002B00D01E
:1001300098470E4B002B00D0984700200021040068
:100140000D000D48002802D00C4800E000BF20F050
:100150005FFD2000290029F0A0F920F0A5FCC04691
:100160000000080000400020000000000000000027
:1001700018010020E02F0020000000000000000017
:10018000F0B50F00496885B005001600002901D0C0
:10019000002A05D13900280021F021FC05B0F0BD6E
:1001A0000F321309C918009321F08AFB0F22A868A7
:1001B000B9687C68324000D11032009B1E19234B75
:1001C000F3185B00C018214B0290E3185B00CB18BA
:1001D000019010209C4621000023801A002921D183
:1001E000C3401A48029A84466400141B2380009B73
:1001F0005B00E41A009B023463445A00200029F09B
:10020000F6FB002E04D07300023BE35A002B1BD0F8
:1002100001216E603B78DB07DA0F2B788B431343A9
:100220002B70BBE762461288013913431A00C240A3
:100230000393019B1A80019A039B023A01920222C6
:1002400052421B049444C9E7013EDAE7FFFFFF7FF7
:10025000F0B54B681500526889B006000C00934257
:1002600001D22C000D000121227863680A4201D1DD
:100270002A781140C918300021F022FBB368227897
:100280000193A36817000293636829789C46AB68C2
:100290004F400393012318001F408B43069363468E
:1002A000904302006046591E019B04936B681B1A21
:1002B00007934B1C18D163465900019B5918002F16
:1002C00002D001230B800231019821F07CFA012138
:1002D000706022782B7853403278DB078A43DB0F3B
:1002E0001343337009B0F0BD029B13481B881B18E1
:1002F0009B180593079B5B188B421AD8039B039AA4
:100300001B8802321B180392069A01399B18059A22
:100310005A4092B21B0CD7190693049A059B17807A
:100320001A0C049B3F0C02330493029B023302938A
:10033000BFE7014BE8E7C046FFFF0000F0B506004D
:1003400095B0069353680D00591C0492009321F058
:10035000B7FA049B00215B68B0685A1C52000093F6
:1003600029F045FB00237360049B28005B68591C3F
:10037000009321F0A5FA0499280021F030FBAB6826
:100380006F680193069B9B680393069B5B680293CF
:10039000B3680793029BBB422DD82ED3039A390032
:1003A000019821F0D0FA002823D10123079A686030
:1003B00013807360049B1A78069B1B785A400123B4
:1003C0001A4214D03278134333706B68002B0ED06E
:1003D000012111A8494221F021FB11AA310030006E
:1003E00021F023FD069A2900280021F01EFD15B0FA
:1003F000F0BD002801DA0023DBE7824A029B9B184C
:100400005B009C460022039B634405931B8800927B
:100410001AB2002A63DA0022019B7C001A537B1C6B
:10042000102709936B60019BA01C00991B1808936F
:10043000791A019B0A9108998B4256D3059B009A21
:100440001B8893400893029B012B0AD91022039B1F
:1004500000996344023B1B88521AD340089A1A43FE
:100460000892019B029A1C19099B9B1A654A7360AA
:100470009B18079A5B00D3180A93634602330E93C6
:100480006B680B930B9A029B934239D313005D4A1E
:10049000102194460024019A63445B00D318009A0B
:1004A000891A019A9A4200D89EE07368002B07D0FF
:1004B000544A07999A185200525A002A00D19DE0D6
:1004C0006B68002B00D175E74E4A01999A185200CB
:1004D000525A002A00D06DE7013B6B60F0E7009AAA
:1004E0005B0001329BB292B291E71988009F08002D
:1004F000B84002431A800A9A0233D1408AB29AE77E
:10050000A31E20880D931B8800041843089919F036
:100510008BFD0E9B0022E31A0C931900039B0590A0
:100520009C4609928C4212D823889A4234D3D31A1B
:100530005A42190C9BB222805A1E9341CA18002AB3
:100540002CD003990C9B8C4600210F0041E0099BA5
:10055000009F180C63461B88BB4018436B460990EC
:100560009F8C059B5F430B889F4203D2D81B0F9043
:1005700090420CD8D31AFF187B420B80BBB23A0CC6
:100580005F1EBB41D218022302319C44CAE70F9B75
:100590009A1A0A800022F6E79A1A22800A9B059A84
:1005A000023B5A800A930B9B0D9C013B6B6067E7F3
:1005B000380C09906046009F0088B840099F0743A7
:1005C00018884118B8B24118022019808444090CD7
:1005D00002339C42ECD823885918059B2180013BAB
:1005E000090C521A0593AAE71A88009F1000384197
:1005F0008A402043188094B2023B52E7013B73606B
:1006000053E7C046FFFFFF7F436870B55A000023E1
:1006100084680A4DA218944206D30278D20700D506
:100620005B4201200B6070BD023AAB4203D81688D2
:100630001B043343EFE70020F5E7C046FF7F0000CF
:10064000F0B5036899B007009868079124F0FDF8A9
:10065000431E0493031D9B00FB1802933B000122E1
:100660000F21800014331B180393FB6806A81A405F
:1006700009180A70032293430A930CA812F08EFB08
:10068000031E00D040E3079A7D68BC68002A00D1B1
:100690009DE22A785E2A00D199E20798079303F039
:1006A00063FF04000AE0D64B63600434D54B9A6CB8
:1006B000002A00D18AE200229C6C9A6412F08CFB22
:1006C0000D9421E3D04BEFE7D04BEDE77F216B7822
:1006D0005B06DB173278DB01100052B2084003439F
:1006E0000136002AF6DB01225B001343DCE700231E
:1006F0007F213278DB01100052B20840C318013666
:10070000002AF6DBDB000622EFE7032203369643DE
:1007100008CEC9E70023C7E700237F213278DB0139
:10072000100052B20840C3180136002AF6DB9B00C5
:100730005B42029A9858002800D027E3B449B54894
:1007400024F0D4FCADE700237F213278DB011000D8
:1007500052B20840C3180136002AF6DB029A9B0009
:100760005B42985827F019F9E5E700207F2233789B
:10077000C00119005BB2114008180136002BF6DBEE
:10078000251D03F0E1F960603EE000207F22337810
:10079000C00119005BB2114008180136002BF6DBCE
:1007A000251D03F09FF9EEE700217F223378C90170
:1007B00018005BB2104041180136002BF6DB2068B0
:1007C00022F029F9206071E700217F223378C901E6
:1007D00018005BB2104041180136002BF6DB2200F6
:1007E00001CC03F02BFB61E700207F223378C001AE
:1007F00019005BB2114008180136002BF6DB21000E
:100800000839251F14F06CFC2C004FE7251D03F060
:10081000B3F9B8E7251F04222168286812F074FD97
:100820002860F1E700237F213278DB01100052B20B
:100830000840C3180136002AF6DB9B005B42029A8F
:1008400021689950F7E000237F213278DB01100006
:1008500052B20840C3180136002AF6DB029A9B0008
:100860005B4221689858251F27F099F8CCE70020B3
:100870007F223378C00119005BB21140081801369D
:10088000002BF6DB2168251F03F08CF9BCE7002064
:100890007F223378C00119005BB21140081801367D
:1008A000002BF6DB2168251F03F094F9ACE700214B
:1008B0007F223378C90118005BB21040411801361D
:1008C000002BF6DB231F1A68206803F0DFFA083CD0
:1008D000ECE62200231F083A21681268186812F01B
:1008E00013FD0C3CE2E600237F213278DB0110008F
:1008F00052B20840C3180136002AF6DB029A9B0068
:10090000D31A1A68002A00D118E700221A60CDE62F
:1009100000257F223378ED0119005BB211404D199B
:100920000136002BF6DB029BAD005D1B286827F02B
:1009300034F8002800D101E70021286827F02FF8BB
:10094000B4E600207F223378C00119005BB2114069
:1009500008180136002BF6DB03F030F9A6E600207C
:100960007F223378C00119005BB2114008180136AC
:10097000002BF6DB03F03AF998E6236894E6236847
:10098000A360231F1B68636008348FE6231F196868
:1009900022682160BAE7221F1368216823602300C0
:1009A000083B18681060196080E6737832781B0283
:1009B0001343ED18184BEE1878E6337876782068F4
:1009C00036021E43019612F055FCEE1C251F2C002A
:1009D000002800D16AE6114A019B94466344F61848
:1009E00064E633787678206836021E43019612F06A
:1009F00041FCEE1C251F2C00002800D056E6EAE73B
:100A000020F90200802E0020D4B6020028F902004E
:100A10008E0E0300FCD002000380FFFF0080FFFF6A
:100A200033787678206836021E430196EE1C12F069
:100A300021FC0028CFD1043C38E633787678206852
:100A400036021E430196EE1C12F014FC0028C2D0A0
:100A5000F1E7F121266822003000490003F0EEF9A9
:100A60002300F02108331A0030004900019303F0FD
:100A7000E5F90021019A080021F0BEFFAB786A7801
:100A80001B0213430A9A0F210C320A920A9AEE1C97
:100A9000F3181360022206ABC9180B780A9D1A439B
:100AA000231D13436B6000230A9A0B709360A060B0
:100AB000019CFBE525002368B54A0193083D93425C
:100AC00009D16360A3602A000021032021F094FF74
:100AD000019B2B6098E60122019B134005932AD0CD
:100AE000231F1A680592019A5210012A0DD1A84AB3
:100AF0000C3C1A60E260226100212200032021F0F8
:100B00007BFF059B23600323E3E72A68002106920D
:100B10009F4A03202A601A602300103B22601A00BB
:100B2000019321F069FF019B069A0C3C1A60059B1A
:100B300023600523CDE7019B6360180012F074F970
:100B4000934B2060A3602A000599032021F054FFF5
:100B500012F090FB00280DD001228D4B06A92B60CE
:100B60000A9B5B6813400E32521813700A9B0C3BB1
:100B70000A9349E66368ACE7737832781B02134343
:100B8000844AEB189B186360EB78083423600F26C7
:100B90007F210220012506AA2368B6180B4206D140
:100BA000221F1668002B00D191E6183C7EE50A9AB8
:100BB000013B526802426FD0220008C205236360E5
:100BC00014000A9B1E680A9B0C3B0A9335007D604B
:100BD0002B786E1C180010385A2800D905E319F03C
:100BE00019FA62FD71FD73FD040375FD040386FDB2
:100BF00094FD99FD9BFDB2FDC4FDD4FDE3FDF3FD25
:100C000003FE15FE19FE21FE32FE46FE56FE66FE6E
:100C100078FE82FE97FEB0FEBEFE040304030403CA
:100C20000403CCFECEFE2AFFD5FEDAFEE4FEECFE87
:100C300000FF1FFF2CFF04030403040338FF69FFB8
:100C4000630063008000AE00BF00DD00DD00CBFF6D
:100C5000B3000403040304030403040304030403B0
:100C60000403E900FB0004030D011C01040325013A
:100C7000520137017301890138026802960280022D
:100C800004039E01A901B401C101CD01EA010402DE
:100C90002102CE02ED02FE020A9A52682A40327008
:100CA0000A9A0C3A0A9279E7737832781B02134356
:100CB0000A9AEE1C0C320A920A9AF31813602B78E7
:100CC00006A9403B5A4253410F22521810785B004C
:100CD0000A99034323434B6000230A9913708B60E6
:100CE000E4E423682A4A934200D1A4E6DA0707D550
:100CF0005B10DBB2043C012B00D048E70222CEE1BE
:100D000012F06AF823680D930D9B2349186814F0BC
:100D1000F7F9002800D1AEE27A68002A00D1AAE2F1
:100D20001378432B00D098E2937850781B02D11CA3
:100D30000343CB187B60BB68103BBB609DE4002184
:100D4000206803F0C7F83DE52500210020680C3538
:100D500003F0C0F8844200D156E50023236012E579
:100D60002000337876780C383602BC601E43036866
:100D70000196EE1C002B02D12300083B186803F0FB
:100D8000E3F8002802D1103C019B28E660608CE467
:100D9000D4B602000380FFFF28D2020001220A9B82
:100DA00006A95B6813400E32521813700A9B0C3B65
:100DB0000A937BE400207F223378C00119005BB2E4
:100DC000114008180136002BF6DB8100641A043448
:100DD000210012F03FFBF5E400207F223378C001B0
:100DE00019005BB2114008180136002BF6DB8100B8
:100DF000641A0434210023F0B1F9E3E400207F22D7
:100E00003378C00119005BB2114008180136002B7D
:100E1000F6DB251D24F0DCF9B5E42500231F083D91
:100E20001A682168286824F00CFAEDE400207F227B
:100E30003378C00119005BB2114008180136002B4D
:100E4000F6DB8100641A0434210008F0B7FBB9E432
:100E500000237F213278DB01100052B20840C31812
:100E60000136002AF6DB251F28682168022B03D1F2
:100E7000CC4A0BF0A7FBD3E4083C0A000100206831
:100E80000BF0A0FB9EE400237F213278DB011000F1
:100E900052B20840C3180136002AF6DB9A089200C5
:100EA00052421059032221681340251F002B02D102
:100EB00007F0B8FEA8E4012B03D12A6824F0C1F999
:100EC00005E523F0FFF99FE400257F213378ED014C
:100ED0001A005BB20A4055190136002BF6DB2200DE
:100EE0002900206803F0EEF9AF4B5D19AD006419DD
:100EF000FFF7DCFB00257F213378ED011A005BB2A0
:100F00000A4055190136002BF6DB22002900206823
:100F100003F02CFAFF222B0A13401540E5E70322C9
:100F2000F31C93430022186811001E1D251D23F099
:100F300095FD28E40322F31C9343251F22682968AA
:100F400018681E1D23F08AFD6AE40322F31C9343F4
:100F500019795E1D8A00A41A04342200186823F04F
:100F600099FD2FE40322F31C934318798021C24397
:100F7000490092005E1DA4180143EEE700207F2186
:100F80003378C0011A005BB20A4010180136002BFA
:100F9000F6DBFF25FF220100C3096D0011402B4045
:100FA0005B189B00E41A000A0240231D206802F02F
:100FB0009BFEFFF707FC00217F223378C901180050
:100FC0005BB2104041180136002BF6DBFF22CB0943
:100FD00052001340CAB29B189B00E41A083C22003E
:100FE000002003F019F8FFF7EDFB00237F20327893
:100FF000DB01110052B20140CB180136002AF6DBAA
:10100000FF211800FF250840DA096D002A40451C21
:1010100052199200A41A1B0A1940220021F0ECFC7C
:10102000FFF7D0FB00217F223378C90118005BB2A3
:10103000104041180136002BF6DBFF22CB0952008D
:101040001340CAB29B189B00E41A0C3C22000120FA
:10105000C7E70F2206ABD2181378002B00D14DE65C
:1010600001210A9B5B680B4013700A9B0C3B0A939F
:1010700044E60A9B5B6813420ED003220A9B216858
:101080005B6893431C0059609A600A9B08341E6891
:101090000A9B0C3B0A9399E50A9B0C3B0A930A9B1B
:1010A00003998B42E5D211F097FE0020BC6019B085
:1010B000F0BD6B78022B03D1043C2068FFF7EFFAF8
:1010C000002BFAD10A9B039A934203D2374938483E
:1010D000FFF736FB9868002801D0FFF7E0FA0C3BD9
:1010E000F1E7231F0593079B0193231F1868019BBA
:1010F000002B19D00021079B07910193019A0BAB9C
:1011000003F0B8F90B9B012812D12E00236011F0D7
:1011100063FE0F2306AA9B181A780A9B7E6013436E
:10112000BC60FB600120C2E70BAB019A2168E7E7D6
:10113000002811D1043C002B00D11A4B2360019BE5
:10114000002B19D01B49180023F0DAFF002813D018
:1011500011F042FE019BD6E51749180023F0D0FF9D
:10116000002805D00B980CF09BFB043C2060E6E7C0
:1011700011F032FE0B9BC6E5059CFFF797FA0020A5
:101180007F223378C00119005BB211400818013684
:10119000002BF6DB251F2A68216803F003FAFFF70E
:1011A0003FFBC046D4B60200FFFFFF3FD40E030052
:1011B000ECD102001CCF020028D2020000217F22C5
:1011C0003378C90118005BB2104041180136002B7A
:1011D000F6DB250001CD03F0F7F9FFF7D4FA20681C
:1011E000251F21F024FCFFF70FFBAF2B05D80120B2
:1011F000803B5B000343FFF757FABF2B04D8B022B4
:10120000D31A9B00FFF795FACF2B04D8C022D31A2C
:101210009B00FFF714FBD62B06D8D03B18002168A3
:1012200002F0F0FCFFF7CEFAFA2B08D8251FD73BC7
:1012300018002268296803F085FAFFF7F1FA45499A
:10124000454823F053FF040011F0C6FD049B04330E
:101250009B00FB185C60022029E75E2B0BD1BC6869
:101260000D98231DBB600CF01BFB60607B68013395
:101270007B60FFF702FA0D9B384A93422AD0384A26
:10128000934227D03B68986823F0E5FA23F0E3FA0D
:101290007B68051D28005C1B23F0D7FA0600280098
:1012A00023F0D9FA050023F0D0FAA41B0600280089
:1012B00023F0D1FA050023F0C8FA0190280023F0AA
:1012C000CAFA01220378002B09D1330001990D9845
:1012D0000CF086FB0F2306AA9B1801211DE059B2D2
:1012E000002909DB19001F255B09294001308C42C8
:1012F000EBD3641AD218E5E70F21E0251940ED0081
:101300001B012B40457802302B43F0E70A9A5268C4
:101310000A401A700A9A0C3A0A921A78002AF5D1F1
:101320000A9903980D9A81420DD3012119700A9BE5
:1013300002311B687B600A9B5B688B430A9904330C
:101340008A601A60F9E4049B04339B00FB185A601E
:1013500081E7C046BA0E030038D1020094CD0200E6
:10136000A4CD0200044B88600B60044B08004B6066
:101370000023CB607047C04604FC02002725020012
:1013800013B50400080001A90DF0A0FC002C03D047
:10139000012C07D0002004E0019B0548002B00D160
:1013A000044816BD019926F0A0F940002043F8E753
:1013B00028F9020020F90200F0B585B00400080009
:1013C00003A915000DF082FC0600002D07D10300D3
:1013D000039A2F49200023F090FC05B0F0BD039B39
:1013E0000200C318002101200193019B934206D8FB
:1013F0002727002900D0053F3A0026491AE0137834
:10140000272B08D0223B5D426B41DBB20132002B1F
:10141000EBD02727F0E700230100F7E7300026F0A4
:1014200031F90500300026F048F90600AF4205D139
:101430003A001949200023F060FC14E017495C2DA4
:101440000ED02B00203B5E2B01D82A00D5E7144993
:101450000A2D05D013490D2D02D0092D0CD11249AA
:10146000200023F089FB019BB342D7D83A000949F9
:10147000200023F042FCB0E7FF2D02D82A000B49E0
:10148000D8E70B4B2A000B499D42D3D90A49D1E733
:10149000660F03006C0F03006B0F03006F0F030058
:1014A000720F0300750F0300780F03007B0F03001A
:1014B000FFFF0000820F0300890F0300F7B51E0035
:1014C00008AB1D78294B0C001700984206D12B0061
:1014D0003200390011F068FE2018FEBDF30715D563
:1014E00076100196019BE219002B2ADA00213F2693
:1014F0000127501EA04219D2002900D001932000DC
:10150000002DEAD11A491B4821F0B2FA01A9300096
:1015100011F0B0FD0028E5D1300026F025F916497C
:10152000020016480CF0F0F911F05EFC0278B243AC
:10153000802A01D039000133421E002BCDD010008B
:10154000D8E72000012600243F27904204D3002C36
:1015500000D001931000D3E7013BBED3340001302B
:101560000178B9438029F0D10130F9E7ACE00200FD
:101570001B0F0300D0CF0200F30E0300DCD20200E9
:10158000F0B587B004000E00170011F04DFC02A961
:10159000050020000DF09AFB0400042F4ED1B30784
:1015A00034D1274B32689A4230D105AB04AA03A943
:1015B000300023F084FA059B224FBB4204D0032B5A
:1015C00002D0214803F0A8FA039B2600BB4207D0B3
:1015D0000122210000922800029AFFF76FFF060007
:1015E000029A049BA118BB4206D001212800009159
:1015F0002100FFF763FF01000E208E4204D88A1BF2
:101600002800310024F0F7FA07B0F0BD0023029A59
:101610000093210033002800FFF750FF02780121DA
:1016200053B2002B06DA4023012101E001315B08AF
:101630001342FBD101220DF00FFBE5E70020E3E7A9
:10164000D8C90200D4B60200350F030010B504005B
:10165000034B0833036022F0D9FB200010BDC046C5
:10166000449D020070B504000D00110007F0CEF893
:10167000024BA56008332000236070BD449D02002A
:101680000722436804481B791340044AD35C002BAB
:1016900000D003487047C04628F90200D800002057
:1016A00020F9020010B50124037A05499B005A581D
:1016B0000448224200D10448A243CA5010BDC0468B
:1016C0003C01002028F9020020F9020070B5037ADD
:1016D000064C05009B001859400823F0A9FC012284
:1016E0002B7A9B0019590A401A5170BD3C01002009
:1016F00030B5A222A025D200ED05AA580723CA4082
:101700001100164C0340E056421EC90700D5421C8A
:10171000022A0ADC002082421ADB1149CD5C854294
:1017200001D0C8540230E25430BD072A09DD0C2A2A
:1017300010DC0B490320CD5C002DF4D10238C854D5
:10174000F1E707490320C95C0029ECD10800EAE76A
:101750000200E8E703200C22E5E7C046E000002095
:10176000D80000201D4B70B559791879FFF7C0FFDC
:10177000022805D11A490B689A1C012313430B60F8
:10178000184B59791879FFF7B3FF022805D114498E
:101790004B689A1C012313434B60134C20000FF03D
:1017A0003DF9124DA84203D161792079FFF7A0FFDE
:1017B0000F4C20000FF032F9A84203D16179207953
:1017C000FFF796FF0B4C20000FF028F9A84203D139
:1017D00061792079FFF78CFF70BDC04684A10200BB
:1017E0003C01002024A1020014A1020058E30200E1
:1017F0005CA102006CA10200072203791340014A98
:10180000D05C7047D8000020F0B587B00092027815
:1018100004000F00930703D5009B002B00D0F5E0D8
:10182000D307DB0F0ED07A4B3B40062B43D003236C
:101830003B4003D177493868884203D0009B012B95
:1018400000D0E3E0019353075FD52368A568DE0865
:10185000F600AE19B54230D3009B012B00D0D5E085
:101860002368D9086368994210D104316160A06887
:10187000C90026F00AFB23686268DB08D21ADB0085
:10188000A060D200C018002128F0B1F80721236819
:10189000DD086A1CD2000B4013432360A368ED00EF
:1018A0005D195B4B2F601F40062F21D0012223784A
:1018B000934323701CE00123C4E72868B8421AD17F
:1018C000009B022B14D129002368721BD210083B05
:1018D000013A6F6828002360D200083128F074F8BC
:1018E0002368DD08A368ED005D1900236F602B609D
:1018F000280007B0F0BD019B002B04D1390011F086
:1019000029FB0028DCD10835A4E76368002B05D14A
:10191000009B012B7AD1200000F07EF83C4B3B402D
:101920000593062B27D1F80821F052F9039061683E
:10193000039818F0FFFB00260491049B0293029B7E
:10194000DD00A3685D19286800281BD1009B012BCE
:101950005CD107212368DA080132D2000B4013431F
:101960002360002E00D0350000236B60059B2F60A4
:10197000062B9BD1BCE73900022002F043F943104B
:101980000393D4E7042803D1002E1DD12E001BE0C1
:10199000B84211D1009B022BAAD123680298083BC0
:1019A00023600130616818F0C5FBA368C900CB58FB
:1019B000002B25D12B609BE7019B002B04D1390024
:1019C00011F0C8FA0028E5D102986168013018F0DA
:1019D000B1FB049B02918B42B1D1009B012B15D12D
:1019E000002E0FD023683500083323600023736076
:1019F000059B3760062B00D17AE72378009A57E7DA
:101A00000423D7E7200000F007F890E700256FE7F0
:101A1000070080FF489C0200F7B54368040001936B
:101A20005A1C002317495800455AAA4206D90133C7
:101A3000222BF8D15508AD18213B1D43E800A768BB
:101A400026F017FA0723226865601340012200255B
:101A5000236013432370A060019B9D4203D1380093
:101A600026F024FAF7BDEE00B959002908D0042960
:101A700006D001222000FFF7C7FEBE19736843603D
:101A80000135E9E750090300F8B5050000230468B3
:101A900086681449621C5800405A824206D90133B4
:101AA000222BF8D15008821801201043002328600F
:101AB0006B60800026F0DDF93700A400A860A4194F
:101AC000A74203D1300026F0F1F9F8BD39680029AA
:101AD00005D0042903D00122280020F0AFFD0437EF
:101AE000EEE7C04650090300C3790248002B00D13D
:101AF0000148704728F9020020F9020010B500F0F3
:101B00005DFF014810BDC046D4B6020010B508689C
:101B100000F054FF004810BDD4B6020073B50D00AC
:101B2000022836D1012601A968680DF0EDFC764245
:101B30003400019BC318834212D101A928680DF01B
:101B4000E3FC7342734162426241DBB2D2B201995B
:101B500001F078F8002820D11049114820F088FFC2
:101B60000278722A01D0772A06D1611C0ED1723A0E
:101B7000544254410130DEE7622A01D0742A05D173
:101B8000711C03D1743A56425641F3E7054802F0FE
:101B9000D1FD012676423400CFE776BD9D0F0300CC
:101BA00074D10200900F030070B50400080011F01A
:101BB00023FA0500431002D00F4802F0BBFD0F4985
:101BC00020000EF05FFF002807D0A02203216379D8
:101BD000D205C133FF339B009950012362799340B2
:101BE000A022D205002D04D0A121C90004485350E1
:101BF00070BD0449FAE7C046F90F030030E3020064
:101C0000D4B602000C05000070B50500080011F004
:101C1000F3F90B2303410400DB0702D4094802F067
:101C200089FD280008490EF02DFFFF22A400920034
:101C30001440A0226B79D205C133FF339B000348C7
:101C40009C5070BDCB0F030028E30200D4B6020005
:101C500010B50C4904000EF015FFA022D205002893
:101C600005D004216379C133FF339B00D150A223F7
:101C7000DB00D0586379D8400123184023F0D8F90D
:101C800010BDC04628E3020010B504000EF0C6FEE9
:101C90000A4B984205D00A4B984202D020000EF021
:101CA000CBFEA0226379D205C133FF339B00985845
:101CB0000007800F23F0BCF910BDC04628E30200E6
:101CC00040E30200032370B50B4004000800022B20
:101CD00014D1194B0B40062B10D011F0F1F91BF069
:101CE00003F90022154B19F0AFFB1BF08DF8144BD4
:101CF0000500984205D9134802F01CFD11F07CF94B
:101D0000F5E7114920000EF0BDFE002807D0A02203
:101D100003216379D205C133FF339B009950607969
:101D2000290003F0B7FB002D03D1084920000EF075
:101D3000A9FE074870BDC046070080FF0000E03FD5
:101D4000FF030000D80F030070E3020020E302004D
:101D5000D4B6020013B50A4904000EF093FE052123
:101D60006846615617F0FCF9684617F01FFAA02381
:101D70000021044ADB00D15023F05AF916BDC046B9
:101D800020E302000070004010B5080011F034F9A3
:101D9000FA239B00584303F059FB002802D0024865
:101DA00002F0C8FC014810BDBC0F0300D4B602000D
:101DB00010B5080011F020F903F048FB002802D00C
:101DC000024802F0B7FC024810BDC046BC0F030039
:101DD000D4B6020010B504000EF020FE0C49884273
:101DE0000DD00C4B98420AD020000EF04BFEA022E2
:101DF00000216379D205C133FF339B009950200045
:101E0000FFF7FAFC044B002800D0044B180010BD6B
:101E100058E3020040E3020028F9020020F9020022
:101E2000A0230C220249DB055A5024315A50704736
:101E30004407000010B5040010F0F6FF064B98426E
:101E400008D0064B984205D0054B984202D0054871
:101E500002F034FE200010BDE4A102009CA00200AC
:101E6000D8A00200AC0F030010B50400034B0360C0
:101E7000403026F049F8200010BDC04628A20200DC
:101E800010B50F4C200027F041FA002808D02000A0
:101E900027F00EFA0B4B1B68984202D101F0EAFDC5
:101EA00010BD3F21084A138801330B4007490988B8
:101EB0008B42F5D01188064C13806054F0E7C04681
:101EC00044010020782E0020BC2D0020BE2D0020D3
:101ED000C62D0020002210B5044B05491A80054B81
:101EE00005481A8027F017FA10BDC046BC2D002007
:101EF000811E0000BE2D002044010020034B1888E5
:101F0000034B1B88C01A431E98417047BE2D00200A
:101F1000BC2D0020084A094B10881988884201D13D
:101F200030BFF9E713880649C85C3F2113880133A5
:101F30000B4013807047C046BE2D0020BC2D0020F2
:101F4000C62D002070B504004518AC4205D021789C
:101F5000024827F0B1F90134F7E770BD44010020D1
:101F600070B504004518AC420DD02378064E0A2BFC
:101F700003D10D21300027F09FF92178300027F0A0
:101F80009BF90134EFE770BD4401002070B50400F7
:101F90000825002C08D02100082C00D9290003486E
:101FA000641AFFF7CFFFF4E770BDC04617100300B7
:101FB00070B5050004000826002C08D02100082C6C
:101FC00000D931000448641AFFF7BCFFF4E7280089
:101FD000FFF7DCFF70BDC0460E10030010B5010016
:101FE000014820F0DFFE10BD10000020142313B5BF
:101FF000064C009319221821200015F0EDFC044A2C
:102000000449200027F066FC13BDC04644010020AF
:1020100000000020691E000070B5040010F004FFED
:1020200000230C49DA0052181568A54205D1516801
:10203000094822F0A1FD012070BD0133612BF1D1CF
:10204000064B9C4203D0984201D00020F4E704499B
:10205000EEE7C04630A2020048CC02009CC5020058
:10206000201003000022104B10491A6003001233A5
:10207000FF3341185A701A7004338B42FAD10100B1
:102080000300002209310833FF311A709A705A7028
:10209000DA7004338B42F8D1C3237F229B00C254F1
:1020A000034B044A1A607047A4010020110300008A
:1020B0000800002027360300F0B500267E243200F9
:1020C00031009300C318FF335F7C7F2F4CD09B7C83
:1020D000F618F6B2531CDBB2EF2E2AD9C1267D25A5
:1020E000B60086193700AC469C4516DA9B00C3182B
:1020F000FF3359749974D97419757D230232D2B2A1
:10210000934211DA9300C318FF335C749974D97445
:10211000197500260132D2B2D3E73D68043FBD6095
:1021200001256D42AC44DFE73568013B7560043E34
:10213000E6E77D2FEED80D4DEF5D01252F42E9D06A
:10214000C1227D26920082189E4208DA9A008218E7
:10215000FF3254749174D17411751A00D9E715685F
:10216000013E5560043AEFE7F0BDC0460A37030070
:1021700070B5002140250D4C8B00C318FF335A7CED
:102180007F2A11D0A25C0131C9B22A42F4D05A7D13
:102190007F2AF1D0A25C7F2AEED9DA7D56B2002EDA
:1021A000EADD0132DA74E7E770BDC046B9360300F4
:1021B0000300F7B500214B4A1333FF33821819701F
:1021C00004339A42FBD1FC2300249C462200844421
:1021D00053B2002B04DA444B444A1A60002008E052
:1021E00063461F69BC4205D37F23443292001354D7
:1021F0000120FEBDDE68355D602D01D9203DEDB2C8
:10220000611CC9B28F4251D0735C602B01D9203B55
:10221000DBB2232D4DD1303B092B02D9324B344A4E
:10222000DBE70234E1B28F4204D8FF2BF6D84370CB
:102230000C00CDE7745C2500303D092DF5D80A254A
:102240006B430131303BE318C9B2ECE70136512E44
:1022500030D10023274C1F5DDEB22A2F0CD1264F30
:10226000FF5CAF4208D19300C318FF335E7444781B
:1022700001321C75D2B2DBE70133512BEBD11F4C7D
:10228000493B08342678AE4208D0013C002B02D1ED
:10229000154B1B4AA1E7013BDBB2F3E7002BF7D05C
:1022A00014004334A4000419A370C1E7232DB5D052
:1022B00000230026F7B201970F4FF75DAF42C5D15B
:1022C0000C4FF75D2A2FC1D09F42BFD193000199D7
:1022D000C318FF3359744178013202341975D2B2F0
:1022E000E1B2A5E712030000080000202A3603002F
:1022F0003C36030049380300F83703009A380300DE
:102300004A36030010B51130084A0949FF300378F6
:102310007F2B00D110BD02240457002C03DCCB5CC2
:1023200043700430F3E7D35CFAE7C046A8370300F4
:1023300058370300F0B50023070085B09E00BE1992
:102340003100FF314A7C9C467F2A01D105B0F0BDA7
:102350004F4B02209C5C63460133DBB20442EDD05C
:10236000012560462C4242D15419E0B20090494800
:102370007C35801840780190C87C097D02900391DB
:10238000C1218900791808009D4226DA9B00009837
:10239000FB18FF3358740198941C98740298E4B2A7
:1023A000D874039818753B48634682183000FF3094
:1023B0009578027D023300927D22C67CDBB29A4280
:1023C00010DA9B00FB18FF335C749D74DE74009A76
:1023D0001A7563460333DBB2B0E70468013D44601D
:1023E0000438D1E70868013A48600439E7E701306A
:1023F000C0B2010044318900C95D0029F7D07F29AE
:1024000008D008242248405C204297D12439012971
:1024100000D893E73000511CC9B200911D49FF302C
:10242000891849787D250191C17C0291017D039134
:10243000C121890079180C009D421FDA9B00009C85
:10244000FB18FF335C74019C124D9C74029CDC747D
:10245000039C1C75941CAA1863469678027D02336F
:1024600000927D22C57CDBB2E4B29A420BDA9B007B
:10247000FB18FF335C749E74DD74A8E72668013D89
:102480006660043CD8E70868013A48600439ECE724
:10249000B936030058370300F7B500229300C3187C
:1024A000FF335C7C002C03D10132D1B20A00F5E786
:1024B0007F2C00D126E1102693490D5D511CC9B235
:1024C000354227D0DC7CAD06ED0FA4462C00C1259B
:1024D0001434AD001F7D019445196D368E4214DA17
:1024E0008D00019C4519FF356C740024AC74644662
:1024F0002F75EC745C7C352C00D0C5E05A7B834C86
:10250000A25C5207D2D5102285E02C68013E6C6097
:10251000043DE3E74E2C1CD118220D24DD7C5C74B5
:102520001E7DC1239B00C31870348C420CDA8B00D3
:10253000C318FF335A740022DD749A741E75B5E710
:102540001B22EAE71C22E8E71F68013C5F60043BAE
:10255000EBE74F2CF4D0502CF4D06DB2002D2BDAD9
:10256000DD7C002D28D00D004435AD002D5C002D04
:1025700022D1961CF5B20195AD004519FF356F7C4F
:102580007F2F19D0604EF75D7F2F15D9EF7C002F7C
:1025900012D0C1237D229B00C318019C944206DD0A
:1025A0001F236B740023AB74EB742B757EE71C68E0
:1025B000013A5C60043BF0E7172C2ED15C7B013ABA
:1025C000D2B2452C1DD11B3C5C7315004335AD00C8
:1025D0004D4C2D5C655D7F2D00D867E70132D2B28E
:1025E00092008218FF32557C002D00D180E0645D9E
:1025F0007F2C00D85AE7D27C002A00D056E71E3242
:1026000009E0392C01D10D3CDEE73F4A125D7F2AFB
:1026100000D84BE712225A7448E7182C07D15A7B8E
:10262000394CA25C7F2A00D840E71322F3E7202C24
:1026300005D15A7B3C2A00D038E7163AEBE7482C04
:1026400015D15C7D7F2C02D14B245C7403E02E4DB0
:102650002C5DA406F8D55C7C2B4D2D5DED0700D4D8
:1026600048E75D7B202D3CD10C3C5C741EE73C2C84
:10267000F1D15A7D7F2A00D118E7234CA25C920643
:1026800000D513E73F22C6E72A2C16D1DA7C1C7D41
:10269000C1237D259B00C3188D4209DA2B258B00B1
:1026A000C318FF335D740025DA749D741C75FDE654
:1026B0001E68013D5E60043BEEE72C2C11D1DA7CF4
:1026C0001C7DC1237D259B00C3188D4204DA8B003D
:1026D000C318FF332D25E5E71E68013D5E60043B0E
:1026E000F3E7452C00D170E7392C00D0DEE66CE72B
:1026F000527D7F2A00D1D9E6A25C7F2A00D8D5E698
:102700001E2288E7F7BDC046B93603000A3703002A
:10271000F0B50022060085B0130044339B009B5D9A
:102720007F2B31D05B4CE35CDB072AD51300511EB5
:10273000C9B244318900584F7118013BDBB2002BFC
:1027400023D008787F2803D0385C04397F28F4D957
:1027500099007118FF31487C7F280ED02027255C16
:102760003D4204D04C4D285C0425284205D0887C8D
:102770004508AC460130604488740133DBB29342B3
:10278000E6D10132D2B2C7E70023022712E06B077D
:1027900008D4EB070DD56246FF32937CD9085B1A4B
:1027A000937406E0039B039A9B7B99080133CB1833
:1027B0009373029B9A00B2181100FF3194464A7C31
:1027C0007F2A64D034485D1C845CEDB2029565B20A
:1027D000002D21DA029A9200B218FF320392527C45
:1027E0000192855C019C2A0041257F2C00D01500B8
:1027F00040242242CBD1019C123C012CD9D840224A
:102800000233DBB244339B009B5DC35C1342D0D0E8
:102810008B7C013B8B74CCE71E4DAA5C08252A42B9
:102820000ED0029B9B00F318FF335A7C7F2AC0D046
:10283000825C3A42BDD006229A7405229A73B8E7A8
:102840003C421AD00133DBB21A0044329200925D4E
:10285000002AF7D07F2AACD00F498A5C3A42A8D030
:102860009B00F318FF339A7C520801329A74624637
:10287000FF32937C5B08013392E710231A4298D011
:102880004B7BC35C3B4294D08B7C023BC2E705B0E0
:10289000F0BDC0460A370300B936030070B5040026
:1028A000FFF7E0FB2000FFF783FC23000022FC334E
:1028B000DA601A61904226D02500224E1135336825
:1028C000FF35934203D029001F480FF09BFB2000E7
:1028D000FFF7E2FD2000FFF74BFC2000FFF712FDA1
:1028E0002000FFF715FF2000FFF724FDC4222B0076
:1028F0009200A1181A78502A06D97F2A07D0002002
:10290000124B134A1A6070BD04338B42F2D1336804
:10291000002B02D00F481EF019FA2000FFF7CCFB65
:102920003368002B03D029000B480FF06BFB20000D
:102930001FF066FF054B0949186827F0A2F84342CB
:102940005841E0E7B0010020613603000800002094
:102950007036030096360300A636030027360300C0
:1029600080235B051869034B1B7843438020C0021A
:10297000C01A7047072E002080235B051869034B9F
:102980001B7843438020C002C01A7047082E0020E5
:1029900070B5084DC4012B680021181925F037FACD
:1029A0002868054B00197F3000781B788342F0D2ED
:1029B00070BDC046A8010020062E002010B5C379C6
:1029C0000400002B08D0064A037981791068DB01E6
:1029D000C018013025F01BFA0023237210BDC04639
:1029E000A801002010B5124B01001A684379DB01E1
:1029F000D31818007F300478FF2C08D10879C00163
:102A000012185278FF2A0FD0887990420CD08A7918
:102A10009B180132D2B258787E2A01D08A7110BD3B
:102A200000234C718B71FAE701204042F7E7C04662
:102A3000A801002070B5F8248025A40223786D0534
:102A40004D2B4CD12B698020E41A2B69C002E41A6B
:102A50002969001B17F0E8FA2B4B2C4918702B69D9
:102A6000E21852185D421540294B2A4A9B1A2A4AFD
:102A70009B188022520511699D4234D38020C002E8
:102A8000401B17F0D1FA254B641B1870E411244B3E
:102A9000E4B21C70A12001230025224A22491360C0
:102AA000C0004D604B68002BFCD01358DBB2A34232
:102AB000F7D21E4901330B7001235360FFF750FF1B
:102AC000037805001A4CFD2B0FD180235B05186994
:102AD000184BC009C018C0012818206070BD8024A0
:102AE0002B69E402AFE76D18C5E7FFF745FF0378F0
:102AF000803DFD2B01D12560F0E7FFF73DFFFD2173
:102B000025F085F9F7E7C046082E0020FF87FFFF74
:102B1000140100200000002080A00300072E0020E8
:102B2000062E002000D00040FCD00040092E0020DE
:102B3000A8010020FFFFFF01F7B5254B254F1A78AC
:102B4000254B14001B7839680133E001405CFF28F5
:102B500029D00134E4B29C4200D101249442F4D142
:102B6000802300265B051B69DB090193E3010093C9
:102B70003B68E2019D182B7828005A425341F61811
:102B800025F05BF9002810D0002304E0DA01AA5CEC
:102B9000002A0AD10133019A9342F7D13868009B89
:102BA000C01825F040F92000FEBD0B4B01341B7806
:102BB000E4B201339C4200D10124054B1B78A342AF
:102BC000D4D1072E02D91FF047FEB6E7FF24EAE76B
:102BD000092E0020A8010020062E0020F7B50700CE
:102BE0000D0001240E4B1B7801930E4B1E68019BB8
:102BF000A34202D2FF242000FEBDE10171180B7830
:102C0000FE2B09D18B78AB4206D103312A00380064
:102C100026F0C2FE0028EED00134E4B2E7E7C04659
:102C2000062E0020A801002010B5054A037910687F
:102C3000DB01C0188178002203300CF00DF810BDC4
:102C4000A8010020F0B585B002900D001600039396
:102C5000782948D8FFF7C2FF0400002E3BD0FF2898
:102C600001D0FFF795FEFFF767FF0400FF2803D1AF
:102C70001E491F481FF0FCFE1E4FC0013B6801901B
:102C8000FE21181825F0C3F83B68019AE9B298189C
:102C9000023025F0BCF83868019B2A00C0180330C8
:102CA000029912F091FF0C2025F0D1F8039A03004D
:102CB000002A16D0104A1A600E4A1C7112685C7104
:102CC000E4011419A278DE7102329A7101221A729B
:102CD000039A5A7202E03300FF28E4D1180005B0CD
:102CE000F0BD064AE7E70023F8E7C046A338030033
:102CF00074D10200A8010020209E0200CC9E020098
:102D000007B501A90CF000FC0199FFF767FFFF2848
:102D100003D1044904481FF0ABFEFFF739FE034816
:102D20000EBDC0469D0F030074D10200D4B6020050
:102D3000F7B50192027A04000091002A02D12448DA
:102D400001F0F8FCC579002D06D1224A17680279F6
:102D5000D201D25D002A05D1092201251A606D42F7
:102D60002800FEBD61797E22C901791808007F30F4
:102D7000A3790078D21AFF2809D12079C001381828
:102D80004078FF2819D0C01A824200D90200019869
:102D9000461B964200D91600002EE1D0009A01335E
:102DA0005019C918320026F006FEA3799B19DBB230
:102DB0007E2B04D0A371AD19D4E70022E7E70023EE
:102DC000A3716379DB01FB187F331B786371F2E732
:102DD000B9380300A8010020F0B585B00393037A49
:102DE000040002910192002B02D1304801F0A2FCB4
:102DF000C379002B08D02E4A03791268DB019B5C53
:102E0000019A0092002B25D10923039A13600A3BF3
:102E10000193019805B0F0BD7E22A379D71A009ADC
:102E2000974200D917006079214E0133C001C018C4
:102E300033683A001818029912F0C6FEA379DB191C
:102E4000DBB27E2B0AD0A371029BDB190293009B9D
:102E5000DB1B0093009B002BDED1DAE70023A3717C
:102E6000FFF76AFE0500FF2809D12079FFF790FDE2
:102E7000002323721C23039A13601D3BC8E760796B
:102E80003368C001181829007F3024F0C0FF336870
:102E9000ED015819617924F0BAFF62793368D201E3
:102EA0009B187F331B786371CEE7C046B9380300A7
:102EB000A8010020002170B5080021F04FF901247D
:102EC00005000C4B1B78A34201D2280070BD0A4AB2
:102ED000E3011068C0180378FE2B08D18178002226
:102EE00003300BF0B9FE0100280005F09BFE013411
:102EF000E4B2E6E7062E0020A801002073B501A980
:102F00000CF002FB0199FFF769FEFF2803D10E497F
:102F10000E481FF0ADFD00257E260D4B1C68C30139
:102F2000E31859789B780233DBB2C201A2187F32D2
:102F30001078FF2804D1C81A401922F079F876BD1C
:102F4000F31AED180023F0E79D0F030074D102007F
:102F5000A80100201FB5034A034B23F09DF805B0DC
:102F600000BDC046E5290000BD2900000523020080
:102F700070B5094C094D2068434309489B189B00D4
:102F800018582B682260C0180F23194009012860C7
:102F900013F0E8F870BDC046AC010020A401002089
:102FA00038A50200A839030000B5080006292ED86C
:102FB00017F026F8040A10161B2128009A18E2239D
:102FC000DB00D218107800BDC4329200D05C8006BD
:102FD000800EF8E7C4329200D05AC004400EF2E7E7
:102FE000C4329200D0580003F8E7C43292009A1815
:102FF00090780009E7E7C43292009A18D078000769
:10300000000FE0E7C43292009A18D078F1E7024B43
:10301000024A00201A60D6E708000020D6380300D4
:10302000A83910B504000800062949D816F0E8FFB1
:10303000040A141F2A343F00E221A218C9005218C2
:10304000137010BD3F210B401800C4329200135D75
:103050008B4303431355F4E77F21C4329200194098
:103060001948135B890103400B431353E9E77F21A0
:10307000C432920019401059144B490303400B43CA
:103080001351DEE70F20C4329200A2181901937881
:1030900003400B439370D4E70F210B401800C43258
:1030A0009200A218D3788B430343D370C9E70F2053
:1030B000C4329200A218D1781B0101400B43F4E7FF
:1030C000034B044A1A60BCE73FE0FFFFFF1FF0FF1D
:1030D00008000020F4380300F0B5D2B285B00E002D
:1030E0000293072113000B40013BDBB2042B02D9F2
:1030F000294C2A4D25608A431F02002A24D1284BDF
:103100003578C45C274B2409E443E4B22D1BDB195A
:10311000EDB2039308276319039ADBB2D35C5A001C
:10312000D2B25BB20192002B33DA1A210320013FA5
:10313000FFB2FFF71BFF019B002FF0D10134E4B277
:10314000002CE7D135701AE0D4431749E4B2CE5CC5
:103150000825144B1B19DB5D5A00D2B25BB20192F9
:10316000002B0FDA05210220FFF700FF013DEDB231
:10317000019B002DF0D10134E4B2002CE8D102987B
:1031800005B0F0BD31000120FFF7F0FE002EE9D0C0
:10319000ECE706210420CAE708000020E13803001C
:1031A000190700006C3E0300C74403000022F0B57D
:1031B00005000F00FF200F248BB008AB654EDA71BD
:1031C0000100C431890069188B781A09B25C234068
:1031D00012011343CA788B7013071B0FF35CA243D1
:1031E000234013431A09B25C234012011343CB70EE
:1031F0000138E5D2E223DB00EE5CB308F31ADBB260
:103200000493554B1B68002B0BD0E222C421812074
:10321000D200890000013B00AA18691828180EF096
:1032200039FF0024482302940393019400948122DF
:103230002B1912019B181B7818000593072398433C
:1032400020D008A92300059A07312800FFF744FF82
:103250000230C4B2023FFFB2002F78D02B78039324
:10326000013EF6B2002E47D1E2222B19D2009B1864
:103270001E78B308F31ADBB2049300230293019380
:103280000093D4E7354B009A9C469A5C2300C433E4
:103290009B00EB18997809090A4331498A5C019926
:1032A00007926246DB78525C1907090F0A432C49E2
:1032B0001B098A5C2B490692029A8A5C0699134381
:1032C000079A8A182649C95C01238918FF2A00DC5D
:1032D000031CC918882309061B06C918090F0020FA
:1032E000FFF744FE039B013BDBB20393002BB7D1F6
:1032F0000134E4B2013FAEE7049B013BDBB204932F
:10330000002B02D1059B002B18D12200C432920061
:10331000535D00999B069B0ECB18DBB20093535B69
:103320000199DB045B0ECB18DBB201935359029A6F
:103330001B035B0ED318DBB2029378E708A92300C6
:10334000059A07312800FFF7C7FE04008CE70BB091
:10335000F0BDC046F0390300B0010020BC430300BB
:10336000C83B03006C3D0300064B1B5C002B05D0E3
:10337000054B185C4843C011C0B27047034B185C42
:10338000FBE7C046183D0300913B0300513A0300A0
:10339000064B1B5C002B05D0054B185C4843C01145
:1033A000C0B27047034B185CFBE7C046183D0300F2
:1033B000CC440300A13A0300F0B5037A8DB00400B9
:1033C0007F2B00D157E10300070000250933FF33AD
:1033D0000837099301953E787F2E00D087E00023BF
:1033E0000693019306998B00E31803931A7A481CFD
:1033F0001B7BC0B206907F2B00D11BE19F49CE5CA6
:103400008D5C9F49AE4200D0F1E08D5CCB5C0493B3
:10341000039B597A019B5918CBB20193049BEB187B
:10342000DBB20793023B1B06DCD4A827019B5D1B84
:10343000EBB20593A82F00D0E1E0039B039A5B7ADF
:10344000527B5B08520899180291019901988A18D9
:10345000E221C31AD2B2DBB2C900A218E318521893
:103460005B18157818782D1AEDB27F222B006DB2FB
:1034700093430893EB17E8185840029916F044FF5D
:103480002800CBB20299099316F058FE059A002540
:103490001600C3B20A93029B9B18DBB20B93320057
:1034A00039002000FFF77EFD0A9B01360B9AC018F9
:1034B000F6B2C3B2964200D1B6E0099AAD18029AAC
:1034C000EDB2AA420DD8AD1A20216A4652181278E0
:1034D000EDB252B2002A00DAA4E0002B01D0013391
:1034E000DBB2320039002000FFF79AFDD7E7012E4A
:1034F00077D12B003100019A20001FF016FABA781C
:10350000604BA1789B185B7830000193FB7808939F
:10351000FFF72AFF3F23E178034030000293FFF7D3
:1035200037FF7F22584B9B5D1A40584B03929A5DA0
:103530000F231A400492564A925D1A400592554A4A
:10354000925D1A4006923F22534B9B5D07937B7816
:10355000EB18DBB20A93029B134002937F231840BF
:1035600083019C462A003F21C4329200135D0F263E
:103570008B4302990B431355135B48490B4061463B
:103580000B431353039B10595903454B03400B4303
:103590000498190C3140000113510843A21890708F
:1035A0001B0E0598B3430699034309011E400E43C1
:1035B000D67081226319079912019A181170E222BC
:1035C000D2009B180899019A013552181A700A9B6B
:1035D000EDB29D42C6D1099B0437BB4200D0FAE64A
:1035E000FDE6022E8BD12B00019AFF2184E72D48A6
:1035F000AE4201D9C55C09E78D5C835C07E7049B9B
:10360000019A39009A18D2B22000FFF7CBFC059A34
:10361000050039002000FFF7C5FC079B2D1AEDB20D
:10362000029322E7013B5BE70137FFB2AF2F00D0E7
:1036300000E7D7E6023189006118019B49785918E3
:103640006368C9B2002B13D1E22381221648DB0044
:103650001201E318A518001B1A18C4329200125D5B
:103660001E789206D20EB21A1A7001339D42F3D11F
:103670002000FFF79BFD0DB0F0BDC046013A0300EE
:10368000C83C0300BC440300F13A030000390300C6
:1036900050390300A03903006C4303003FE0FFFFF3
:1036A000FF1FF0FF413B0300F0F8FFFF10B50400DF
:1036B00008001FF079F90300002C03D0012C06D07C
:1036C000002003E00348002B00DC034810BD40004D
:1036D0002043FBE728F9020020F9020043684B6011
:1036E00083688B60C3680800CB60014B0B60704738
:1036F000D8A5020030B5040087B00D000020042AD0
:1037000025D120001FF050F9AB0722D1184B2A68B1
:103710009A421ED103AA29000CF094FD102024F037
:1037200096FB144BE2680360039B616853435B188C
:103730004360049B6168019353435B180599836060
:103740004A43C260002902DAE2689B1A836007B02C
:1037500030BD002301002A0020680FF025FDE3683A
:1037600058436368C018012340001843EFE7C04680
:10377000D8C902009CA50200F0B50E00002785B054
:10378000110003901D00012203233000009707F071
:103790007FF8102024F05BFB039B040003600123EF
:1037A0004760C36028689E4205D10FF025FCA060E9
:1037B000200005B0F0BD0FF01FFC606068680FF0DE
:1037C0001BFCA060032EF3D1A8680FF015FCE0608D
:1037D0000028EDD1014800F0ADFFC04603450300CD
:1037E00070B50D004A688B680849040021F085FA1D
:1037F000EA68012A04D10649200021F0BDF970BD14
:103800000449200021F079FAF9E7C0460D4503008C
:10381000D49503001A450300136810B51400002B5B
:1038200005D1A42904D1406821F002FC206010BD1C
:10383000B9235B00994201D18068F5E7024B9942B8
:10384000F5D1C068F0E7C046BF020000F7B5456893
:103850001600A8681F00019120F0F7FF0400A86877
:1038600020F0F9FF20F0F1FF030003205843073454
:103870000019800024F0EBFA074B040003606B682A
:103880003200436000238560C36001993B0008302B
:1038900007F044FE2000FEBDB0A6020070B5050092
:1038A00088680C0023F000FB230002000249280076
:1038B00021F023FA70BDC0464045030010B5024810
:1038C00021F007FC0FF090FA28D2020010B5040096
:1038D000082024F0BCFA024B4460036010BDC046CF
:1038E000ECA60200F7B5C56804001E00002D02D149
:1038F0001D602800FEBD03691830834205D1184BB6
:10390000994203D0174801F0D9F819602000164FEA
:1039100011007B680830019363687B60FCF790FEC0
:10392000019B05007B60012807D002280CD00023F2
:10393000E36023691B683360DBE723691B6833603E
:10394000002BD6D1E360D4E7A368986820F07DFF10
:10395000002305308000E36024186368EBE7C0466D
:10396000D4B602005E450300802E002013B501ABE3
:10397000FFF7B8FF01280ED0104C02280DD0019B94
:10398000A34219D0002B17D001AA01210C4821F025
:103990009AFB0FF029FA019816BD01980FF044FA2E
:1039A000074911F0ADFB002801D10198F1E701981A
:1039B00009F076FFA042F8D10020EDE7D4B602006E
:1039C00028D2020010B50B00022808D14A68054928
:1039D0001868FFF7CBFF002803D1FFF76FFF8A6855
:1039E000F5E710BDD4B6020010B500220149FFF77B
:1039F000BDFF10BDD4B6020013B5114C01AB114A86
:103A00002100FFF76FFF012803D0022805D0200016
:103A100016BD0D490D481FF02BF801980FF004FA60
:103A20000B4911F06DFB0028F1D101980FF0FCF962
:103A3000084911F065FB0028E9D101980FF0D4F98D
:103A4000D4B6020094CD020020450300ECD1020060
:103A50001CCF020028D2020010B50400431C02D083
:103A6000024809F0AFFF024B1C6010BDA82E0020D9
:103A7000782E0020014B024A9A647047802E002065
:103A8000A82E002070B501F049FA0F4C0F4B00250D
:103A9000A3620F4BE562636323002563A833032110
:103AA0000C481D60A5640AF007FA0B4E0121300096
:103AB0000AF002FA3000094A094921F0C2FB2660E7
:103AC0006660E56570BDC046802E002048D00200CB
:103AD00080F40200B82E0020CC2E0020760F0000CB
:103AE000860F000070B50624134EC3001C43736894
:103AF000002205002100181DFDF786FE021E18D1C8
:103B0000F06D002807D004302100FDF77DFE00286D
:103B100001D0406870BD002221000848FDF774FE06
:103B2000021E06D12A000649064809F0EDFE0FF0F4
:103B30005BF95068EEE7C046802E002044F6020094
:103B4000BB460300FCD002000A4B10B50400186805
:103B50005B6898420AD00621E30019430430002232
:103B6000FDF752FE002801D0406810BD2000FFF78D
:103B7000B9FFFAE7802E0020074B10B5D86D00285A
:103B800001D1064810BD043000220549FDF73CFE76
:103B90000028F6D04068F5E7802E00200CF50200E2
:103BA000DE0E00000A00C100062010B5024B0143E2
:103BB000186821F046FB10BD802E0020062110B5AC
:103BC000034BC0000143186821F045FB10BDC046FF
:103BD000802E00200A00C100062010B5024B0143D0
:103BE000586821F02EFB10BD802E0020062110B554
:103BF000034BC0000143586821F02DFB10BDC046A7
:103C0000802E002037B505000C00062806D10800DC
:103C10000FF030FB00280DD02C483EBDCB071BD544
:103C20004B10042816D816F0EBF903154E4E07007A
:103C3000002BF1D02648F0E7C0221206934204D1AF
:103C40008020C00521F0F4F9E7E75B425B0001202A
:103C50001843E2E7DB43F9E702281AD11D4B0B407A
:103C6000062B08D08B0714D10A681B4B92699A4225
:103C70000FD1486802E0C8081EF0AAFF002806D14C
:103C800001A920000BF022F8019901F035F9430059
:103C9000DDE720000FF0C8F84369002B0DD10F4B72
:103CA000AD002000ED5823F05FFD2A0003000C4911
:103CB0000C4809F029FE0FF097F8210028009847DA
:103CC0000028AAD1EBE70800A7E7C04620F90200C8
:103CD00028F90200070080FFA5FA0000ACFB0200F3
:103CE00047470300DCD20200F7B50400019116003B
:103CF0001F000FF099F80569002D09D1200023F06D
:103D000033FD06490200064809F0FEFD0FF06CF88D
:103D10003B00320001992000A847FEBD4E4603003B
:103D2000DCD20200F8B50E0015001C00930714D178
:103D300013681E4A934202D16B682360F8BD1C4A87
:103D4000934207D1002802D00FF06EF806006B688E
:103D500048C4F3E7174A934201D12560EEE75A6859
:103D6000022117008F4314498F4202D013498A421F
:103D7000F3D1002817D1124A93420BD0114A934233
:103D800008D0114A934205D0104A934202D0104AFB
:103D9000934208D10C2024F05AF80E4B4660036081
:103DA00085602060CAE725606060C7E7F8FA020016
:103DB000BCFA020070FB0200450200001A0200007B
:103DC000F0E902002CEA020068EA0200A4EA02001C
:103DD000E0EA020030A70200F8B500231360536048
:103DE00006000D0014000FF01FF8F92307005B0018
:103DF0009D4205D1836A002B02D00F4B48C4F8BD09
:103E0000FB69002B04D02200290030009847F6E718
:103E1000B86B0028F3D00621ED00294304301A00C6
:103E2000FDF7F2FC0028EAD0426823003900300098
:103E3000FFF778FFE3E7C046D4F5020070B516003F
:103E400004000D00FFF7C8FF3368002B15D10B4E9F
:103E5000A3070BD10A4B22689A4207D12B00626854
:103E60000849300009F050FD0EF0BEFF200023F09D
:103E70007BFC2B0002000449F3E770BD2CCE02004E
:103E800070FB0200D4460300FB46030073B5040038
:103E90000D0016000EF0C8FFC369002B09D00422E4
:103EA0000196009229006A4620009847009B002B4B
:103EB0000AD0200023F058FC2B00020003490448DC
:103EC00009F022FD0EF090FF73BDC046FB460300D3
:103ED0002CCE020073B504000D000EF0A5FF174BA9
:103EE000426A06009A4226D0002D03D1102023F00A
:103EF000AEFF0500736A002B12D1E6216A46FF313E
:103F00002000FFF769FF009B002B0FD1200023F05A
:103F10002BFC0B4902000B4809F0F6FC0EF064FF85
:103F20002900200098470028E7D076BD2900684680
:103F300000F098FFF9E72000F7E7C0469577020008
:103F40006A460300DCD2020037B504000EF06CFFB5
:103F5000856A002D02D02000A8473EBDF9216A469F
:103F600049002000FFF738FF009B002B05D06A4670
:103F7000290028001EF040FDEFE7200023F0F4FBAD
:103F800003490200034809F0BFFC0EF02DFFC046B4
:103F90009C460300DCD2020030B505008FB00AF069
:103FA00059FD28000EF040FF846A002C05D028003F
:103FB000A047040020000FB030BDF9216A46490037
:103FC0002800FFF709FF009B002B16D002A80EF077
:103FD000E5FE002807D16A4601001EF00DFD040031
:103FE0000EF0FAFEE6E7039B0849186811F088F81E
:103FF0000028DFD103980EF0F7FE280023F0B4FB71
:1040000003490200034809F07FFCF4E728D20200CC
:104010009C460300DCD20200F0B513688FB0079312
:10402000002800D073E00400131D0393FF220B004F
:10403000090A1340114001934B000693069A019B15
:1040400005919B18039A9B00D2580492039AD318A7
:104050005F68381E09D00020BB0706D1944B3A6830
:104060009A4202D1380021F0E9F8059B1818049B08
:104070004600002B50D1019B581C831998000093D7
:1040800023F0E5FE26000500002C01D00126046087
:10409000019BB0009A002818039925F08CFC019B25
:1040A0009B190293029B9800059B2818DA00019B3C
:1040B0009900039B591825F07EFC029A069B9446B2
:1040C00063440193002F12D003243C4000D0A9E0A8
:1040D000774B3A689A4200D0A4E0380021F0C6F845
:1040E00003230600009373689C4200D27DE0019B8D
:1040F000029A02999A1A52082B000798FFF7F4FDCA
:104100000400280023F0D2FE20000FB0F0BD130001
:1041100008330393546889E7049B9B072FD1049BC2
:10412000644A1B68934202D0634A934227D10AAA89
:1041300009A904980FF002F8099B581C019BC018AC
:1041400083199800009323F082FE26000500002CBE
:1041500001D001260460019BB0009A000399281841
:1041600025F029FC019B0A999819099B80009A0067
:10417000281825F020FC019B099A9B1890E7019BC9
:10418000181D83199800009323F061FE2600050096
:10419000002C01D001260460019BB0009A00039915
:1041A000281825F008FC019B0AA99B190498029382
:1041B000FFF790FE029B04909C000498FFF7ECFE32
:1041C000061E00D16EE7009B029A934207D8D900E1
:1041D000280023F05AFE0500009B5B000093029B21
:1041E0002E51013302930434E7E7B368E700D8594E
:1041F000002815D0042813D0009B184205D12F4B5E
:1042000002689A4201D121F031FE019B019A9B0084
:10421000E85002320192B268EB18D7197A685A60F6
:10422000013460E70AAA26493800FFF707FE00219B
:104230000AAA08001EF0E0FB0021FFF74BFE019BDD
:1042400003909E000398FFF7A7FE041E00D14EE7DF
:10425000019B009A01339A420BD853000093042B20
:1042600001D204230093009B2800990023F00DFE47
:10427000050003231C4207D1104B22689A4203D148
:10428000200021F0F3FD0400E6210AAAFF313800E6
:10429000FFF7D4FD0AAA002101200C941EF0ACFB0C
:1042A000019BAC5102330193AB1958600836C9E742
:1042B00044D5020088F4020040BD0200489C020080
:1042C0006B02000070B50C0086B0160083071CD18D
:1042D0000368204A934202D01F4A934215D102AA92
:1042E00001A90EF02BFF019BA3422CD31BD8002366
:1042F000029DA000A34201D106B070BD9900421AF0
:10430000043AAA5801337250F4E702A9FFF7E2FD1C
:10431000002305000193019B2800A34206D3FFF769
:104320003BFE0028E8D022000C490EE0FFF734FEE7
:10433000002808D0019A0A49A31A5B189B00013291
:1043400098510192E7E7019A0649074809F0DCFA1B
:104350000EF04AFD88F4020040BD020088470300C9
:10436000FFFFFF3F6547030054D30200F7B5FF246A
:104370000E00090A264015000C40830731D103685E
:10438000384A934202D0384A93422AD101AA694658
:104390000EF0D4FE0098331983425BD883009C460C
:1043A000002301999A00A3420FD1B400801B091980
:1043B000C01AAD181FF0D2FE019B28601C19002303
:1043C000013601339E4207D1F7BD6746BF1A043F4D
:1043D000CF590133AF50E5E79A0051426158A950D7
:1043E000EFE70021FFF776FD002307000093009B15
:1043F000B34218D3002108001FF0B0FE06003800B9
:10440000FFF7CAFD011E1BD1B168A14222D3A30050
:104410008A00EB181E60AA18091B9D4214D13000B7
:104420001FF0B8FED0E73800FFF7B6FD002811D026
:10443000009AB31A1B199B00013258510092D6E71B
:10444000300004F0EFFBDAE7F468D01A2058043BA0
:104450001860E2E7009A0549054809F055FA0EF0A0
:10446000C3FCC04688F4020040BD0200654703005B
:1044700054D30200F0B591B01D0006000C001700E7
:104480000EF0D2FC334B984207D12B003A002100AA
:104490003000FFF727FA11B0F0BD826A2E4B002AD8
:1044A00008D09C4230D13000904728600028F2D0DC
:1044B0000120F0E79C4227D1F92101AA49003000F0
:1044C000FFF78AFC019B002B0DD1D72101AA4900DF
:1044D0003000FFF7B3FC039401AA002101201EF075
:1044E0008BFA2860E4E704A80EF058FC002807D1F6
:1044F00001AA01001EF080FA28600EF06DFCD7E7DB
:10450000059B2B600220C6E7002CDED138000EF0A0
:104510008BFC124910F0F4FD01AA00280ED01049BE
:104520003000FFF759FC019B002B10D001AA21009D
:1045300020001EF061FA28602000ACE70949300035
:10454000FFF74AFC019B002B01D00397C4E72F60C3
:10455000D8E7C046B0A60200D4B602001CCF0200C5
:1045600019020000CD02000010B5040009F012FA93
:10457000002808D0002320001A001900FFF7B4FB20
:104580000400200010BD200020F0B4FD0028F8D168
:104590000249034820F0AAFDF2E7C0461D47030088
:1045A000DCD202007FB5C30006201843054B019002
:1045B0000491052001A902930393059204F046F9A2
:1045C00007B000BDD4B602001423F0B58DB000AF23
:1045D000FA1805000C00FFF7FFFBBB69002B06D0A3
:1045E00022002C492C4809F08FF90EF0FDFB786968
:1045F00000284CD128001FF07AFC0028F0D01423AA
:10460000F821FA1828004900FFF7E6FB1022786924
:10461000B9180AF079FFB86020001EF0DEFA6A4689
:104620003E69B968731C7B60C318FB600E33DB08FE
:10463000DB00D31A9D466D463200280025F0BBF9F9
:104640002E23AB557B682000EB18BB601EF0CAFA26
:10465000060020001EF0C1FA31000200B86825F003
:10466000AAF9F968280000F097FCC3000620184357
:104670000A4B10223B627B62094BBA18BB620123D2
:10468000FB620B33F861D118052004F0DFF8BD465A
:104690000DB0F0BD8646030058CF0200D4B602002C
:1046A00028F90200F0B5174C0F00616895B003912E
:1046B0002168060008A80491626023600EF06EFB7A
:1046C000051E06D0039B09986360049B23600EF0CF
:1046D0008BFB33683A00310005A8019306F004FD16
:1046E0002B002A00019905A803F0F8FE1EF075F9C9
:1046F00005000EF071FB2800039B6360049B2360A0
:1047000015B0F0BD802E002010B5040007F00AFBA4
:10471000031E054802D005491EF0AAF922000449EB
:1047200009F0F2F80EF060FBC0D00200AC450300C7
:10473000D5450300010010B501481EF099F9C046A7
:1047400054D30200F0B58BB004900F0003922028E0
:1047500003D191420FD0AF4EBFE0049B1B2B01D081
:104760001E2B0DD1039938000EF0F4FB049B00289A
:1047700003D01B2BEFD1A84EAFE01B2BFBD1EAE7F8
:10478000049B212B3FD1039809F004F9002806D09F
:104790000399380020F0B4FC0028ECD1DBE70324B7
:1047A000039B1C4005D1039A9C4B126805929A42C8
:1047B00023D0049B9A4A9B0038009C5822F0D4FFD7
:1047C0000500039822F0D0FF2B00009022009549AD
:1047D000954809F099F847E1039AA300D3189D681A
:1047E000280009F0D7F8002800D158E12900380046
:1047F00020F086FC0028BED10134039B5B68059342
:10480000A342E9D8A7E70126314200D116E1039B74
:104810004D101E4000D1E7E05C10049B1D2BC8D852
:10482000180015F0F7FB1E0028002A002D00450097
:104830004C004E0050005D0066007B008300B40019
:104840001E0028002A002D0045004C004E0050009C
:104850005D0066007B008300CC00D000C6FFD40062
:10486000D80025432E0070000300734000D5B6E049
:104870000126064331E06540F4E72C402600F2E7CC
:10488000002C02DA6948FFF755FF1F2C08DC684B43
:104890002341AB4204DBC0231B062341AB4205DDB1
:1048A000E917280020F0B5FB07004BE0A540D9E749
:1048B000002CE7DB1F2C00DD1F242541D2E72E1939
:1048C000D1E72E1BCFE72100280000F089FE002849
:1048D000E6D1012665436D002E4330000BB0F0BDDC
:1048E000002C00D1DDE0210028001EF0E6F90600D2
:1048F000B9E7002C00D1D4E0280016F01BFD051C00
:10490000200016F017FD011C281C16F00FF80323D9
:1049100002269843474B0643F618DEE7002C00D1E9
:10492000BFE0210028001EF0B8F9E0E72F00002CBE
:104930002ADA280016F0FEFC0323022798433D4B99
:104940000743FF1838000EF06FFA8369002B00D17F
:104950002FE7039A39000498984756E001231C4238
:1049600006D03900300000F03BFE002898D17E438D
:10497000012C00D177E739003800641000F030FED8
:10498000002800D08CE77F43002CE7D16BE7002C98
:1049900000D186E0002102200EF05CFD210006001F
:1049A00028001EF08AF9012740003843B06021003A
:1049B00028001EF072F9B8400743F7608DE7A54262
:1049C00000DAD8E6C7E6A54200DDD4E6C3E6A54294
:1049D00000DCD0E6BFE6A54200DBCCE6BBE630005B
:1049E00020F026FB060078E70323039A1340022BEE
:1049F00024D1114B1340062B20D0280016F09AFC2E
:104A0000039A011C049800F02BF9061E00D064E7FD
:104A1000CFE6C04620F9020028F9020088F402001F
:104A200024FA020018460300DCD202000346030009
:104A3000FFFFFF3F00008080070080FF049B1F2BCB
:104A400000D07FE703980EF0EFF983690400002B94
:104A50000CD1636A002B11D1039822F085FE134913
:104A60000200134808F050FF0EF0BEF93A00039917
:104A700004989847061E00D02FE7EAE706A9039896
:104A8000FFF728FA04002000FFF786FA002800D17B
:104A900061E639000EF05EFA0028F4D06BE603956B
:104AA00087E6044904481DF0E3FFC0466A46030058
:104AB000DCD202003D46030090D30200010010B595
:104AC00001481DF0D5FFC046DCD20200F8B5040055
:104AD0000D0017001E00002908D018680EF0A4F978
:104AE0006368834202D00548FFF7E8FF33003A00CD
:104AF0002900A068FFF7F8F8F8BDC0469445030008
:104B000001214000014310B5024820F0E8FA0EF000
:104B10006BF9C04674D10200010010B501481DF0C8
:104B2000A7FFC04638D10200FF230322DB05CB18C4
:104B300010B59343042804D815F062FA06030F0455
:104B400016000021080010BD0021181C15F02CFCD7
:104B50000A490028F6D00A49F4E7181C16F0CAFBE7
:104B6000012140000143EDE7802109065B18022185
:104B700093431943034BC918E4E7C04628F90200E0
:104B800020F9020000008080FF23DB0510B504003F
:104B9000C81803239843002386B00193063300937B
:104BA0001022613302A907F0B9FE02A920001FF00C
:104BB000E3FF2E2102A824F056FF00280FD1652123
:104BC00002A824F050FF002809D16E2102A824F089
:104BD0004AFF002803D1034920001FF0CDFF06B093
:104BE00010BDC0468183030030B50C0011000022C7
:104BF00085B01D0000920123200005F049FE002C25
:104C000023D02868124B0340062B06D003242042F1
:104C10000ED1104B02689A420AD103A90AF074FC23
:104C2000002203990092130011F084F805B030BD02
:104C300003002340022BF9D00EF042FA03000220B9
:104C4000A3431843044BC018F0E70448EEE7C046FE
:104C5000070080FF489C02000000808002008080E6
:104C6000F0B5050087B0100001910EF029FA041C80
:104C70000390681F182800D9BDE015F0C1F90D1286
:104C80001F24333E6F81BCBCBCBCBC0D121F24333F
:104C90003E6F9FA8ADB2B7000198211C15F0ACFC87
:104CA00003E0211C019816F04BF9019003230198B1
:104CB000524A9843013B03439B187CE0211C019816
:104CC00016F00CF8F1E70021201C15F06DFB002810
:104CD00003D04B494B481DF0CBFE03A901A81DF0A2
:104CE000D1FEE3E70021201C15F05EFB0028F0D187
:104CF000211C019815F01AFED7E70021201C15F0A1
:104D000053FB0028E5D1211C019818F0EFFE00218B
:104D1000041C019015F048FB002807D0039A0023DB
:104D2000002A01DA80231B060193BFE70021201C23
:104D3000039E012715F03EFB002800D1071C00212F
:104D4000301C012515F036FB002800D1051CFFB2F0
:104D5000EDB2AF42AAD0311C201C9FE7019D00217B
:104D6000281C15F021FB002805D00021201C15F07F
:104D700021FB0028ADD1211C281C18F09BFF94E7D3
:104D80000021201C15F010FB0028A2D103A901A8C6
:104D90001DF078FE03220220019B18499343034330
:104DA0005B180493039B934303435B1804A9059387
:104DB0000EF050FB0300180007B0F0BD0199201C55
:104DC00015F00CFB104B0028F5D1104BF3E70199BF
:104DD000201C15F0EFFAF5E70199201C15F0E4FA14
:104DE000F0E70199201C15F003FBEBE70199201C6B
:104DF00015F0EAFAE6E70023DDE7C0460000808010
:104E00003D46030090D3020028F9020020F9020079
:104E100030B58DB0050068460DF0C0FF011E10D101
:104E20002A1D01201DF0E8FD0122EB6804005B1043
:104E300001335B001343EB600DF0CEFF20000DB09B
:104E400030BD0198054A0368934205D0044A002406
:104E50009342F3D00DF0C8FF0024EFE728D2020000
:104E6000D0CF0200044B0B6003684B60436808001E
:104E70008B600123CB607047A8A70200074B5B69DA
:104E8000002B01D1180006E05A68824204D8801A2B
:104E900004308000C05870471B68F1E7802E002066
:104EA00070B5144D04006B699868DB68834215D3B4
:104EB0000230C00022F0D8FF6B69002803D1986847
:104EC0004000FFF721FC5A68D96803609B685218BC
:104ED0005B00836000234260C36068616A69D368D5
:104EE0005068591C04339B000138D16040189C5015
:104EF00070BDC046802E0020074B4118884204D365
:104F0000D8B2002800D1013070475A01D318027876
:104F100001305340F2E7C04605150000034B044A38
:104F20005A6100229C331A607047C046802E0020D0
:104F3000E4A70200F0B585B001900E00FFF7DCFF9A
:104F4000144B02905C69002C01D120001EE0270068
:104F500010373D00E3689B00FB180393039B9D42C1
:104F600001D32468EFE72868029A037893420FD1AF
:104F70004378B3420CD102303200019924F00CFD89
:104F8000002805D1ED1B6068AD10281805B0F0BDF4
:104F90000435E3E7802E0020F0B585B00390019141
:104FA000FFF7C8FF002861D1314D019B2F009C37CE
:104FB000DC1C3B68002B18D02E002E4AA03612684D
:104FC00031680292A2188A420FD9020061181800B3
:104FD00022F068FF0290002822D1264B02001968B7
:104FE000386822F05FFF029B3B602B009C331B68FC
:104FF000002B20D12600802C00D2802630002F00EC
:1050000022F032FF9C37386000280DD1200022F0BA
:105010002BFF26003860002806D12000FFF774FB24
:1050200033681B193360E0E72B00A0331E602B00B0
:105030000022A4331A602B00A4331A689C352D6813
:10504000A41801990398AD181C60FFF755FF019B48
:1050500028701A006B70A81C039924F0ACFC002285
:10506000019B2800EB189A70FFF71AFF05B0F0BDFE
:10507000802E0020242F0020F7B51D0016000023ED
:10508000070003600B6033602B60174B00915C6975
:10509000002C02D0154B9C4204D133682A68D318E7
:1050A0002B60F7BD3B6801333B60E268009B944690
:1050B0001B68009A0193634413602200E368103276
:1050C0009B00D3189A4207D3200007F02BF82B68D7
:1050D000246818182860DBE702CA30684978033072
:1050E00009183160EEE7C046802E0020E4A70200D8
:1050F0000C4B70B55C69002C02D00B4B9C4200D16C
:1051000070BD2600E36810369D007519AE4201D3CC
:105110002468F0E704CE0549023205481FF0EDFD92
:10512000F4E7C046802E0020E4A70200B647030043
:1051300048CC0200184BF7B530CB0F001600012801
:105140001AD94B68154A934207D0990711D11449CF
:105150001C688C420DD11C001D0002280CD0BB68BD
:10516000934209D09A0704D10D4A19681C00914254
:1051700002D00020FFF7A2FC01A938680AF0C4F9A8
:10518000019A01000023102020F0C3FF2A00310003
:105190002300FFF787FAFEBD802E0020D4B6020060
:1051A00044D5020010B504004868002204300749C5
:1051B000FCF72AFB064A002803D040680AF08EF963
:1051C0000200044920001FF098FD10BD860F00006A
:1051D000239B03008869030070B5150012680C005A
:1051E0004068002A0AD1CC00062104302143FCF794
:1051F0000BFB002801D043682B6070BD03799B072F
:105200000BD50C4B9842F8D10B4EF36D002B03D10C
:1052100001201FF0DDFFF065F06D06216A68E400F3
:105220002143002A03D120F016F80023E4E720F000
:1052300008F8FAE740F60200802E002070B5062537
:10524000C0000543012229000B48FCF7DDFA446841
:105250000600002C0ED1082022F0F9FD074B0400B7
:10526000036001201FF0B4FF2A00606004491FF0B2
:10527000E8FF7460200070BDBC2E00205CB6020008
:10528000860F000010B50C000621C000014301226A
:105290000248FCF7B9FA446010BDC046BC2E00209D
:1052A00073B50625C3001D430600002229001048DF
:1052B000FCF7AAFA041E18D1020029000D48FCF7D9
:1052C000A3FA041E12D0EA216A46FF314068FEF7B5
:1052D00083FD009B002B08D000216A4608001DF0CA
:1052E0008BFB61683000FFF7CDFF606876BDC0467C
:1052F000BC2E002080B5020010B504000C2022F066
:10530000A6FD034B4460036001235B42836010BD34
:1053100098B6020010B502491FF02EFC10BDC04621
:1053200096690300F7B50020214A224E12783368AF
:10533000111D4900CC5A5F1859880190A020C00562
:1053400084466405640D4C431B49A41209687878AF
:1053500007270500BD43F82D1DD00125C008854055
:105360002800A1256746ED0001327851D2B2101D08
:105370004000C55A1F186D0558886D0D684380128E
:10538000001BE4D00A4C2270019A002A02D00A4A7B
:1053900033601160FEBD6046084A5C688450002995
:1053A00003D001220B00002101920A000C00DEE76D
:1053B0000A2E0020B4010020B80100200C050000D6
:1053C00010B572B600220F4B18681A6062B6904290
:1053D00010D10D4B0D4A1B680D48934200D01000B0
:1053E0001A7802705A8842805A68426000221978FE
:1053F0008A4200D310BD510044185918098901325E
:105400002181F4E7B8010020B4010020BC01002094
:10541000EC010020044B054A1A600023044A136083
:10542000044A13707047C046B401002014B702004C
:10543000B80100200A2E002010B57822024902206F
:1054400005F0DEFC10BDC04625530000421E084B8F
:10545000FF3A10B504009A4207D8FFF7B1FF054B99
:10546000241144801860002010BD01204042FBE759
:1054700040410F00B8010020044B1B68002B01D1F4
:10548000034B1B68588800017047C046B8010020D4
:10549000B4010020F7B53D4A04000D000B00914215
:1054A00000D913008022D200D31A0193FFF788FF9E
:1054B0000122A24046680092164207D12300A02193
:1054C0000327C133FF339B00C9055F5000270378D2
:1054D0009F4206DB002D01D0132B0BD92C4B1860FB
:1054E000F7BD391D490042185278D208A24243D074
:1054F0000137EDE7009A191D32434260019A4900D5
:1055000055050A5A6D0DD20AD2022A430A52520593
:10551000E400520F4118144301334C700370851C92
:10552000012225E0009A013BDBB2964303704660FE
:10553000BB42F4DD04335B001B5A0B52EFE72F0034
:10554000131D5B00195A2E894905490D531E1C1D58
:105550006400245A6405640D8C4204D9FC88023F1F
:105560007C81013BF3D205335B001E5201320235D0
:1055700003789A42E3DBB1E7002DD3D0019B5A05B3
:105580000B5A520DDB0ADB021343D6E7FF03000080
:10559000B801002070B500210400FFF77BFF002157
:1055A0000D4B18680578A94200DB70BD0B1D5B0030
:1055B000C3185A78161CD208944201D00131F2E780
:1055C0000822524232435A700123A021A340034AC9
:1055D000C9058B50E9E7C046B40100200C05000066
:1055E00070B506000D00002814DD002907DD154800
:1055F00014F0A4FD0124B04209DB002407E00100FF
:10560000C020000614F09AFD0124A842F5DDE4B2A2
:10561000200070BD002907DDC020000614F08EFDBB
:105620000124B042F3DCE8E70024A042F0D00100FE
:10563000044814F083FD0123A84200DC231CDCB2E3
:10564000E6E7C046FFFFFF3FF8B5214E35686968C1
:1056500001292DD9AA684B1ED05C0A2828D1002B1D
:1056600001DC1C0009E0581E145C0A2CF9D0030070
:10567000F5E7105D202802D10134A142F9D8002BB2
:105680000BDD601C814208D1581E002805D001386E
:10569000175C0A2F0CD0202FF7D05218023AE31AC9
:1056A00014789B083A3C624254411C19002C00D1EA
:1056B000F8BD084F0422390028001FF05CFB0421CC
:1056C0003800FCF73FFC3369013C04333361EDE7FC
:1056D0001C0200203292030010B520220021024853
:1056E00024F085F910BDC046E02E0020084B10B50F
:1056F000426818600020986018750138D86008006A
:105700005A601A6199611DF04EF8FFF79DFF10BDB8
:105710001C020020F8B503780400002B1ED0104DA9
:10572000286E002804D0210024F0ABF9002815D001
:10573000200024F0B0F9471C380022F095FB061E2B
:105740000CD03A00210024F036F92A00054B5C32D7
:105750001968043B99609342FAD12E66F8BDC046A1
:10576000802E0020F82E0020F0B5B84C02002068F2
:10577000A568436885B00193002D00D0FDE0531E5D
:10578000042B11D8636801998B4200D195E0012A5E
:1057900000D12AE1022A07D123696268934200D925
:1057A0004FE10122524288E0032A00D185E0042A19
:1057B00000D12FE1052A00D107E1062A0ED1236985
:1057C000019A9342AD416D42002DEADD2368290024
:1057D00098682369C018FCF7B5FB1FE00B2A21D19C
:1057E000019B2269991A1FF086FB2368019A5B6866
:1057F000934204D213002269981AFCF7D9FB22685D
:10580000236951689068C91AC018FCF79BFB23688C
:1058100058682369C01A401BFCF7B8FB23695D195F
:105820002561BEE70E2A13D1E368002BB9DB013BEB
:10583000E3606268019B991A1FF05DFBE368002B2F
:1058400018DB1633824A9B00D318996820680FE052
:10585000102A16D1E368062BA3DC5D1C7C4A1733A3
:105860009B00D318996800299BD06368E56043606A
:105870001FF006FB63682269D61A22685568ED1A84
:105880000AE0152A0CD12369626861689A1A1FF030
:105890003AFB236962689E1A0127002E2FDCA4E7D9
:1058A0000D2A0DD16B481CF07EFF20681FF0CDFA49
:1058B0006368C018FFF72EFF0022100005B0F0BD8E
:1058C00001231B2A62D0082A01D07F2A20D1216916
:1058D0006268914200D864E700238668B618F75CD6
:1058E000202F13D101339F18B942F8D80426032B77
:1058F00000DC033E891B32001FF005FB012730004E
:10590000FCF744FB23699E1B266178E00126F1E742
:10591000092A28D1636822698068D11AC0184E4AC2
:1059200003AB0CF0B1FC061E00D13AE70027431C84
:105930000BD1A0691CF037FF63682269D11A226875
:105940009068C018FCF7FEFA4FE723692068F91841
:10595000039B01375A1C03921A781FF0BAFABE4211
:10596000F3D1350041E71300203B5E2B00D918E747
:1059700021691FF0B7FA012537E7012D08D104236B
:105980004F2A03D002235B2A00D00023A36008E73C
:10599000022D20D11300303B092B03D8032322759D
:1059A000A360FEE60023A360412A00D152E7422A09
:1059B00000D139E7432A00D101E7442A00D1EBE6C0
:1059C000482A12D0462A00D0EBE60027019B226924
:1059D0003E009D1A0EE00021032D29D17E2A24D1FC
:1059E000237D312B01D0372B0DD100252F002369CA
:1059F00062689E1A0023A3609E4200DD7FE7002FAD
:105A000000D1E1E6F1E61A00FB25343A2A42DCD067
:105A1000332B0AD12169019B994206D201221FF042
:105A200072FA002501272E00E4E700252F00FAE78F
:105A3000042D04D1462AC8D0482AD6D0A5E7A160B3
:105A4000AFE6002501262F0059E7C0461C020020C2
:105A5000802E00204C93030048CC0200012201005C
:105A600003001140100000290CD10800990709D14A
:105A70001B68054910008B4204D00448181A4342A1
:105A80005841C0B27047C046E8F9020030F9020040
:105A90000023FA21094A89001360094A1370094A50
:105AA0001360094A1160094A1370094A111D08322E
:105AB000D3670122CB67074B1A7070473C02002066
:105AC0000B2E0020380200200C0000200C2E00209D
:105AD000802E00200D2E002010B5084B084A1978A2
