:020000040000FA
:10000000004000200592010041920100439201004E
:1000100000000000000000000000000000000000E0
:1000200000000000000000000000000045920100F8
:10003000000000000000000047920100499201000A
:100040004B920100FD540100499901004B920100BF
:100050004B92010000000000059301004B9201004B
:1000600095520000B99E0100BD9701004B9201001E
:100070004B9201004B9201004B9201004B92010008
:100080004B9201004B9201004B9201004B920100F8
:100090004B920100858F01009D8E0100D15300001D
:1000A000E15300004B92010000000000000000003E
:1000B0000000000000000000000000000000000040
:1000C00010B5064C2378002B07D1054B002B02D02E
:1000D000044800E000BF0123237010BD2001002070
:1000E0000000000024A10300044B10B5002B03D036
:1000F0000349044800E000BF10BDC04600000000F6
:100100002401002024A10300164B002B00D1144B26
:100110009D46402292029A1A924600218B460F4633
:100120001348144A121A29F07EFC0F4B002B00D002
:1001300098470E4B002B00D0984700200021040068
:100140000D000D48002802D00C4800E000BF20F050
:10015000D5FD2000290029F0BCF920F01BFDC04688
:100160000000080000400020000000000000000027
:1001700018010020E02F0020000000000000000017
:1001800010B5024925F0F6F810BDC046DE0E03009A
:10019000F7B503780400002B1FD0402B20D101239A
:1001A0000193002304221E001D00190094462278AA
:1001B000002A3ED10132002910DC002D0EDC002E79
:1001C0000CDC033B934209D9013C23785C2B05D01E
:1001D0000199002901D00A2B00D100221000FEBD98
:1001E0003F4921F066FB0028D9D13E49200021F08B
:1001F00060FB0028D3D13C49200021F05AFB0028A5
:10020000CDD13A49200021F054FB0028C7D138490C
:10021000200021F04EFB0028C1D13649200021F0FA
:1002200048FB0028BBD13449200021F042FB01905B
:10023000B7E76778272A11D1002B4DD0032B09D1BE
:10024000272F05D1A278272A04D10234243AD31AC1
:100250000134ACE7012BFBD80122F8E7222A11D1A7
:100260001A006046824309D1222F05D1A278222AA2
:1002700002D102346246EAE7002B01D0022BE7D11B
:100280000222E4E75C2A0AD1272F03D0222F01D0D3
:100290005C2F04D11A00571EBA41A418D8E7002BCE
:1002A000D6D15B2A12D006D8282A0DD0293A574237
:1002B0005741C91BCCE77B2A0AD07D2A0AD05D3A78
:1002C00057425741ED1BC3E70131C1E70135BFE795
:1002D0000136BDE7013EBBE7272FBDD1B2E7C046DF
:1002E000B1620300EF0E0300F50E0300F90E0300E8
:1002F0008E2C03001DA1030016950300F0B58BB0F2
:10030000079343180390049201930093009B5C1E93
:10031000039BA34201D9009310E0207802F000FC77
:10032000002801D00094F1E7207802F005FC0028B5
:10033000F8D123785F2BF5D02E2BF3D07D4B1D68A1
:10034000009C019B9C4202D223782E2B21D1009B42
:10035000E71A019B9C4241D3002426000294019499
:10036000AB68A34256D8019B002B00D084E0009BD1
:10037000039A93422FD1704C3A002100180029F0C3
:1003800027FB002827D1079BE41907301C60C01BFE
:1003900022E00134D5E70136AB68B3421BD9F30044
:1003A0000293EB68F20098580028F4D00428F2D0A9
:1003B00009A90EF053FC099B0100BB42EBD13A00A6
:1003C000009829F08BFB0028E5D1EB68029A9B1876
:1003D0005868002804D100200BB0F0BD0026DBE7F0
:1003E000032318420CD10368544A934205D124F0E8
:1003F00006FB0500631C0093A2E7514A934201D01B
:1004000005F082F8856B002DE5D04E4B2A689A42A4
:10041000F0D0E0E7EA68E300985800281CD00428F0
:100420001AD009A90EF01AFC099B06900593BB424D
:1004300012D301003A00009829F050FB00280BD19C
:10044000029B002B12D03B009E4202D3059A9A4297
:1004500004D2019B01330193013481E7029AD15CFC
:10046000069AD25C914205D10133EDE7069B059EC9
:100470000293EEE71E00ECE7019B012B01D0BE4288
:1004800054D9029B079ADB191360F01BA4E7029B67
:10049000EA68DB00985800283AD0042838D009A927
:1004A0000EF0DCFB099B03900593BB4230D30100A7
:1004B0003A00009829F012FB0190002828D133005F
:1004C0000F220F33DC171440E41824112401A41B5D
:1004D000012C00DC1034059A33199B18402B0DD9E0
:1004E000039A1949049825F006F8099E10E0174967
:1004F000049824F03FFF019B01330193019B9C4230
:10050000F5DC0399049824F035FF099BF618361999
:10051000029B01330293AB68029A9342B7D80C490D
:10052000049824F027FF0120404255E7002340268D
:100530000293F0E7782E0020E30E030068D3020058
:10054000E8E202001CD50200EB0E0300A6990300AE
:10055000811703000022104B10491A600300123368
:10056000FF3341185A701A7004338B42FAD10100DC
:100570000300002209310833FF311A709A705A7053
:10058000DA7004338B42F8D1C3237F229B00C2541C
:10059000034B044A1A6070473C010020110300001D
:1005A00004000020FD0E0300F0B500267E2432007A
:1005B00031009300C318FF335F7C7F2F4CD09B7CAE
:1005C000F618F6B2531CDBB2EF2E2AD9C1267D25D0
:1005D000B60086193700AC469C4516DA9B00C31856
:1005E000FF3359749974D97419757D230232D2B2CC
:1005F000934211DA9300C318FF335C749974D97471
:10060000197500260132D2B2D3E73D68043FBD60C0
:1006100001256D42AC44DFE73568013B7560043E5F
:10062000E6E77D2FEED80D4DEF5D01252F42E9D095
:10063000C1227D26920082189E4208DA9A00821812
:10064000FF3254749174D17411751A00D9E715688A
:10065000013E5560043AEFE7F0BDC046E00F0300ED
:1006600070B5002140250D4C8B00C318FF335A7C18
:100670007F2A11D0A25C0131C9B22A42F4D05A7D3E
:100680007F2AF1D0A25C7F2AEED9DA7D56B2002E05
:10069000EADD0132DA74E7E770BDC0468F0F030070
:1006A0000300F7B500214B4A1333FF33821819704A
:1006B00004339A42FBD1FC2300249C46220084444C
:1006C00053B2002B04DA444B444A1A60002008E07D
:1006D00063461F69BC4205D37F2344329200135402
:1006E0000120FEBDDE68355D602D01D9203DEDB2F3
:1006F000611CC9B28F4251D0735C602B01D9203B81
:10070000DBB2232D4DD1303B092B02D9324B344A79
:10071000DBE70234E1B28F4204D8FF2BF6D84370F6
:100720000C00CDE7745C2500303D092DF5D80A2575
:100730006B430131303BE318C9B2ECE70136512E6F
:1007400030D10023274C1F5DDEB22A2F0CD1264F5B
:10075000FF5CAF4208D19300C318FF335E74447846
:1007600001321C75D2B2DBE70133512BEBD11F4CA8
:10077000493B08342678AE4208D0013C002B02D118
:10078000154B1B4AA1E7013BDBB2F3E7002BF7D087
:1007900014004334A4000419A370C1E7232DB5D07D
:1007A00000230026F7B201970F4FF75DAF42C5D186
:1007B0000C4FF75D2A2FC1D09F42BFD19300019902
:1007C000C318FF3359744178013202341975D2B21B
:1007D000E1B2A5E71203000004000020000F0300AF
:1007E000120F03001F110300CE100300701103004D
:1007F000200F030010B51130084A0949FF30037873
:100800007F2B00D110BD02240457002C03DCCB5CED
:1008100043700430F3E7D35CFAE7C0467E10030070
:100820002E100300F0B50023070085B09E00BE190E
:100830003100FF314A7C9C467F2A01D105B0F0BDD2
:100840004F4B02209C5C63460133DBB20442EDD087
:10085000012560462C4242D15419E0B2009049482B
:100860007C35801840780190C87C097D0290039106
:10087000C1218900791808009D4226DA9B00009862
:10088000FB18FF3358740198941C98740298E4B2D2
:10089000D874039818753B48634682183000FF30BF
:1008A0009578027D023300927D22C67CDBB29A42AB
:1008B00010DA9B00FB18FF335C749D74DE74009AA1
:1008C0001A7563460333DBB2B0E70468013D446048
:1008D0000438D1E70868013A48600439E7E7013095
:1008E000C0B2010044318900C95D0029F7D07F29D9
:1008F00008D008242248405C204297D1243901299D
:1009000000D893E73000511CC9B200911D49FF3057
:10091000891849787D250191C17C0291017D03915F
:10092000C121890079180C009D421FDA9B00009CB0
:10093000FB18FF335C74019C124D9C74029CDC74A8
:10094000039C1C75941CAA1863469678027D02339A
:1009500000927D22C57CDBB2E4B29A420BDA9B00A6
:10096000FB18FF335C749E74DD74A8E72668013DB4
:100970006660043CD8E70868013A48600439ECE74F
:100980008F0F03002E100300F7B500229300C31849
:10099000FF335C7C002C03D10132D1B20A00F5E7B1
:1009A0007F2C00D126E1102693490D5D511CC9B260
:1009B000354227D0DC7CAD06ED0FA4462C00C125C6
:1009C0001434AD001F7D019445196D368E4214DA42
:1009D0008D00019C4519FF356C740024AC7464468D
:1009E0002F75EC745C7C352C00D0C5E05A7B834CB1
:1009F000A25C5207D2D5102285E02C68013E6C60C3
:100A0000043DE3E74E2C1CD118220D24DD7C5C74E0
:100A10001E7DC1239B00C31870348C420CDA8B00FE
:100A2000C318FF335A740022DD749A741E75B5E73B
:100A30001B22EAE71C22E8E71F68013C5F60043BD9
:100A4000EBE74F2CF4D0502CF4D06DB2002D2BDA04
:100A5000DD7C002D28D00D004435AD002D5C002D2F
:100A600022D1961CF5B20195AD004519FF356F7C7A
:100A70007F2F19D0604EF75D7F2F15D9EF7C002FA7
:100A800012D0C1237D229B00C318019C944206DD35
:100A90001F236B740023AB74EB742B757EE71C680B
:100AA000013A5C60043BF0E7172C2ED15C7B013AE5
:100AB000D2B2452C1DD11B3C5C7315004335AD00F3
:100AC0004D4C2D5C655D7F2D00D867E70132D2B2B9
:100AD00092008218FF32557C002D00D180E0645DC9
:100AE0007F2C00D85AE7D27C002A00D056E71E326D
:100AF00009E0392C01D10D3CDEE73F4A125D7F2A27
:100B000000D84BE712225A7448E7182C07D15A7BB9
:100B1000394CA25C7F2A00D840E71322F3E7202C4F
:100B200005D15A7B3C2A00D038E7163AEBE7482C2F
:100B300015D15C7D7F2C02D14B245C7403E02E4DDB
:100B40002C5DA406F8D55C7C2B4D2D5DED0700D403
:100B500048E75D7B202D3CD10C3C5C741EE73C2CAF
:100B6000F1D15A7D7F2A00D118E7234CA25C92066E
:100B700000D513E73F22C6E72A2C16D1DA7C1C7D6C
:100B8000C1237D259B00C3188D4209DA2B258B00DC
:100B9000C318FF335D740025DA749D741C75FDE67F
:100BA0001E68013D5E60043BEEE72C2C11D1DA7C1F
:100BB0001C7DC1237D259B00C3188D4204DA8B0068
:100BC000C318FF332D25E5E71E68013D5E60043B39
:100BD000F3E7452C00D170E7392C00D0DEE66CE756
:100BE000527D7F2A00D1D9E6A25C7F2A00D8D5E6C3
:100BF0001E2288E7F7BDC0468F0F0300E00F0300F9
:100C0000F0B50022060085B0130044339B009B5DC5
:100C10007F2B31D05B4CE35CDB072AD51300511EE0
:100C2000C9B244318900584F7118013BDBB2002B27
:100C300023D008787F2803D0385C04397F28F4D982
:100C400099007118FF31487C7F280ED02027255C41
:100C50003D4204D04C4D285C0425284205D0887CB8
:100C60004508AC460130604488740133DBB29342DE
:100C7000E6D10132D2B2C7E70023022712E06B07A8
:100C800008D4EB070DD56246FF32937CD9085B1A76
:100C9000937406E0039B039A9B7B99080133CB185E
:100CA0009373029B9A00B2181100FF3194464A7C5C
:100CB0007F2A64D034485D1C845CEDB2029565B235
:100CC000002D21DA029A9200B218FF320392527C70
:100CD0000192855C019C2A0041257F2C00D01500E3
:100CE00040242242CBD1019C123C012CD9D8402275
:100CF0000233DBB244339B009B5DC35C1342D0D014
:100D00008B7C013B8B74CCE71E4DAA5C08252A42E4
:100D10000ED0029B9B00F318FF335A7C7F2AC0D071
:100D2000825C3A42BDD006229A7405229A73B8E7D3
:100D30003C421AD00133DBB21A0044329200925D79
:100D4000002AF7D07F2AACD00F498A5C3A42A8D05B
:100D50009B00F318FF339A7C520801329A74624662
:100D6000FF32937C5B08013392E710231A4298D03C
:100D70004B7BC35C3B4294D08B7C023BC2E705B00B
:100D8000F0BDC046E00F03008F0F030070B50400F4
:100D9000FFF7E0FB2000FFF783FC23000022FC3379
:100DA000DA601A61904226D02500224E1135336850
:100DB000FF35934203D029001F4802F057FD200061
:100DC000FFF7E2FD2000FFF74BFC2000FFF712FDCC
:100DD0002000FFF715FF2000FFF724FDC4222B00A1
:100DE0009200A1181A78502A06D97F2A07D000202D
:100DF000124B134A1A6070BD04338B42F2D1336830
:100E0000002B02D00F4820F017F82000FFF7CCFB92
:100E10003368002B03D029000B4802F027FD200087
:100E200020F066FD054B0949186828F046FE43424C
:100E30005841E0E760010020370F03000400002064
:100E4000460F03006C0F03007C0F0300FD0E030030
:100E500010B5040020F0DEFE27F05EF801280BD06C
:100E60000649200020F0F1FE200020F0D3FE27F0FC
:100E700053F8022800D0002010BDC046B511030071
:100E8000F0B59DB000AF0C68032835D9CB68FB6086
:100E9000042835D00D6900206D102BD41C232000B0
:100EA000F9180DF0DBFE7861002D5AD0954C96496B
:100EB000606807F077FA0600606800229349043002
:100EC00011F0D6F91823FA18D118040030000DF0EB
:100ED000C5FE3B6B013D0100C318002C05D19942B2
:100EE00003D2013B1A782E2AF9D1013D0ED2994244
:100EF0000FD1874809F080FC864B0025FB60CDE7C9
:100F00000025CBE7013B1A782E2AEED09942F9D37F
:100F1000EBE7FE695C1A2500002E01D0751C2D1927
:100F20002B006A460E33DB08DB00D31A9D462200F5
:100F300018003B6128F05BFD002E08D02E233A6993
:100F4000601C135510187969320028F050FD2900F3
:100F5000386903F073F906243B69C0000443FD615E
:100F60007B6120000DF044FA06F09AFF061E15D0B2
:100F70002E21786928F093FD00280BD0654BFA6884
:100F80009A4207D17B69C11A180003F057F906F09D
:100F900087FF06003000BD461DB0F0BD18231800C5
:100FA0000125FA18D2183818103B4021C01820F03B
:100FB000FCFDBE603E61FB69AB4205D2554BFA6851
:100FC0009A42E7D0BE68E5E7AB4204D07B695B5D3F
:100FD0002E2B00D094E02900786903F02FF97B6A6A
:100FE0003860002B17D12A00082479691833F818C3
:100FF000001920F0A5FD1823FB181819FFF728FF8A
:1010000078607B68002B14D13A684349434803F069
:10101000C7FB06F097FF18230824FA182F21101990
:1010200000F0AEFB3B693969EA1A7B69591818234D
:10103000DDE7386806F034FF041E4BD1386806F04F
:10104000FDFEFB690400AB4213D1354BFA689A42AE
:101050000FD17B68012B0FD0324A2B49406823F017
:1010600061FD18220823BA18D118200020F06CFC6A
:1010700030E07B68012BF4D10022796AB86A0DF068
:1010800095F9F4210200FF31200008F061FF7B6A2E
:1010900018227B600823B818C0182F2100F070FBBD
:1010A00018220823B818C0181F4920F0CEFD1822B6
:1010B0000823BA18D01820F0ADFD26F02DFF022825
:1010C00006D118220823BA18D118200020F03CFCC1
:1010D0007B687B62BB68002B0CD07A693B699446C5
:1010E000E91A6344180003F0A9F822000100B86867
:1010F00008F02EFF002E00D126006B1C3B61BC6067
:10110000013558E7782E0020860F00009E0F000062
:1011100079110300809C02009811030020C2020094
:1011200058CA0200760F0000AD1103000023F0B58D
:101130002F4E93B0050006A81400336001910127DB
:1011400006F0DAFE2740031E35D1E2062DD56A6887
:10115000A968112022F02DFE05002E682900012526
:10116000019A03A800F0DEFFA3082B400022310003
:1011700003A810F025F90400032003F029FA200049
:1011800023F0DBFD0120404203F022FA2C0006F0A0
:10119000D1FE002F24D02900164813F0FDFD3C009D
:1011A0000121144813F0F8FD1AE0A306D5D5280054
:1011B00022F024FDD0E70120404203F009FA002F7D
:1011C00003D001210B4813F0E7FD079804F09CF9C8
:1011D000094910F0CFFF041E05D03468002FDFD17D
:1011E000200013B0F0BD0799044804F0C9F9F5E7F1
:1011F00040010020B911030068C50200BCDC0200F8
:1012000010B586B0202102A8802420F0B5FC64002F
:101210001E4826F0E5FD00231D48039326F0E0FD5F
:1012200013F0A2FD0128F3D002280BD1194826F0B3
:10123000D7FD02A820F0C2FC01220020164B1A7034
:1012400006B010BD032802D100230393E8E7042869
:1012500004D0C1B202A820F0EFFCE1E70F4826F06D
:10126000BFFD039B0193002B08D10A4826F0B8FD6F
:1012700002A820F0A3FC80204000E1E71122012118
:1012800002A8FFF753FF2042C5D0D9E7731203002D
:101290002196030068160300D8000020FD0E03000D
:1012A00030B587B0202102A8802520F065FC6D00B4
:1012B000374826F095FD374826F092FD0024364940
:1012C00002A8039420F029FD01280AD1334826F012
:1012D00087FD02A820F072FC2000314B1C7007B083
:1012E00030BD022803D12D4826F07AFDE0E703281F
:1012F00001D12A48E0E7042808D1284826F070FDEB
:1013000002A820F05BFC80204000E8E7052827D1F8
:10131000244826F065FD039413F026FD6B46C1B208
:10132000DC1D21700329E4D004290AD11B4826F0D2
:1013300057FD0121162202A8FFF7F8FE2842BDD072
:10134000CDE702A820F078FC23780D2B03D11648B6
:1013500026F046FDE0E70121200013F01DFDDBE74C
:10136000039B002BAAD002A820F054FCFEF710FF2C
:1013700000280BD00A2102A820F05EFC0B4902A82D
:1013800020F0CBFC0328B4D00428ECD10021D1E715
:10139000BB1103000C120300321203006816030095
:1013A000D800002037120300671203006E120300FA
:1013B000F0B505008BB008680C000DF039FC049006
:1013C00004A820F0DEFA00260127049B0390069370
:1013D000069B197800291AD1300002F089FD0122FC
:1013E000070007A9606804F031FB079B089A059382
:1013F0009B180193022D1FD9A06804F06DF90028F5
:1014000017DA089BC01814D5284809F0F5F9080028
:1014100001F092FB002806D006A820F0C4FA069B33
:101420001B78732B00D13800069B361801330693C6
:10143000CEE7059B181805900025B54202D3380069
:101440000BB0F0BD049B0124187801F075FB002857
:1014500003D004A820F0A7FA04000598019A031904
:101460009A42D1D3049B1B78732B10D02D19AB005B
:101470000293049B013C14D3197805AA039802F047
:10148000DDF8029AA300D31AFB185860F1E7210097
:101490000CF0A4FF059B1C19AB1C9B0005940135A7
:1014A000D851049B01330493C7E7C0468E12030052
:1014B000F0B589B0039101921E000DF0B9FB0490C4
:1014C00004A820F05EFA00250290B54201D309B0CD
:1014D000F0BD049B18780028F9D001F02DFB012401
:1014E000002803D004A820F05EFA0400039B019AB0
:1014F0001B199A4202D21B4809F07EF9049B1B7803
:10150000732B10D02D190E9BAF00DF19049B002CFC
:1015100024D0A20052421978BA5803AB029802F0C4
:10152000EDF8013CF2E70E9B6F1CAD00E85801227C
:1015300005A904F08BFA069DA54200D925002A00D2
:101540000599039828F053FA039B621B58193D0034
:10155000002128F068FA039B1C190394049B0133B3
:101560000493B2E78E120300F0B50E0089B0039029
:1015700001CE0F0020F02DFA4410210004A820F025
:101580000CFB069D22000021280028F04CFA039B4A
:101590000096013B2A1929003868FFF789FF04A942
:1015A00002480CF0CDFE09B0F0BDC04660DE02007E
:1015B00030B50C0089B005000222606805A904F06E
:1015C00045FAA06804F088F8002806DA069B039321
:1015D000C01802D5084809F00FF90599069AEB1EC4
:1015E0008A18091820000C3000902068FFF760FF6F
:1015F000024809B030BDC0468E120300809C020034
:10160000F0B50D00002785B0110003901E002800E2
:10161000104B0222009701F0B3FCAB1C9B0018009A
:10162000029323F06EFE0400039B013D03604560BE
:101630003368029D8360083D0437BD4202D120001B
:1016400005B0F0BD0021F05908F0A6FCE319986040
:10165000F2E7C046FFFF0000A3230021024A5B001F
:101660000248D1527047C046782E0020809C02006C
:10167000A3230121024A5B000248D1527047C046B1
:10168000782E0020809C0200A323044A5B00D35ADA
:101690000348002B00D103487047C046782E002035
:1016A00060CA020058CA020010B501F055FC01489A
:1016B00010BDC046809C020010B50C4C002808D11B
:1016C000FC34236D18005A1C02D0180123F033FC9F
:1016D00010BD086804F000F8FC34031E044803DA67
:1016E00001235B422365F3E71B09FBE7782E00200B
:1016F000809C020070B504000D00104923F03AFEF2
:1017000069680122200003F017FF0D4E2000310010
:1017100023F030FEA9680122200003F00DFF310004
:10172000200023F027FEE9680122200003F004FFD7
:101730000449200023F01EFE70BDC0469F12030026
:10174000A6120300F260030070B5060010200D0021
:10175000140023F0D6FD034B466085600360C4602F
:1017600070BDC046409E020070B50500140020F018
:1017700003FA024B2560636070BDC046411B020046
:1017800010B50C007F2906D8012120F035FA002879
:1017900000D0047010BD224B994210D8022120F0D5
:1017A0002BFA0028F6D04023A2095B4213430370B2
:1017B0003F232340802464421C434470EAE7194BD2
:1017C000994214D8032120F017FA0028E2D02023F0
:1017D000220B5B4213433F2180220370A309524234
:1017E0000B400C401343224343708270D2E7042124
:1017F00020F002FA0028CDD01023A20C5B42134344
:101800003F2103708023220B5B420A401A4342703F
:10181000A2090A400C401A431C438270C470B9E705
:10182000FF070000FFFF000007B5034B009068466C
:1018300001930CF03FF907BD411B020010B503F006
:10184000AFFF044919F0C0FA18F072FE26F0D5FA7D
:10185000014810BD00007A44809C020010B503F0DE
:101860003BFF002801DD26F0C8FA014810BDC04644
:10187000809C020010B50400080003F02DFF6410E6
:101880002018034C400020400124204310BDC046D6
:10189000FEFFFF7F10B503F01FFF002801DD26F0DB
:1018A000A8FA014810BDC046809C020010B526F081
:1018B000BCFA034B400018400123184310BDC0463A
:1018C000FEFFFF7F10B526F0ACFA034B4000184036
:1018D0000123184310BDC046FEFFFF7FF8B5214E1F
:1018E0003568696801292DD9AA684B1ED05C0A2881
:1018F00028D1002B01DC1C0009E0581E145C0A2CC6
:10190000F9D00300F5E7105D202802D10134A1428F
:10191000F9D8002B0BDD601C814208D1581E00282D
:1019200005D00138175C0A2F0CD0202FF7D05218A1
:10193000023AE31A14789B083A3C624254411C195B
:10194000002C00D1F8BD084F04223900280020F0F7
:10195000F7F80421380013F01FFA3369013C04330F
:101960003361EDE744010020A399030010B5202264
:101970000021024828F057F810BDC046D82E00209C
:10198000084B10B54268186000209860187501383F
:10199000D86008005A601A61996126F021FAFFF7B1
:1019A0009DFF10BD44010020F8B503780400002B12
:1019B0001ED0104D286E002804D0210028F07DF89C
:1019C000002815D0200028F082F8471C380023F0AA
:1019D000A5FC061E0CD03A00210028F008F82A00C9
:1019E000054B5C321968043B99609342FAD12E662C
:1019F000F8BDC046782E0020F02E0020F0B5B84C7F
:101A000002002068A568436885B00193002D00D0CE
:101A1000FDE0531E042B11D8636801998B4200D15D
:101A200095E0012A00D12AE1022A07D123696268E0
:101A3000934200D94FE10122524288E0032A00D1AB
:101A400085E0042A00D12FE1052A00D107E1062A0A
:101A50000ED12369019A9342AD416D42002DEADD1A
:101A60002368290098682369C01813F095F91FE0CE
:101A70000B2A21D1019B2269991A20F021F92368B0
:101A8000019A5B68934204D213002269981A13F0FA
:101A9000B9F92268236951689068C91AC01813F00F
:101AA0007BF9236858682369C01A401B13F098F922
:101AB00023695D192561BEE70E2A13D1E368002B67
:101AC000B9DB013BE3606268019B991A20F0F8F8EA
:101AD000E368002B18DB1633824A9B00D318996801
:101AE00020680FE0102A16D1E368062BA3DC5D1CEA
:101AF0007C4A17339B00D318996800299BD06368F0
:101B0000E560436020F0A1F863682269D61A226874
:101B10005568ED1A0AE0152A0CD1236962686168DC
:101B20009A1A20F0D5F8236962689E1A0127002EC0
:101B30002FDCA4E70D2A0DD16B4826F051F920685F
:101B400020F068F86368C018FFF72EFF002210002D
:101B500005B0F0BD01231B2A62D0082A01D07F2ADC
:101B600020D121696268914200D864E70023866829
:101B7000B618F75C202F13D101339F18B942F8D85B
:101B80000426032B00DC033E891B320020F0A0F862
:101B90000127300013F024F923699E1B266178E0A9
:101BA0000126F1E7092A28D1636822698068D11AE1
:101BB000C0184E4A03ABFEF7A1FB061E00D13AE760
:101BC0000027431C0BD1A06926F00AF9636822693B
:101BD000D11A22689068C01813F0DEF84FE7236925
:101BE0002068F918039B01375A1C03921A7820F0D9
:101BF00055F8BE42F3D1350041E71300203B5E2B80
:101C000000D918E7216920F052F8012537E7012DA6
:101C100008D104234F2A03D002235B2A00D00023DB
:101C2000A36008E7022D20D11300303B092B03D815
:101C300003232275A360FEE60023A360412A00D19E
:101C400052E7422A00D139E7432A00D101E7442A6A
:101C500000D1EBE6482A12D0462A00D0EBE6002756
:101C6000019B22693E009D1A0EE00021032D29D11F
:101C70007E2A24D1237D312B01D0372B0DD1002595
:101C80002F00236962689E1A0023A3609E4200DD34
:101C90007FE7002F00D1E1E6F1E61A00FB25343A98
:101CA0002A42DCD0332B0AD12169019B994206D20A
:101CB000012220F00DF8002501272E00E4E7002581
:101CC0002F00FAE7042D04D1462AC8D0482AD6D0DE
:101CD000A5E7A160AFE6002501262F0059E7C04621
:101CE00044010020782E002068160300BCDC0200AE
:101CF000F0B58BB00600080011001A0010AB1F7879
:101D0000314B05AD01950093052301F069F9912050
:101D1000000123F0F6FA2D4B04A91860059B4760DB
:101D200043706B682A4F0370AB6804008370EB68E4
:101D3000C3702B7C30003B600CF090FF0025254BDE
:101D400003900C201D6023F0DCFA234B0600036097
:101D500012F07AFEB06012F077FE204B204A186035
:101D6000204B11001D70204B70601D701F4B300008
:101D70001D602B0012F03CFD2000049A03991FF017
:101D8000B3FD2000FFF702F80400A84207D112F0CB
:101D900035FC0E4B1C60164B186808F02DFD012217
:101DA000144B1A7012F04AFE0028FBD1124B9433E8
:101DB00018603B68002B04D00C4B104819681EF0CB
:101DC000C1FF07480BB0F0BD489F02000C2F002058
:101DD0006001002068010020949F0200640100203F
:101DE000809C0200C82D0020C62D00206C01002020
:101DF00004000020C72D0020782E0020A912030027
:101E000000220D4910B50B78DBB2934210D10B4A7A
:101E10001478002C02D001240C701370084B1B782E
:101E2000002B07D0074A136820331360064B1A684B
:101E3000100010BD8268FBE7C62D0020C72D0020D2
:101E4000C82D0020680100206401002073B501A99D
:101E50000CF004FF019B06001748502B17D8802078
:101E6000400023F04EFA154C05002300943318600F
:101E70000023019A9A420CD15B232800AB5409F04D
:101E8000B3F82B00002808D1943420600C4808F0E7
:101E9000B3FCF15CE9540133ECE75A1B0133591EE2
:101EA00009789B29F9D12900064823F0C1FB0023BA
:101EB0009434236076BDC046B8120300782E00200B
:101EC000C612030068DB0200D2235B005843134AAA
:101ED000F0B51368000C834206D9114C2368013316
:101EE00023601368203B13601F23050001270D4E5C
:101EF0009D431468A5420BD803401A1D202A00D91F
:101F00002022094C2468934204D3084B1860F0BD8A
:101F10003770EEE7E51829710133F4E76801002016
:101F20006C010020C82D00206401002070010020F9
:101F3000002313B5044A046A09050093890C8A58E2
:101F4000A16B1FF0A5FF13BDE09F0200F0B587B0A5
:101F500000931B7804000F0002922A2B05D182689F
:101F6000525C002A01D0A62A14D11A00213A022A72
:101F70002DD8A568E8190378032B5CD104A96668FD
:101F800020F050F8AB19984206D167600499200000
:101F90001FF0ACFF07B0F0BD0378032B4BD105A9B0
:101FA00020F040F8009B1B78212B04D1049B059A5C
:101FB00013430493E6E7222B03D1049B059A534075
:101FC000F7E7232BDED1059B049A1340F1E71A00B3
:101FD000243A022A00D986E0A368D819019303782D
:101FE000032B28D1636804A9039320F01BF8060093
:101FF000019B039A9B189E42C7D0B378B01C75789A
:10200000032B18D105A920F00DF80600372D35D186
:10201000059A1F2A0FDC4249049B114199420ADBB1
:10202000C021090611418B4205DB93400493049AB9
:1020300053005340DCD500226368029DDB1B0193F3
:10204000561CED0969D1019B0135DB09FCD1023237
:102050005219390020001FF004FE0400009B029A70
:102060001B7831001A33037001301FF093FE701C8F
:102070002018019A29001FF08DFE8BE7392D08D119
:10208000059B1F2B01DD1F230593049B059A13411C
:10209000CCE72F2D03D1049B059A9B18C6E7302D62
:1020A00003D1049B059A9B1AC0E7312D09D10599EC
:1020B000049806F0A3FD0028BDD1059B049A534364
:1020C000B4E7332DB7D00599352D06D10029B2D00C
:1020D000049822F064FD0490A9E70029ABD004988D
:1020E00022F06DFDF7E7272BA5D1A368D8198378D7
:1020F000032BA0D1457802301FF0A3FF2F2D01D173
:10210000049042E7302D06D14042430004905840ED
:1021100000D43AE78FE7C043F2E7320090E7C046C9
:10212000FFFFFF3FF0B597B00890C0200025602367
:102130000AAC80000F00160025706360A56023F0D4
:10214000EDF82561E0606561A561E5612762E56202
:10215000A84218D1C449C54820F00CFD0023060050
:1021600013930D9823F0FCF8002E00D1E1E1002339
:10217000BA6B3968300002F07FFB380021F026FE90
:10218000300005F0DFFE3822002E03D00232022E8E
:1021900000D02A000026B64900969200525820002E
:1021A000B96B33001FF074FE102023F0AAF8102141
:1021B00004001FF0E1FC0AADAB682A78002B00D1C7
:1021C00094E1002AC6D1EA68013BAB60DB00D3187A
:1021D000DA78A7499200525802921A689D88120232
:1021E000120A0592029ADB88527806920F2206990B
:1021F0000A400492002D2DD030220393069B1340F9
:10220000102B29D0202B65D0002E00D047E10123D0
:10221000069A1A400992099A02992A405300CB184B
:1022200080215B88490107931B0B1B038B4200D065
:102230004DE13B00079940331B780905090D8B429E
:1022400000D02BE1002A00D123E1380004F0D0F8BF
:102250000135E0E76368CFE7002D01D0002E35D0CF
:102260008022390052014031049BAB4201D8012643
:10227000A1E7029B6E009B195B88180B000390423C
:1022800013D108781B051B0D984221D121000AA803
:102290001FF03BFE002819D13B0040331B78052B73
:1022A00000D03AE17349744856E7049A6B1C934294
:1022B00006D2039A059900920AA8029A1FF0E8FD37
:1022C000029B9E1971880AA8FFF732FE002672E76A
:1022D0000135C9E7002E0BD0029A6B009B5A1B0BED
:1022E000032B47D1012120001FF086FC002303703F
:1022F000049BAB4242D880200026029B049A023302
:102300005100C9184001994271D1A368039A9818E5
:1023100000230493A2686368D318984272D3029B87
:102320001B78052B01D00C2B00D10126029B59787C
:1023300040230B405842434149B25B421E400029B2
:1023400000DA01260025039B0695D0180795049B0B
:102350009D425ED1002E02D1079B012B69D00699C8
:1023600020001FF0ADFC029B059A03992000FFF7A7
:10237000EDFDABE7012D00D879E78DE78021029BC9
:102380006E009E19738849011A0B12038A4225D1E7
:102390003A0040321278DBB29A421BD1072A07D1A9
:1023A000B96CF86C01F04AFF010020001FF066FDD7
:1023B000002D0AD1029B5B787F2B06D90E9B200053
:1023C000591C06930E911FF091FD380004F010F88F
:1023D00001358DE7002D00D149E75DE7039A6B1CBD
:1023E00000920599029A0AA81FF052FD6AE71A881E
:1023F000150B2D03854203D1D2B2062A00D901263E
:10240000023380E7049B0121013304931FF0E5FCB4
:1024100080E7069A037801320692002B04D0079BCE
:10242000013307930023069301211FF0D6FC0135E9
:102430008DE7A268039B944663441D00049B9E4263
:1024400000D143E72B78002B07D1A3680122E91ABA
:1024500020001FF03DFC0136F0E7280001211FF0AD
:10246000BCFC0500F7E7C046DC12030088C302008D
:10247000E09F0200041303005CC20200012D00D1A2
:10248000F5E601232A001A402ED0049A032A0DD023
:1024900002E721000AA81FF038FDD9E60135049BA8
:1024A000022BEBD10023012D00D1E0E6069A691E34
:1024B000D20705D5029A9288120B012A00D1690829
:1024C000012900D04FE7002B00D1FFE64BE7039A2C
:1024D000059900920AA86B1C029A1FF0D9FC079973
:1024E0000AA8FFF725FD66E61300DFE7002A00D003
:1024F00030E63B0040331E78002E00D0CCE6636807
:10250000002B00D1C8E62B692000591C1FF0EEFCFF
:10251000A3686B62EB69AB6223E6022B01D10A4927
:10252000C1E60A3B09480A49012B00D814E60949CB
:1025300012E6380021F04AFC089A13AB13CB13C201
:10254000089817B0F0BDC046161303002CC5020052
:102550004A13030071130300002803D0012807D099
:10256000002004E08B680448002B00D1034870472A
:102570008B685B001843FAE760CA020058CA020081
:10258000044B88600B60044B08004B600023CB6059
:102590007047C046D0CB02004D2102000023816865
:1025A000F0B5CA0F094C521852100E199A4201DCAC
:1025B0000748F0BDC568F11A9C0089002C196D58B8
:1025C00027682560C46801336750EFE7FFFFFF3FCE
:1025D000809C020070B583680D00416804008B4246
:1025E00012D3C900C06822F0AAFE63680A495A00E3
:1025F000A3686260D21A013352189B00E060920017
:10260000C018002127F00FFAA368E268591C9B004C
:10261000A16002489D5070BDFFFFFF3F809C0200FB
:10262000F8B5070016004C10836812D5E41810D5D1
:1026300000240D4D38002900FFF7CCFFBB68591E60
:102640009B00FA68181F8C4207DBA4002800A650E4
:10265000F8BD9C42EDD91C00EBE7D318083B1B6882
:10266000013913500300ECE7809C020070B500258F
:10267000040085601021C06822F061FE0423290057
:10268000E0606360102227F0CEF9014870BDC046BB
:10269000809C020030B50C0085B0104B02AD0431B7
:1026A000009301380223019500F09AFC23680C4C3A
:1026B000996801290FD9D8680A4B029AC91889006C
:1026C0004118A24200D100222D79074B002D00D1E4
:1026D000064B1FF049FD200005B030BD8CA2020062
:1026E000809C0200FFFFFF3F58CA020060CA020040
:1026F00070B50C680B00A1680200002903D11949CC
:10270000194822F065FB2068012A27D05A68002367
:1027100003F0BAF8E168A26886008B19013A1D68D7
:102720000436A260121A92008919180027F068F97D
:102730000021A368E0689A001150616804290BD950
:102740005B00994208D949088900E06822F0F7FD4A
:102750006368E0605B086360280070BD012252423C
:10276000D5E7C0468913030098C2020007B5009060
:102770000191022069461FF05FFD69460190022029
:10278000FFF7B6FF00480EBD809C020070B50E003A
:102790000D490500002422F0EDFDB368A34204D8E2
:1027A00028000A4922F0E6FD70BD002C03D008493C
:1027B000280022F0DFFDF168A3000122595828000B
:1027C00002F0BAFE0134E8E792740300BC6403002F
:1027D000A612030070B5032604000D000E4029D197
:1027E000174B0A689A4225D183688A68991843680A
:1027F000994210D904318900C06822F0A0FDAA686E
:10280000A368E0609B181A1D9B006260C01810222C
:10281000310027F008F9A368E9689800E368181800
:10282000AB689A0027F0E3F8AB68A268D318A360FE
:10283000044870BD290020001FF007FDF8E7C046DE
:1028400068A30200809C02000B4B70B5050003607A
:102850000C000800042900D204206860AC608000ED
:1028600022F04FFD6A68E860121BA4009200001974
:10287000002127F0D8F870BD68A302007FB50D00D5
:10288000160012283ED005D8052819D007283FD0B9
:10289000002434E00300193B042BF9D893070DD131
:1028A000284B12689A4209D1B36800938A68F3688A
:1028B000C96801F00DFE244C002820D1234C1EE0F5
:1028C000032300241340A34219D11C001D4A33687E
:1028D000934214D18B68B26898181FF0CFFC0400A3
:1028E000AB68E9689A00C06827F081F8A868E368D7
:1028F00080001818B368F1689A0027F078F8200073
:1029000004B070BD11002800FFF764FF2C00F6E74B
:1029100003A9100002F01EFF0024A042EFD0039B89
:10292000A34200DA0394AB68039858431FF0A6FC57
:10293000C36804000093AA68039B0421E86820F0A0
:1029400056F8DCE768A3020060CA020058CA020019
:10295000F0B5032704008BB00E0010000F40002AD2
:1029600033D1002F2AD1654B0A689A4226D104AA96
:10297000A06801F031FD002802D1614808F02EF96D
:102980000599049BA268E0685D1A521A9B008900B1
:1029900041189200C01827F033F8A368AA00E8187D
:1029A000E368800018185242390027F03CF8A36809
:1029B0005D19A560534D28000BB0F0BD07A902209A
:1029C00007940896FFF794FEF4E7042A2CD1A06838
:1029D000002F1FD1494B0A689A421BD107AA01F068
:1029E000FBFC002806D107AAE168A06820F012F8D5
:1029F0000500E0E7079B0898C01A1FF03FFC8368BA
:102A0000E1689A00079B05009B00C918C06826F082
:102A1000EEFFD0E7002301003200206802F034FF0F
:102A2000E3688000C558C6E7364D002F60D1334BB0
:102A30000A689A425CD103AA02A902F0EFFE07AA33
:102A40003100A06801F0C8FC002896D0079B029ACC
:102A500008999E180191761AE068002E27DDA36878
:102A6000F1186368994206D9890022F068FCA368CE
:102A7000E0609B196360029A079BA1689B18F21A99
:102A800052180899E0689B00890041189200C0180C
:102A900026F0B6FF029B03999A00079B9800E36813
:102AA000181826F0ADFFA3689E19A66083E79B0067
:102AB0000399C018920026F09AFF0899A268E3686B
:102AC000521A8900019359180798029B9200C01866
:102AD000019B8000181826F093FFA368B200F0183D
:102AE000E368800052421818390026F09CFFDAE7AC
:102AF0000200310020001FF002FC5CE7409E020053
:102B0000BA110300809C020000237F2803D8034BE6
:102B10001B5C9B07DB0F18007047C0469D1303002A
:102B200000237F2803D8034B1B5C1B07DB0F180017
:102B30007047C0469D13030000237F2803D8034B32
:102B40001B5C5B07DB0F18007047C0469D1303003A
:102B500000237F2803D8034B1B5C5B06DB0F1800A8
:102B60007047C0469D13030000227F2808D8054BFC
:102B70000132195C0C23194202D15F3842424241B2
:102B8000100070479D13030000237F2803D8034BD8
:102B90001B5CDB06DB0F18007047C0469D1303006B
:102BA00000237F2803D8034B1B5C9B06DB0F180018
:102BB0007047C0469D13030010B5040008001FF0C5
:102BC00020FC0300002C03D0012C06D0002003E0E1
:102BD0000348002B00DC034810BD40002043FBE706
:102BE00060CA020058CA020043684B6083688B6069
:102BF000C3680800CB60014B0B607047E0A3020084
:102C000030B5040087B00D000020042A25D1200033
:102C10001FF0F7FBAB0722D1184B2A689A421ED14E
:102C200003AA290001F0D8FB102022F06AFB144B04
:102C3000E2680360039B616853435B184360049B35
:102C40006168019353435B18059983604A43C260EE
:102C5000002902DAE2689B1A836007B030BD0023C6
:102C600001002A00206802F00FFEE3685843636801
:102C7000C018012340001843EFE7C046409E020001
:102C8000A4A30200F0B50E00002785B01100039048
:102C90001D00012203233000009700F071F910207D
:102CA00022F02FFB039B0400036001234760C360F5
:102CB00028689E4205D102F00FFDA060200005B0FB
:102CC000F0BD02F009FD6060686802F005FDA060DB
:102CD000032EF3D1A86802F0FFFCE0600028EDD1DC
:102CE000014807F089FDC0461D14030070B50D00B2
:102CF0004A688B680849040022F0FDFBEA68012A53
:102D000004D10649200022F035FB70BD04492000A3
:102D100022F0F1FBF9E7C04627140300F26003003C
:102D200034140300136810B51400002B05D1A42936
:102D300004D1406822F0FFF8206010BDB9235B0089
:102D4000994201D18068F5E7024B9942F5D1C068FC
:102D5000F0E7C046BF020000F0B5060087B000AF44
:102D60007B60F960BA6002F08DFBB06823F0EEFD85
:102D70003861B06823F0F0FD23F0E8FD03235843E9
:102D80003B69C01883001D007B6114352C2B2CD8A7
:102D90006B460E35ED08ED005B1B9D4600236C462F
:102DA0007B61002326606360BA687B68F968200055
:102DB0000EF09EFC154D00216B68200023617368A6
:102DC0006B6008F013FC2369061E6B6013D1A368C7
:102DD0001D687B69002B04D0200022F0C1FA002E70
:102DE00011D12800BD4607B0F0BD280022F096FAA8
:102DF000041ED6D1CCE73B6903339B00E3185D6822
:102E00007B69002BE8D1280005F09CF8782E002083
:102E10000122030030B5134085B004004510002B9B
:102E200014D125491D00884210D0244988420DD074
:102E3000234B1500984209D00323034009D1214AAE
:102E40000168914205D122F0B3F80500280005B0D1
:102E500030BD1D4A25002240062A05D0002B08D18E
:102E60001A4B22689A4204D101A920000BF0F6FE09
:102E7000EBE7200002F048FB154B984207D1FF23F7
:102E8000DB05E0180323984318F0AAFADDE7114B9D
:102E9000984202D0104B984206D101AA6946200000
:102EA00002F0BCFC019DD1E7022201A9200020F024
:102EB000BBFD0028CAD0F5E7809C020058CA02007A
:102EC00060CA0200BCB10200070080FF68DB02009C
:102ED0000CCC02003CB2020068A30200F7B5060069
:102EE0000F0000920193041E00D044683800431E76
:102EF000984120180430800022F003FA0C4B0500A2
:102F000003600C4B5B684360009B8360019BC36064
:102F1000002E05D03100A2000831103026F067FDE8
:102F2000002F02D00434A40067512800FEBDC04623
:102F300058A40200782E002070B5060010200D0065
:102F4000140022F0DEF9034B466085600360C46024
:102F500070BDC0461CA4020000B58BB009F01EFF76
:102F600068461FF01DFB054BD968091A890809F04E
:102F7000D1FE09F02BFF0BB000BDC046782E00201B
:102F800010B51C0002AB1B78002904D0002B02D125
:102F90000E4807F0F5FDA24207D1824214D003008B
:102FA0000B490C4801F0FCFB06E0824206D9121ADC
:102FB0000949084801F0F4FB04F0C4FF844203D23D
:102FC000030022000549ECE710BDC0463A14030097
:102FD00063140300A4C502009C140300CE14030074
:102FE000F0B50024170087B00C9D03900491059361
:102FF00002940194059B9C4206D1019B039A934243
:1030000040D2254807F0BCFD039B9C4213D26B883D
:103010009B05F6D4019B049A01330193A300D05879
:10302000FF226B88A6001340012B24D102F092FCF2
:103030000D9B985517E0062329880022C9001943E3
:1030400038000FF015F9002810D16B88DB0506D584
:103050002A881249124801F0A3FB04F073FF0D9A6D
:103060006968A300D15001340835C3E7029B40686A
:1030700001330293D4E7022B01D102F02DFB0D9B0B
:103080009851F0E73B68029ADB08934201D9054862
:10309000B8E707B0F0BDC04614150300FD140300E7
:1030A000A4C502003515030010B502F079FB0549EF
:1030B00017F08AFE0323020002209A43024B1043BA
:1030C000C01810BDE02E65420000808010B502F0EF
:1030D00067FB054917F078FE0323020002209A439C
:1030E000024B1043C01810BD35FA8E3C00008080A2
:1030F00010B502F055FB011C18F05CF9024B0028DA
:1031000000D1024B180010BD60CA020058CA02006C
:1031100010B502F045FB440064080849201C18F073
:1031200049F9002805D10549201C17F0CDF90028E0
:1031300001D0034810BD0348FCE7C046FFFF7F7F76
:1031400058CA020060CA020010B502F029FB034B06
:10315000034002201843024BC01810BDFCFFFF7F44
:103160000000808010B502F01BFB44006408084991
:10317000201C18F01FF9002807D10549201C17F062
:1031800099F9002801D1034810BD0348FCE7C04667
:10319000FFFF7F7F60CA020058CA02001FB50023EC
:1031A000019302F0FDFA01A91AF04CFA0322030080
:1031B00002209343064903435B180293019B934308
:1031C00003435B1802A9039300F092FE05B000BD13
:1031D0000000808070B50D0002F0E2FA041C2800A7
:1031E00002F0DEFA18F0FCF80100201C1AF006FAD2
:1031F0000323020002209A43014B1043C01870BD04
:10320000000080801FB50023019302F0C9FA01A9D4
:103210001AF0CAF9032302249843074B2043C0182D
:103220000290019821F087FE02A90390200000F08F
:103230005FFE04B010BDC0460000808070B50D0078
:1032400002F0AEFA041C280002F0AAFA011C201CAD
:103250001AF0C2FC0323020002209A43014B1043E0
:10326000C01870BD0000808070B50D0002F098FAA3
:10327000041C280002F094FAC00FC3076000400845
:103280001843032302249843014B2043C01870BD08
:103290000000808070B50D0002F082FA041C280046
:1032A00002F07EFA011C201C1AF01EFC032302000F
:1032B00002209A43014B1043C01870BD000080806B
:1032C00010B502F06DFA19F085FF03230200022009
:1032D0009A43024B1043C01810BDC04600008080C6
:1032E00010B502F05DFA1AF0ADFB032302000220D4
:1032F0009A43024B1043C01810BDC04600008080A6
:1033000010B502F04DFA1AF04BFB03230200022025
:103310009A43024B1043C01810BDC0460000808085
:1033200010B502F03DFA1AF0A1FA032302000220C0
:103330009A43024B1043C01810BDC0460000808065
:1033400010B502F02DFA1AF053FA032302000220FE
:103350009A43024B1043C01810BDC0460000808045
:1033600010B502F01DFA1AF093F8032302000220B0
:103370009A43024B1043C01810BDC0460000808025
:1033800010B502F00DFA1AF0B3FB0323020002207D
:103390009A43024B1043C01810BDC0460000808005
:1033A00070B50D0002F0FCF9041C280002F0F8F9D9
:1033B000011C201C1AF0F4FC0323020002209A4393
:1033C000014B1043C01870BD0000808010B502F0A2
:1033D000E7F90021041C17F063F8002802D0074821
:1033E00007F00AFA201C1AF09BFE032302000220B9
:1033F0009A43034B1043C01810BDC0466415030028
:103400000000808070B5060008680D0002F0C8F961
:103410000021041C17F04EF8002802D0184807F0CD
:10342000EBF9201C1AF040FC041C012E06D10323EA
:1034300002209C432043134BC01870BD686802F003
:10344000AFF90021051C17F035F80028E6D1FE2160
:10345000281C890517F01EF8002803D00A490B48DC
:1034600021F0B6FC281C1AF01FFC011C201C17F0D0
:10347000D3FA0323020002209A431043DBE7C0463D
:1034800064150300000080805315030058C6020035
:1034900010B50400082021F034FF024B44600360A3
:1034A00010BDC04684A7020010B53E2803D04028B6
:1034B0002ED03C2813D1532924D013D84C2921D005
:1034C00007D8482950D049291CD0422907D10123C7
:1034D00048E04F2903D3502914D9512947D0254812
:1034E00007F08AF968293FD006D864293FD06629B9
:1034F00008D06229F3D1EAE76C2903D0712936D0CC
:103500006929ECD101230420002A00D0136010BDEA
:10351000512926D010D849290CD006D84229D6D016
:10352000482918D00129DAD1D1E74C2902D0D6D3C5
:103530004F29D4D30423E6E76629FBD006D86229B5
:10354000C5D064290DD05329F4D0C8E76929F1D03A
:1035500003D86829C3D1022304E06C29EAD0712979
:10356000BDD108231800CFE701230220CCE70123B7
:103570000820C9E77615030010B551283DD011D8B1
:1035800049282ED007D8422803D0482826D0012821
:1035900006D18B5C10E04F284BD017D84C2820D098
:1035A000002309E0682816D00AD8642836D0662897
:1035B0002AD06228F4D18B5601205B00184314E016
:1035C0006C2803D0712811D06928E9D19200505895
:1035D00021F0B1FC09E05200535EEDE75200535A6E
:1035E000EAE79200505821F0C1FC10BDD2008A18C1
:1035F0001068516821F090FCF7E7D2008A18106833
:10360000516821F0A4FCF0E703239200505898433E
:10361000030002201843084BC018E6E7D2008A18BE
:103620001068516819F028FD032302009A43130023
:10363000EFE792005058D8E700008080F7B51700F8
:10364000156801AA04000E00FFF72EFF402C05D1DB
:10365000019B043C5A1EAA185D4215405A213E3C6B
:1036600062426241B14289412B183B60D2B22B00C9
:1036700049421EF0C3FF04000D004F2E08D0532E08
:1036800007D126F024FA0022010020000AF08EFE65
:10369000FEBD662E06D1032302249843154B20431A
:1036A000C018F5E7642E06D119F0E6FC03230400E8
:1036B00002209C43F2E75A2E0FD980220023D20524
:1036C00012196B41002B04D1002A02DB21F033FCDC
:1036D000DEE7290021F020FCDAE7002905D1064BBE
:1036E000984202D821F042FCD2E7290021F02FFCB9
:1036F000CEE7C04600008080FFFFFF3FF0B589B0F5
:10370000160005AA02931C6801900F00FFF7CCFE7B
:10371000019B0500402B06D1059B5A1EA2185C4256
:103720003C2314400193029A63191360019B3E3BB2
:1037300003935A425341DBB20293642F12D0662F97
:103740000BD04F2F2AD12800042D00D9042033009C
:10375000220002991EF07BFF2CE0300002F020F8DE
:103760000600F0E7300002F01BF819F033FC029B72
:103770000690079108AA9B00D318083B22001B68FB
:10378000029904201EF063FF039B04345A1E9341E8
:1037900008AA9B00D318083B1E68D4E7B3070BD1D7
:1037A000104B32689A4207D123002A000299300058
:1037B00021F08EFB09B0F0BD300001F08DFF060056
:1037C000042DC0D900215A2F02D9884200DAFF31D6
:1037D0002A00200026F027F9019B3E2BB3D12B1F96
:1037E000E418B0E7BCB10200F7B506000F00140002
:1037F0001D0064280DD0662804D04F2813D19400F2
:10380000E35105E0940018000F1901F0C9FF38607A
:10381000F7BD180001F0C4FF19F0DCFBE4003F190C
:1038200038607960F4E703232B40019311D10E4BEC
:103830002A689A420DD1019A01004020FFF734FE18
:10384000230043430200FB180199280021F040FBAC
:10385000DEE7280001F040FF2200030039003000BD
:103860001EF008FFD4E7C046BCB10200F7B5060061
:10387000194D0C0028001DF0DFFA310017481DF02B
:1038800061FA17481DF0D8FA16481DF0D5FAFF2343
:103890009B00E61821787F2901D0A64206D1280096
:1038A0001DF0CAFA10481DF0C7FAF7BD6278A37878
:1038B00050290CD80D48475C0D48405C019300929C
:1038C0003B0002000B481DF03DFA0434E2E70A48D1
:1038D0001DF038FAF9E7C0463616030063160300F8
:1038E0006B160300F4150300121603001F110300EA
:1038F000CE1003008C160300AF160300F0B51D00B8
:1039000087B006001A4817000C001DF095FA290030
:1039100018481DF017FA18481DF08EFA17481DF0C8
:103920008BFAAD006519AC4204D111481DF084FA40
:1039300007B0F0BD3878A27804902068237800039F
:10394000400E0390E0789B060009029020883178B1
:10395000C004400E0190E0789B0E0007000F00901D
:10396000120907481DF0EEF9043401360137DAE791
:103970003616030083150300B0150300E21503009B
:1039800014160300030010B50548002B03D11FF0E7
:10399000E4F804F0D7FA09681FF0E5F8F9E7C04643
:1039A00068C5020010B50348096801F0E9FD024846
:1039B00010BDC046BCDC0200809C0200F0B5486827
:1039C00087B00F0001F088FE041E02DA002006F026
:1039D00013FFBB68164A01939D186B1E9D410100A1
:1039E00002A81EF0DAF8049E22000021300026F022
:1039F0001AF83868EDB2C3070AD433002200290050
:103A000021F066FA02A90B480AF09AFC07B0F0BD53
:103A100043102000042C00D904200749019F0022F4
:103A20008F4200D0221AB21829001EF010FEE9E7DA
:103A30005AECFFFF60DE0200A6130000F0B50C0098
:103A400087B0012203A9606802F000F8A368134957
:103A5000039A8B420DD10126049976424C1E0191A6
:103A60001419049900200D00002D05D121F07EFAD3
:103A70000DE014000126F4E7094F013DB84208D9D2
:103A800008481B18581E8341D8B221F012FA07B01B
:103A9000F0BD277800023843A419E5E7A61300001B
:103AA000FFFF3F005AECFFFF70B546007508041C8D
:103AB000291C281C17F07EFC00280BD11649281C55
:103AC00016F002FD002808D0144915481FF052F8DE
:103AD00004F038FA134806F08FFE002C11DA002E9D
:103AE00012D0FF23DB05E3189C22D20593420BD9A9
:103AF00008F00EFC211C050004301FF012FA28000B
:103B000070BDE30DDB05EFE7201C17F069FC012514
:103B100040000543F3E7C046FFFF7F7FE616030042
:103B200078C40200FF160300F0B50C00002585B034
:103B3000110020001E00009502232A00FFF720FA42
:103B40000120AC422BD0844231D13068204226D1B2
:103B500003230340AB4203D11C4A016891421ED0AB
:103B60001B4A0240062A06D0002B0DD10268194BD1
:103B700092699A4208D103A90BF070F800231A0049
:103B8000039907F043F80AE0032302001A40022ACF
:103B900007D1FF22D20580189843FFF785FF05B0B3
:103BA000F0BD01F099FD012340001843F7E703A998
:103BB00030680BF053F804007068039F01F08CFD2F
:103BC0002B00020039002000DBE7C046BCB1020038
:103BD000070080FFF9F10000F8B51F000B4B15003E
:103BE00059180139097816F095FA00260400B742F1
:103BF00004D00130032116F08DFA0600281E01D0F2
:103C000025F065FF0334A4192018F8BDD61603006B
:103C1000F0B58DB00A9214AA147815AA127806008D
:103C20000F000792DA0742D55D100023002D01DA5C
:103C30002D236D420693139A079B12992020FFF7BC
:103C4000CBFF3B680590834204D221F05AFB059BD1
:103C500030603B6000213768059BFB185A1E1170CD
:103C60008D4240D00A3C099208920B941299280088
:103C700016F0D6FA0B003033092901D90B9B5B18DB
:103C8000089A541E2370079B002B48D000282DD083
:103C9000A7422BD2099B1B1B032B05D1079B013C81
:103CA0002370A74222D2099405000894DEE79A0700
:103CB00012D1244A196891420ED1079A02940392B4
:103CC000139A39000192129A00920A9A21F0C7F8C9
:103CD000040020000DB0F0BD0023326813700A9A72
:103CE00034681360F5E79C1E30232370139B002B70
:103CF00005D0180025F0EBFE201A87421FD3069B43
:103D0000002B04D0BC4202D9069B013C23703368CF
:103D1000059A9B181B1B0A9A013B1360D9E7A7421F
:103D2000E4D20028C0D1E1E7C2540133139AD25C37
:103D3000002AF9D1069B0400002BE5D1E7E7002318
:103D4000F4E7C046BCB102001300144A10B50400E9
:103D5000934204D10122200006F056FD10BD104A06
:103D6000934201D10322F6E70020072CF6D10D4A39
:103D70001A40062A0ED09A07F0D11A680A4CA242BD
:103D800008D00A4CA24205D0094CA24202D0094CEC
:103D9000A242E3D10A0007201900DDE758CA020059
:103DA00060CA0200070080FF68DB020060DE0200DC
:103DB0003CB2020068A30200F7B505002C200E00FB
:103DC0001700019321F0AFFA040005708660878127
:103DD000072D01D0012D0FD1337872780A3B1B02D9
:103DE0001343E381019B202063750423638421F046
:103DF00088FAA0622000FEBD014B5B5DF1E7C04682
:103E000018170300054B10B59A6C002A04D0002245
:103E1000986C9A6404F096F810BDC046782E002085
:103E2000044B88600B60044B08004B600023CB60A0
:103E30007047C046D0CB02006528020070B50E0066
:103E400010490400002521F095FA7368AB420AD8A6
:103E5000012B03D10C49200021F08CFA0B492000E2
:103E600021F088FA70BD002D03D00949200021F00F
:103E700081FAAB00F31801229968200001F05CFB85
:103E80000135E2E7A41203001F170300F2600300EC
:103E9000A612030070B50D0001281ED0002803D023
:103EA000022807D0002004E04B680E48002B00D108
:103EB0000D4870BD00260D4C6B689E4203D3012057
:103EC00064002043F5E7B300EB189968022005F081
:103ED000FBFE401024180136EEE74B685B001843E8
:103EE000E7E7C04660CA020058CA020034B20200C6
:103EF00070B506000D000B48002E0DD0B41CA400B8
:103F0000200021F0FEF9084B46600360002D03D02D
:103F10000023083CA34200D170BDE958C21891604B
:103F20000433F7E734B202003CB20200F0B50700F8
:103F300085B00E0014001D2803D90025280005B007
:103F4000F0BD01238340324D1D4044D1314A13421C
:103F50001FD1F82292051342EFD0200001F0D4FACD
:103F60002D4B426A9A4205D020002C4922F009FECE
:103F7000041E0CD02300310062680833009208311F
:103F80007268380000F0A4FA254D0028D6D1254DDE
:103F9000D4E7200001F0B8FA20490EF0EBF8002831
:103FA000CBD07368626829009818FFF7A1FF07005B
:103FB0003100736808379A0005000831380025F091
:103FC00016FD210070686368800038189A00083177
:103FD00025F00DFDB2E703A9100001F0BBFB0025A1
:103FE000A842ABD00398104D0028A7DD73680021CC
:103FF0005843FFF77DFF05002B0030000833009386
:104000000830039B726804211EF0F1FC96E7C0465D
:104010008000100020000400213E00003CB202009D
:1040200060CA020058CA020034B2020030B504006F
:1040300085B0042A2DD1032540680D401FD1164BB1
:104040000A689A421BD101AA00F0C6F9002802D1E1
:10405000124806F0C3FD019B02982900C01AFFF721
:1040600047FF050021006B6808319A00019B08306A
:104070009C00091925F0BBFC280005B030BD0A00E2
:1040800000230100206801F0FFFB02308000055989
:10409000F2E70025F0E7C046409E0200211703002A
:1040A000F0B50C001100002285B01E000092012323
:1040B0002000FEF765FF184D002C1ED03568AB07B9
:1040C00003D1164B2A689A4217D0102021F019F913
:1040D00000210400306805F05FFF002504260390EE
:1040E000039805F0BBFF071E0AD128002100FFF747
:1040F000FFFE0500200021F033F9280005B0F0BDD7
:10410000AE4205D8F100200021F019F90400760034
:10411000AB001F510135E3E734B202003CB20200AC
:10412000074B5B69002B01D1180006E05A688242F8
:1041300004D8801A04308000C05870471B68F1E72B
:10414000782E002070B5144D04006B699868DB6808
:10415000834215D30230C00021F0E0F86B690028DB
:1041600003D19868400006F031FB5A68D9680360B3
:104170009B6852185B00836000234260C3606861E3
:104180006A69D3685068591C04339B000138D160B8
:1041900040189C5070BDC046782E0020074B411837
:1041A000884204D3D8B2002800D1013070475A01A8
:1041B000D318027801305340F2E7C04605150000DD
:1041C000034B044A5A6100229C331A607047C04670
:1041D000782E0020ACB20200F0B585B001900E0040
:1041E000FFF7DCFF144B02905C69002C01D120002A
:1041F0001EE0270010373D00E3689B00FB18039387
:10420000039B9D4201D32468EFE72868029A037854
:1042100093420FD14378B3420CD10230320001995E
:1042200025F0D6FB002805D1ED1B6068AD102818DD
:1042300005B0F0BD0435E3E7782E0020F0B585B079
:1042400003900191FFF7C8FF002861D1314D019B18
:104250002F009C37DC1C3B68002B18D02E002E4A08
:10426000A036126831680292A2188A420FD9020061
:104270006118180021F070F80290002822D1264B16
:1042800002001968386821F067F8029B3B602B0038
:104290009C331B68002B20D12600802C00D2802666
:1042A00030002F0021F03AF89C37386000280DD1FB
:1042B000200021F033F826003860002806D12000C5
:1042C00006F084FA33681B193360E0E72B00A03353
:1042D0001E602B000022A4331A602B00A4331A683E
:1042E0009C352D68A41801990398AD181C60FFF740
:1042F00055FF019B28701A006B70A81C039925F0CC
:1043000076FB0022019B2800EB189A70FFF71AFF3A
:1043100005B0F0BD782E00201C2F0020F7B51D0041
:1043200016000023070003600B6033602B60174BFF
:1043300000915C69002C02D0154B9C4204D133687B
:104340002A68D3182B60F7BD3B6801333B60E268F5
:10435000009B94461B68009A0193634413602200FB
:10436000E36810329B00D3189A4207D3200008F06C
:10437000C7FE2B68246818182860DBE702CA30687B
:104380004978033009183160EEE7C046782E0020E6
:10439000ACB202000C4B70B55C69002C02D00B4B28
:1043A0009C4200D170BD2600E36810369D0075194F
:1043B000AE4201D32468F0E704CE05490232054835
:1043C00021F099F8F4E7C046782E0020ACB2020044
:1043D00058170300BCDC0200F0B585B005001600DC
:1043E000080003AB02AA01A91DF05BFB0398364F3E
:1043F000B84209D0032807D001F06EF9B060002858
:1044000004D1324806F0F8F90123B3600198B842AC
:1044100029D10024B368A34200DC6C1E0298B84284
:1044200025D1B368002B47DD2800002C2ADA641957
:1044300001D5B368DC17002834DA401901D5012012
:104440004042B368002B00DA0130B368002B2DDD49
:10445000A04200DA2000013B706058425841C0B2CF
:10446000346005B0F0BD01F037F90400D6E701F083
:1044700033F9B368002801DBDA0F8018002CD6DB93
:10448000002B03DDAC42D6D92C00D4E7002BD2D0D0
:10449000A54200D86C1E002804DA4019D4D50120AA
:1044A0004042D1E7A842D0D92800CEE7002BD2D095
:1044B000A042D0DD601CCEE7002C01DA0020B6E778
:1044C00000208342E4D1C0E7809C02003939030018
:1044D000F0B5060085B017001B2805D10A9A97424F
:1044E00009D0002005B0F0BD19281AD01C281AD018
:1044F0000A9A0A9717001A000B0011000A9A0192F3
:10450000BA4200D901971D000C0000230093009BC4
:10451000019A934209D10A9BBB4220D0E1D30120EA
:10452000E0E71A26EAE71D26E8E70295039401CDA5
:1045300002CC01F07FF8002802D0009B0133E5E7B0
:104540001B2ECED0039B30001A68029B196806F020
:104550005BF9044BC01A43425841C0B2C2E71A2E5D
:10456000DDD1BEE760CA0200F0B51E0085B0039041
:1045700018680D00170000F0C7FF736801900293E0
:104580000024022F0ED90123B268290001F07CF922
:104590000400032F06D029000123F268019801F0DE
:1045A00073F90500A54202D8084806F025F9039AD8
:1045B000A3000299D05801F03DF8002801D1013440
:1045C000F0E701206400204305B0F0BD533903003B
:1045D00010B50400431C02D0024800F03FF9024B22
:1045E0001C6010BDA02E0020CC2F0020014B024AE1
:1045F0009A647047782E0020A02E0020F8B50500A0
:1046000010200C001F00160020F07BFE054B4460BC
:104610008460A4190760C4606B60034B2860AB60C2
:10462000F8BDC046EF2A0200052B020037B5040092
:10463000A06805F013FD019000280ED06568074BB7
:104640009D4205D001AB00220121280005F0AEFB00
:1046500001F080F90028EBD001983EBD809C02005B
:10466000F7B50D00110000220600009228001F007F
:104670000B4BFEF785FC102020F050FE041E08D1E5
:10468000084B094A094C5A62002326602000A360A7
:10469000FEBD39002800FFF72BFCE060F4E7C046C0
:1046A000FFFF0000782E002034B20200902E002080
:1046B00010B5013810C9FFF71BFCE060004810BDC1
:1046C000809C0200F8B57F2553B204000E0017004D
:1046D0001540002B0ADB6B1E012B07D80B685868AE
:1046E0001EF078F90100200020F044FE022D16D1C2
:1046F0000F49200020F03EFEF368002B02D05A68DC
:10470000002A04D10B49200020F034FEF8BD012A14
:1047100007D100229968200000F00EFFF6E7002D77
:10472000EAD03A00F1682000FFF788FBEEE7C046C8
:10473000DA950300BA110300C36803485A68002AD7
:1047400000D098687047C046809C0200136810B57E
:104750001400002B0BD0FC23FF33994206D10C4BE5
:1047600052689A4202D10023C380236010BD094BD6
:10477000994201D1C368F8E7074B02689A42F5D124
:10478000064B9942F2D1FFF7D7FF2060EEE7C04613
:10479000809C020003020000F0C40200E30200005B
:1047A0000EB470B5050087B0102020F0B7FD041ED0
:1047B0000BD11A4B1A4A1B4C9D6118625A62200099
:1047C00007B070BC08BC03B01847002105608160C9
:1047D0000120FFF78DFB2521E06005000B9825F0F7
:1047E0005EF9061E09D10B9825F071F9320001001F
:1047F0000B9809F0DBFDA860E1E702A810211DF08D
:10480000BBF90CAA0B9902A80192FDF70DF802A9B9
:104810000548E56809F094FDEDE7C046782E0020D4
:1048200034B20200902E002068DB020010B50300B5
:10483000820708D1064A0168914204D1054AD96825
:104840000120914203D0044918000DF093FC10BDE3
:10485000E8E202006146000030C1020010B5040029
:1048600000F052FE034BC2689A4200D02469002334
:10487000A36010BD61460000F8B516001D000400DD
:104880000F0000F041FE154BC2689A4200D0246927
:10489000A068002811D10C3020F040FDA060002855
:1048A0000AD003236360E288A1689300CB18033227
:1048B000E2801F605E609D60F8BDE388A1880233DE
:1048C0008B42F0DB03318900012220F045FD0028F6
:1048D000F2D0A388A0600333A380E4E76146000020
:1048E00070B5150004000E0000F00EFE064BC26805
:1048F0009A4200D02469A368002B02D133602B6058
:1049000070BDE2883260FAE761460000F8B50E003B
:104910000500140000F05CFC330003272B433B42EE
:104920000BD1BC4209D9A2083100280014F008FBC1
:104930002300BB43ED18F6183C40002C04D02200A5
:104940003100280024F07DFC80220449D2008B58DD
:10495000002BFCD000F02CFCF8BDC04600E001406C
:1049600010B504000C2020F0CCFC034B4460036025
:1049700001235B42836010BD94C6020070B5040041
:1049800000F0C2FD00230C49DA0052181568A54258
:1049900005D15168094820F0EDFC012070BD0133BC
:1049A000612BF1D1064B9C4203D0984201D00020EC
:1049B000F4E70449EEE7C046D0C60200BCDC0200C2
:1049C00088FD02006A390300F0B585B00C0009F0DB
:1049D0000FFD03AA070002A9200000F01FFF029E9E
:1049E000039B35001035AD002800019320F089FCB1
:1049F00004002C221030002125F015F867602700F4
:104A0000104BE6632360104B019EA3600F4B403DAB
:104A1000E3600F4B403763610E4B7519A3610E4B7A
:104A2000E3610E4B23620E4B63620E4B6363AE4237
:104A300002D1200005B0F0BD01CE09F0D9FC01C7BC
:104A4000F5E7C046E8E20200694A0000C94A0000F2
:104A5000953E00002D3F00008D4A00002D400000D3
:104A6000213E00003CB2020070B50C0005000B684E
:104A700005495A6820F03FFD216828004031220096
:104A800009F072FB70BDC04688750300136870B5ED
:104A9000002B10D10568EE6BB34200D170BD9C00B5
:104AA0002C19246CA14201D00133F5E702339B009D
:104AB0001B581360F2E70249024820F089F9C0460A
:104AC000715F0300F4C00200F0B51700C26B85B03F
:104AD000CE19050001910393964206D03300254973
:104AE0002548FFF75DFE03F02DFA00213000FFF7A7
:104AF000FFF90400019B05609B001A000399083030
:104B0000029324F074FF0298BA00083020180021A4
:104B100024F089FF029A039B94466344F7191E0010
:104B2000019BBB4202D3200005B0F0BD306809F004
:104B30005FFC00210200EB6B0293029B994204D1BF
:104B40000E490D48FFF72CFECDE78B00E818006CEE
:104B5000824201D00131F0E7E3189968002901D0C1
:104B60000749EEE7726808369A60019B02330193A9
:104B7000D6E7C04663140300A4C50200855F0300A6
:104B8000A65F03000379044AD35C002B00D183792C
:104B90000248DB00C0187047C92D0020E0C90200A0
:104BA00010B50400FFF7EEFF2279036802490348BD
:104BB000FFF7F6FD03F0C6F9D55F03001CC602003F
:104BC000002803D001210379014AD1547047C0461F
:104BD000C92D002010B5FFF7D5FF034B4068C01A60
:104BE000431E9841C0B210BDA14B000070B5060035
:104BF0000C00FFF7C7FF0C4D2B002833984204D15F
:104C00002A001032002394420BD00023A04208D087
:104C1000436830009847641B3379044AE410D45445
:104C20000123180070BDC046E0C90200C92D002054
:104C3000184BF7B530CB0F00160001281AD94B6876
:104C4000154A934207D0990711D114491C688C4228
:104C50000DD11C001D0002280CD0BB68934209D066
:104C60009A0704D10D4A19681C00914202D0002015
:104C700005F086FF01A9386809F0F0FF019A0100EC
:104C8000002310201FF095F82A003100230005F0C2
:104C90006BFDFEBD782E0020809C02001CD502001A
:104CA000F0B50F00496885B005001600002901D055
:104CB000002A05D1390028001EF0C9F805B0F0BD62
:104CC0000F321309C91800931EF032F80F22A8689A
:104CD000B9687C68324000D11032009B1E19234B0A
:104CE000F3185B00C018214B0290E3185B00CB184F
:104CF000019010209C4621000023801A002921D118
:104D0000C3401A48029A84466400141B2380009B07
:104D10005B00E41A009B023463445A00200024F034
:104D200082FE002E04D07300023BE35A002B1BD0FE
:104D300001216E603B78DB07DA0F2B788B4313433E
:104D40002B70BBE762461288013913431A00C24038
:104D50000393019B1A80019A039B023A019202225B
:104D600052421B049444C9E7013EDAE7FFFFFF7F8C
:104D7000F0B54B681500526889B006000C009342EC
:104D800001D22C000D000121227863680A4201D172
:104D90002A781140C91830001DF0CAFFB368227884
:104DA0000193A36817000293636829789C46AB6857
:104DB0004F400393012318001F408B430693634623
:104DC000904302006046591E019B04936B681B1AB6
:104DD00007934B1C18D163465900019B5918002FAB
:104DE00002D001230B80023101981DF024FF012124
:104DF000706022782B7853403278DB078A43DB0FD0
:104E00001343337009B0F0BD029B13481B881B1875
:104E10009B180593079B5B188B421AD8039B039A38
:104E20001B8802321B180392069A01399B18059AB7
:104E30005A4092B21B0CD7190693049A059B17800F
:104E40001A0C049B3F0C02330493029B023302931F
:104E5000BFE7014BE8E7C046FFFF0000F0B50600E2
:104E600095B0069353680D00591C049200931DF0F1
:104E70005FFF049B00215B68B0685A1C52000093DE
:104E800024F0D1FD00237360049B28005B68591C4B
:104E900000931DF04DFF049928001DF0D8FFAB686A
:104EA0006F680193069B9B680393069B5B68029364
:104EB000B3680793029BBB422DD82ED3039A3900C7
:104EC00001981DF078FF002823D10123079A68601C
:104ED00013807360049B1A78069B1B785A40012349
:104EE0001A4214D03278134333706B68002B0ED003
:104EF000012111A849421DF0C9FF11AA310030005B
:104F00001EF0CBF9069A290028001EF0C6F915B04C
:104F1000F0BD002801DA0023DBE7824A029B9B18E0
:104F20005B009C460022039B634405931B88009210
:104F30001AB2002A63DA0022019B7C001A537B1C00
:104F4000102709936B60019BA01C00991B18089304
:104F5000791A019B0A9108998B4256D3059B009AB6
:104F60001B8893400893029B012B0AD91022039BB4
:104F700000996344023B1B88521AD340089A1A4393
:104F80000892019B029A1C19099B9B1A654A73603F
:104F90009B18079A5B00D3180A93634602330E935B
:104FA0006B680B930B9A029B934239D313005D4AB3
:104FB000102194460024019A63445B00D318009AA0
:104FC000891A019A9A4200D89EE07368002B07D094
:104FD000544A07999A185200525A002A00D19DE06B
:104FE0006B68002B00D175E74E4A01999A18520060
:104FF000525A002A00D06DE7013B6B60F0E7009A3F
:105000005B0001329BB292B291E71988009F0800C1
:10501000B84002431A800A9A0233D1408AB29AE712
:10502000A31E20880D931B8800041843089915F0CF
:1050300071F80E9B0022E31A0C931900039B059054
:105040009C4609928C4212D823889A4234D3D31AB0
:105050005A42190C9BB222805A1E9341CA18002A48
:105060002CD003990C9B8C4600210F0041E0099B3A
:10507000009F180C63461B88BB4018436B46099081
:105080009F8C059B5F430B889F4203D2D81B0F90D8
:1050900090420CD8D31AFF187B420B80BBB23A0C5B
:1050A0005F1EBB41D218022302319C44CAE70F9B0A
:1050B0009A1A0A800022F6E79A1A22800A9B059A19
:1050C000023B5A800A930B9B0D9C013B6B6067E788
:1050D000380C09906046009F0088B840099F07433C
:1050E00018884118B8B24118022019808444090C6C
:1050F00002339C42ECD823885918059B2180013B40
:10510000090C521A0593AAE71A88009F100038412B
:105110008A402043188094B2023B52E7013B7360FF
:1051200053E7C046FFFFFF7F436870B55A00002376
:1051300084680A4DA218944206D30278D20700D59B
:105140005B4201200B6070BD023AAB4203D8168867
:105150001B043343EFE70020F5E7C046FF7F000064
:1051600010B50B790349002B00D1034920F002F957
:1051700010BDC046E75F0300EC5F030037B50C00CD
:10518000110000221D00009201232000FDF7F8FE0F
:10519000002C05D0286800F0DDFB034B002800D16F
:1051A000024B18003EBDC04660CA020058CA020049
:1051B0008022044B52001A600123034A1360034A01
:1051C0001360704700E100E00C8C0040008000405C
:1051D0008022054B5200DA67044BFF3A5A600022E6
:1051E000034B1A607047C04604E100E000800040B5
:1051F0000C8C004070B5002501261E4B1E4C1D6016
:105200001E4B18601E4BE650C046FFF7E1FF1D4BDA
:105210001D4AE660E25002221C4BFF20E550043399
:10522000E25008339218E250C12380229B001203FF
:10523000E250053BFF3BE550C2244022144BA40042
:10524000195981430A4380211A510C341A5909060D
:105250001202120A0A431A51C02204341959814316
:105260000A431A51802212041A60802252041A60E2
:1052700070BDC046D02F0020008000408401002077
:10528000FC0F00004C050000701700000405000032
:1052900000E100E070B51F4C1F4D636C002B0AD07D
:1052A000002363641D4B1B689847A823DB00EA5862
:1052B00000018018E850A36C002B09D00023A364E0
:1052C000164B5B689847164B0001EA588018E85067
:1052D000E36C002B0AD00023E364104B9B689847D3
:1052E000A923DB00EA5800018018E850236D002B49
:1052F0000ED000230B4A2365AB580B495B18AB500B
:105300000A4A1368063313608022094B12045A605C
:1053100070BDC046FC800040008000400C000020B2
:10532000440500004C05000070170000D02F00203D
:10533000FCE100E0F7B50191032823D8134B80006E
:10534000C758C223124D9B00EF5001234419236418
:10535000A8230F210F4EDB009C46E358AE59921B49
:10536000D218D3170B409A1801990B4B1211C15048
:10537000C1239B00EF5063460020013212019619B1
:10538000E650FEBD01204042FBE7C046A4CA020031
:10539000008000404C0500000C00002003280BD8C2
:1053A000074B8000C158C223064A9B00D150064BD0
:1053B000064AC2500020704701204042FBE7C04629
:1053C000A4CA0200008000400C00002047390200FF
:1053D00010B5024B1B68984710BDC04684010020E1
:1053E00010B50024054AA1008B58002B02D00020E4
:1053F000885098470134042CF4D110BD740100206A
:10540000074A89008B58002B06D18850802118004C
:10541000044A49045160704701204042FBE7C046FE
:1054200074010020FCE100E0004870470148E801F9
:1054300010B500F051F980F31088014810BDC04646
:10544000809C0200014BD8607047C046782E002037
:10545000034B82B0D86801ABC01A02B07047C04697
:10546000782E0020014B18617047C046782E00202E
:1054700010B54E2102481DF076FB02F063FDC046D8
:10548000B4C4020007B5054A01ABD1681269CB1A52
:105490009A4201D8FFF7ECFF07BDC046782E0020E6
:1054A000F7B5CC1CA400070020000E0001921FF0ED
:1054B00028FF22000500054B4760866003600C3A18
:1054C00001990C3024F093FA2800FEBD38CB02007D
:1054D0000F2310B51940012908D00300002909D075
:1054E000022909D11FF027FD030003E0044B002827
:1054F00000D1044B180010BD1FF038FDF4E7C04682
:1055000060CA020058CA0200074BC2070AD4074A01
:10551000074B0240062A05D00322064B0240022A0E
:1055200000D0036818007047BCB10200070080FF7C
:1055300068DB02000CCC020070B50D000400160000
:10554000FFF7A0FF2800FFF7DFFF8368002B04D0E0
:10555000320029002000984770BD426802492000AF
:105560001FF0C9FFF8E7C0463661030010B50A0016
:1055700001000248FFF7E0FF10BDC046BCDC02009E
:10558000F7B5050008000E001DF0F8FA002810D04D
:1055900001AA69463000FFF7A3F9009B002B08D051
:1055A000174928001FF0E6FE009CE71EA400002F0C
:1055B00009DA310028000222FFF7BEFF2800114956
:1055C0001FF0D8FEF7BD019B28001A1911000C3AF4
:1055D00008390B6812680C491FF08DFF019B1B19DD
:1055E000043B1A68002A06D1064928001FF0C2FEB3
:1055F000033F0C3CDBE7054928001FF07CFFF7E781
:10560000F460030081170300186103002D6103009B
:1056100010B50400FFF778FF054B0069984203D0EE
:10562000431E9841C0B210BD200021F088FAFAE76D
:10563000911F010070B505000C0001208D4203D0C0
:10564000214B9D4201D1002070BD9942FBD0012326
:105650001D4204D01942F6D12B000D001C002A0077
:105660001A4B1A40062A05D0AA0711D1184A2968F0
:1056700091420DD12340062B05D0A307E3D1144B53
:1056800022689A42DFD12100280009F097FADBE76F
:105690002340062BD7D0A30703D10D4B22689A4293
:1056A000D1D02800FFF730FF8369002BCBD0220038
:1056B00029001B2098470028C5D0064BC01A43423A
:1056C0005841C0B2C0E7C046809C0200070080FF7E
:1056D00068DB020060CA0200104B10B5984219D076
:1056E0000F4A0123904217D0184201D0184110BD33
:1056F000830706D10B4B02689A4202D106F06CFE7A
:10570000F5E71EF07AF9084902000848FFF748F863
:1057100002F018FC0020EAE71800E8E758CA020087
:1057200060CA0200BCB10200BB600300A4C5020055
:1057300010B5C30705D4830706D1054B02689A420A
:1057400002D11FF035FC10BDFFF7C6FFFBE7C046D6
:10575000BCB102000F4B70B50D000124984204D17A
:1057600000230B602300180070BD0B4B984201D141
:105770000C60F7E70300234002D040102860F1E7F7
:105780008207F0D1054A01689142ECD106F024FE6F
:10579000F4E7C04658CA020060CA0200BCB1020069
:1057A000184B10B5984228D0174B984227D0C30702
:1057B00003D5401015F034FE10BD0323184206D166
:1057C000124A0168914202D11FF0FBFBF4E702008C
:1057D0001A40022A08D10E4A0240062A04D0FF22AB
:1057E000D20580189843E7E71EF007F9094902003F
:1057F0000948FEF7D5FF02F0A5FB0020DCE7FE20FC
:105800008005D9E758CA020060CA0200BCB1020094
:10581000070080FFA1600300A4C5020010B5830744
:105820000CD103680A4CA34202D11DF03BF810BD15
:10583000084CA34202D11CF05BFDF8E71EF0DDF836
:10584000054902000548FEF7ABFF02F07BFBC046AE
:105850003CB2020068A3020051600300A4C502002C
:1058600013B50C0001A9FFF7D9FF019BA34206D095
:10587000220003490348FEF793FF02F063FB13BDC8
:10588000746003001CC60200F7B505000C00170089
:105890001E00D3070ED557100197019B002B1FDA6E
:1058A0001B190193002E1DD0002B15DA0023019344
:1058B0000198FEBD01A91000FFF74CFF0028ECD1B4
:1058C00038006C681EF099F8220003000B490C4860
:1058D000FEF766FF02F036FBA342E9D90194E7E741
:1058E000002EF9D1019B002B01DBA342E0D36A68B3
:1058F00004490548FEF754FFECE7C0461760030073
:10590000A4C502003B60030098C2020010B5040069
:10591000830710D10D4B02689A420CD10C4B034007
:10592000062B06D1C0081DF050F843000120184393
:1059300010BD8068F9E72000FFF7E6FD4369181EF7
:10594000F6D0210001209847F2E7C04660DE020051
:10595000070080FF164B70B5040000209C4203D066
:10596000144DAC4201D1012070BD134B00209C426C
:10597000FAD001262640864203D06010431E98418B
:105980000DE02000FFF7C0FD4369002B09D0210086
:1059900030009847002804D0401B43425841C0B211
:1059A000E2E72000FFF7B2FF0028DCD00138E5E78E
:1059B00058CA020060CA0200809C020010B50400B0
:1059C000FFF7A4FF002809D120001EF016F80449B3
:1059D00002000448FEF7E4FE02F0B4FA10BDC0462F
:1059E000D3600300A4C5020070B504000D001600CA
:1059F000FFF78AFD036A002B05D032002900200042
:105A00009847002818D10D4D2000002E08D11DF018
:105A1000F4FF02000A492800FEF7C2FE02F092FAE3
:105A2000042E04D11DF0E9FF06490200F3E71DF042
:105A3000E4FF05490200EEE770BDC046A4C50200C0
:105A40003B610300666103008761030010B51DF030
:105A5000EBFF002802D1024805F092F810BDC046C5
:105A6000F25F030010B50C001FF0A2FA631E18428B
:105A700007D00200230003490348FEF791FE02F01D
:105A800061FA10BDB46103001CC6020010B54A687B
:105A90000249D2001FF02FFD10BDC046DC6103009B
:105AA00070B50B0006001400101E0FD071681800AE
:105AB000042A0ED1FFF7D6FF7368012B03D0022B07
:105AC00005D0006800E000781FF035FA70BD00884E
:105AD000FAE7FFF7C7FF05002000FFF729FE72680D
