:020000040000FA
:10000000004000202D910100699101006B910100D9
:1000100000000000000000000000000000000000E0
:100020000000000000000000000000006D910100D1
:1000300000000000000000006F91010071910100BC
:100040007391010085C50000719801007391010052
:1000500073910100000000002D92010073910100D6
:10006000E5890000E19D0100E59601007391010022
:10007000739101007391010073910100739101006C
:10008000739101007391010073910100739101005C
:1000900073910100AD8E0100C58D0100218B000020
:1000A000318B00007391010000000000000000008F
:1000B0000000000000000000000000000000000040
:1000C00010B5064C2378002B07D1054B002B02D02E
:1000D000044800E000BF0123237010BD2001002070
:1000E0000000000080930300044B10B5002B03D0E8
:1000F0000349044800E000BF10BDC04600000000F6
:100100002401002080930300164B002B00D1144BD8
:100110009D46402292029A1A924600218B460F4633
:100120001348144A121A29F0F9F80F4B002B00D08B
:1001300098470E4B002B00D0984700200021040068
:100140000D000D48002802D00C4800E000BF20F050
:1001500069FD2000290028F037FE20F0AFFCC046E2
:100160000000080000400020000000000000000027
:1001700018010020E02F0020000000000000000017
:10018000044B88600B60044B08004B600023CB607D
:100190007047C04654C60200DB17020070B50E005F
:1001A00010490400002526F00CFD7368AB420AD804
:1001B000012B03D10C49200026F003FD0B49200040
:1001C00026F0FFFC70BD002D03D00949200026F069
:1001D000F8FCAB00F31801229968200005F0BCFC84
:1001E0000135E2E7D57E0300C50403005841030052
:1001F000C204030070B50D0001281ED0002803D0F2
:10020000022807D0002004E04B680E48002B00D1E4
:100210000D4870BD00260D4C6B689E4203D3012033
:1002200064002043F5E7B300EB189968022001F061
:10023000A1F9401024180136EEE74B685B00184323
:10024000E7E7C04688DE020080DE02007895020003
:1002500070B506000D000B48002E0DD0B41CA40094
:10026000200026F0EEFA084B46600360002D03D014
:100270000023083CA34200D170BDE958C218916028
:100280000433F7E77895020080950200F0B5070087
:1002900085B00E0014001D2803D90025280005B0E4
:1002A000F0BD01238340324D1D4044D1314A1342F9
:1002B0001FD1F82292051342EFD0200005F034FC44
:1002C0002D4B426A9A4205D020002C4921F0CBFEEA
:1002D000041E0CD0230031006268083300920831FC
:1002E0007268380003F048FC254D0028D6D1254D12
:1002F000D4E7200005F018FC204903F043FB002858
:10030000CBD07368626829009818FFF7A1FF070037
:100310003100736808379A0005000831380028F06A
:10032000E1FF210070686368800038189A00083186
:1003300028F0D8FFB2E703A9100005F01BFD002547
:10034000A842ABD00398104D0028A7DD73680021A8
:100350005843FFF77DFF05002B0030000833009362
:100360000830039B7268042121F08AFE96E7C0469C
:100370008000100020000400810100008095020030
:1003800088DE020080DE02007895020030B50400AD
:1003900085B0042A2DD1032540680D401FD1164B8E
:1003A0000A689A421BD101AA03F06AFB002802D115
:1003B000124802F069F8019B02982900C01AFFF761
:1003C00047FF050021006B6808319A00019B083047
:1003D0009C00091928F086FF280005B030BD0A00EE
:1003E00000230100206805F05FFD02308000055900
:1003F000F2E70025F0E7C04674E00200C7040300FE
:10040000F0B50C001100002285B01E0000920123FF
:10041000200000F0F1F9184D002C1ED03568AB0714
:1004200003D1164B2A689A4217D0102026F009FAF9
:1004300000210400306801F005FA0025042603902D
:10044000039801F061FA071E0AD128002100FFF786
:10045000FFFE0500200026F023FA280005B0F0BDBD
:10046000AE4205D8F100200026F009FA040076001B
:10047000AB001F510135E3E778950200809502003B
:1004800030B507240278084DA2431400022222430B
:1004900002707F22039C41602240D4000288836066
:1004A0002A402243028030BD07FCFFFF10B50B003D
:1004B000072401782340A14319437F230170049945
:1004C0000A4C0B40D9000388426023400B43038051
:1004D000039B04685905064BC90A23400B4303607C
:1004E000029B8360059BC36010BDC04607FCFFFFF5
:1004F000FF03E0FF70B5050000291CDB032905D8C8
:100500000800002419F086FD181806060123023998
:1005100099430C00FE26B52109023143280021F041
:10052000C3F9002C04D005492800214321F0BCF96F
:10053000AE61EC6170BD0024F226ECE780B00000F3
:10054000074B5B69002B01D1180006E05A68824214
:1005500004D8801A04308000C05870471B68F1E747
:10056000782E002070B5144D04006B699868DB6824
:10057000834215D30230C00026F070F96B69002861
:1005800003D19868400001F077FD5A68D96803608C
:100590009B6852185B00836000234260C3606861FF
:1005A0006A69D3685068591C04339B000138D160D4
:1005B00040189C5070BDC046782E0020074B411853
:1005C000884204D3D8B2002800D1013070475A01C4
:1005D000D318027801305340F2E7C04605150000F9
:1005E000034B044A5A6100229C331A607047C0468C
:1005F000782E0020F0950200F0B585B001900E0035
:10060000FFF7DCFF144B02905C69002C01D1200045
:100610001EE0270010373D00E3689B00FB180393A2
:10062000039B9D4201D32468EFE72868029A037870
:1006300093420FD14378B3420CD10230320001997A
:1006400028F041FE002805D1ED1B6068AD10281888
:1006500005B0F0BD0435E3E7782E0020F0B585B095
:1006600003900191FFF7C8FF002861D1314D019B34
:100670002F009C37DC1C3B68002B18D02E002E4A24
:10068000A036126831680292A2188A420FD902007D
:100690006118180026F000F90290002822D1264B9C
:1006A00002001968386826F0F7F8029B3B602B00BF
:1006B0009C331B68002B20D12600802C00D2802682
:1006C00030002F0026F0CAF89C37386000280DD182
:1006D000200026F0C3F826003860002806D120004C
:1006E00001F0CAFC33681B193360E0E72B00A0332C
:1006F0001E602B000022A4331A602B00A4331A685A
:100700009C352D68A41801990398AD181C60FFF75B
:1007100055FF019B28701A006B70A81C039928F0E4
:10072000E1FD0022019B2800EB189A70FFF71AFFE9
:1007300005B0F0BD782E00201C2F0020F7B51D005D
:1007400016000023070003600B6033602B60174B1B
:1007500000915C69002C02D0154B9C4204D1336897
:100760002A68D3182B60F7BD3B6801333B60E26811
:10077000009B94461B68009A019363441360220017
:10078000E36810329B00D3189A4207D320000DF083
:10079000B1FA2B68246818182860DBE702CA3068B1
:1007A0004978033009183160EEE7C046782E002002
:1007B000F09502000C4B70B55C69002C02D00B4B1D
:1007C0009C4200D170BD2600E36810369D0075196B
:1007D000AE4201D32468F0E704CE05490232054851
:1007E00026F0B0FAF4E7C046782E0020F09502001B
:1007F000FE0403000CE9020010B51C0002AB1B78DC
:10080000002904D0002B02D10E4801F00FFEA242B5
:1008100007D1824214D003000B490C480FF0DAF8DC
:1008200006E0824206D9121A094908480FF0D2F8A8
:1008300000F0C2F8844203D2030022000549ECE72D
:1008400010BDC046442303006D23030078D7020087
:10085000A6230300D8230300F0B50024170087B0B7
:100860000C9D03900491059302940194059B9C4276
:1008700006D1019B039A934240D2254801F0D6FD50
:10088000039B9C4213D26B889B05F6D4019B049A70
:1008900001330193A300D058FF226B88A6001340B8
:1008A000012B24D105F066FB0D9B985517E006231C
:1008B00029880022C9001943380004F0CFF8002825
:1008C00010D16B88DB0506D52A88124912480FF033
:1008D00081F800F071F80D9A6968A300D1500134D5
:1008E0000835C3E7029B406801330293D4E7022B2B
:1008F00001D105F001FA0D9B9851F0E73B68029A8F
:10090000DB08934201D90548B8E707B0F0BDC046FF
:100910001E2403000724030078D702003F240300AD
:10092000F0B50E001100002285B0B71C03901C002A
:1009300030000D4B0092BF00FFF75EFF380025F03E
:1009400080FF466006000500039B083F03600836F1
:10095000E719BC4202D1280005B0F0BD002101CC4E
:1009600000F070FF01C6F4E7FFFF0000C4600561FE
:10097000466187614146C161494601625146416213
:10098000594681626946C1627146816000490847E3
:10099000990900000020C046024B9A6802609860E6
:1009A00000207047782E0020024B9A6812689A60E7
:1009B0007047C046782E00200E4A9368002B01D164
:1009C00021F078FC196858609160181CC4680569AA
:1009D00046698769C1698846016A8946416A8A46CB
:1009E000816A8B46C16A8D4681688E4601207047B8
:1009F000FEE7C046782E002037B50400A06800F05E
:100A000083FF019000280ED06568074B9D4205D0FA
:100A100001AB00220121280000F01EFE05F0AAFA19
:100A20000028EBD001983EBDA8C802000022104B60
:100A300010491A6003001233FF3341185A701A70BC
:100A400004338B42FAD1010003000022093108333C
:100A5000FF311A709A705A70DA7004338B42F8D1F1
:100A6000C3237F229B00C254034B044A1A60704781
:100A70003C01002011030000040000205D2403005D
:100A8000F0B500267E24320031009300C318FF33F6
:100A90005F7C7F2F4CD09B7CF618F6B2531CDBB2E8
:100AA000EF2E2AD9C1267D25B60086193700AC461F
:100AB0009C4516DA9B00C318FF3359749974D97496
:100AC00019757D230232D2B2934211DA9300C31812
:100AD000FF335C749974D974197500260132D2B24F
:100AE000D3E73D68043FBD6001256D42AC44DFE7BC
:100AF0003568013B7560043EE6E77D2FEED80D4D6D
:100B0000EF5D01252F42E9D0C1227D269200821897
:100B10009E4208DA9A008218FF3254749174D1749C
:100B200011751A00D9E71568013E5560043AEFE7E0
:100B3000F0BDC0464025030070B5002140250D4C96
:100B40008B00C318FF335A7C7F2A11D0A25C01317D
:100B5000C9B22A42F4D05A7D7F2AF1D0A25C7F2A02
:100B6000EED9DA7D56B2002EEADD0132DA74E7E71B
:100B700070BDC046EF2403000300F7B500214B4AC7
:100B80001333FF338218197004339A42FBD1FC23CC
:100B900000249C462200844453B2002B04DA444BC8
:100BA000444A1A60002008E063461F69BC4205D32E
:100BB0007F234432920013540120FEBDDE68355D70
:100BC000602D01D9203DEDB2611CC9B28F4251D0D8
:100BD000735C602B01D9203BDBB2232D4DD1303B20
:100BE000092B02D9324B344ADBE70234E1B28F429F
:100BF00004D8FF2BF6D843700C00CDE7745C2500B9
:100C0000303D092DF5D80A256B430131303BE318FF
:100C1000C9B2ECE70136512E30D10023274C1F5DBD
:100C2000DEB22A2F0CD1264FFF5CAF4208D19300D1
:100C3000C318FF335E74447801321C75D2B2DBE70F
:100C40000133512BEBD11F4C493B08342678AE427F
:100C500008D0013C002B02D1154B1B4AA1E7013BF8
:100C6000DBB2F3E7002BF7D014004334A4000419DF
:100C7000A370C1E7232DB5D000230026F7B201975A
:100C80000F4FF75DAF42C5D10C4FF75D2A2FC1D092
:100C90009F42BFD193000199C318FF335974417823
:100CA000013202341975D2B2E1B2A5E71203000095
:100CB0000400002060240300722403007F26030048
:100CC0002E260300D02603008024030010B5113027
:100CD000084A0949FF3003787F2B00D110BD022458
:100CE0000457002C03DCCB5C43700430F3E7D35C87
:100CF000FAE7C046DE2503008E250300F0B5002389
:100D0000070085B09E00BE193100FF314A7C9C4629
:100D10007F2A01D105B0F0BD4F4B02209C5C634699
:100D20000133DBB20442EDD0012560462C4242D1B2
:100D30005419E0B2009049487C3580184078019001
:100D4000C87C097D02900391C121890079180800AF
:100D50009D4226DA9B000098FB18FF3358740198D7
:100D6000941C98740298E4B2D874039818753B48A0
:100D7000634682183000FF309578027D023300927E
:100D80007D22C67CDBB29A4210DA9B00FB18FF334F
:100D90005C749D74DE74009A1A7563460333DBB28B
:100DA000B0E70468013D44600438D1E70868013ABF
:100DB00048600439E7E70130C0B2010044318900DE
:100DC000C95D0029F7D07F2908D008242248405C5B
:100DD000204297D12439012900D893E73000511CD3
:100DE000C9B200911D49FF30891849787D250191CC
:100DF000C17C0291017D0391C121890079180C0009
:100E00009D421FDA9B00009CFB18FF335C74019C21
:100E1000124D9C74029CDC74039C1C75941CAA18D3
:100E200063469678027D023300927D22C57CDBB258
:100E3000E4B29A420BDA9B00FB18FF335C749E7499
:100E4000DD74A8E72668013D6660043CD8E70868C1
:100E5000013A48600439ECE7EF2403008E250300D3
:100E6000F7B500229300C318FF335C7C002C03D13C
:100E70000132D1B20A00F5E77F2C00D126E110261D
:100E800093490D5D511CC9B2354227D0DC7CAD06BB
:100E9000ED0FA4462C00C1251434AD001F7D019434
:100EA00045196D368E4214DA8D00019C4519FF35C7
:100EB0006C740024AC7464462F75EC745C7C352C27
:100EC00000D0C5E05A7B834CA25C5207D2D51022D9
:100ED00085E02C68013E6C60043DE3E74E2C1CD19C
:100EE00018220D24DD7C5C741E7DC1239B00C31879
:100EF00070348C420CDA8B00C318FF335A74002212
:100F0000DD749A741E75B5E71B22EAE71C22E8E738
:100F10001F68013C5F60043BEBE74F2CF4D0502C82
:100F2000F4D06DB2002D2BDADD7C002D28D00D0021
:100F30004435AD002D5C002D22D1961CF5B20195F3
:100F4000AD004519FF356F7C7F2F19D0604EF75DDE
:100F50007F2F15D9EF7C002F12D0C1237D229B005B
:100F6000C318019C944206DD1F236B740023AB74ED
:100F7000EB742B757EE71C68013A5C60043BF0E77C
:100F8000172C2ED15C7B013AD2B2452C1DD11B3CD3
:100F90005C7315004335AD004D4C2D5C655D7F2DB8
:100FA00000D867E70132D2B292008218FF32557C36
:100FB000002D00D180E0645D7F2C00D85AE7D27C00
:100FC000002A00D056E71E3209E0392C01D10D3C31
:100FD000DEE73F4A125D7F2A00D84BE712225A749F
:100FE00048E7182C07D15A7B394CA25C7F2A00D8DD
:100FF00040E71322F3E7202C05D15A7B3C2A00D08E
:1010000038E7163AEBE7482C15D15C7D7F2C02D1EE
:101010004B245C7403E02E4D2C5DA406F8D55C7C5B
:101020002B4D2D5DED0700D448E75D7B202D3CD195
:101030000C3C5C741EE73C2CF1D15A7D7F2A00D118
:1010400018E7234CA25C920600D513E73F22C6E7BF
:101050002A2C16D1DA7C1C7DC1237D259B00C31868
:101060008D4209DA2B258B00C318FF335D740025F0
:10107000DA749D741C75FDE61E68013D5E60043BDC
:10108000EEE72C2C11D1DA7C1C7DC1237D259B0041
:10109000C3188D4204DA8B00C318FF332D25E5E712
:1010A0001E68013D5E60043BF3E7452C00D170E70C
:1010B000392C00D0DEE66CE7527D7F2A00D1D9E6DC
:1010C000A25C7F2A00D8D5E61E2288E7F7BDC0467D
:1010D000EF24030040250300F0B50022060085B090
:1010E000130044339B009B5D7F2B31D05B4CE35C52
:1010F000DB072AD51300511EC9B244318900584F6D
:101100007118013BDBB2002B23D008787F2803D075
:10111000385C04397F28F4D999007118FF31487C74
:101120007F280ED02027255C3D4204D04C4D285C02
:101130000425284205D0887C4508AC46013060442F
:1011400088740133DBB29342E6D10132D2B2C7E7F1
:101150000023022712E06B0708D4EB070DD5624687
:10116000FF32937CD9085B1A937406E0039B039AC1
:101170009B7B99080133CB189373029B9A00B2189A
:101180001100FF3194464A7C7F2A64D034485D1CAC
:10119000845CEDB2029565B2002D21DA029A9200CC
:1011A000B218FF320392527C0192855C019C2A00A6
:1011B00041257F2C00D0150040242242CBD1019C38
:1011C000123C012CD9D840220233DBB244339B00BD
:1011D0009B5DC35C1342D0D08B7C013B8B74CCE70E
:1011E0001E4DAA5C08252A420ED0029B9B00F318D4
:1011F000FF335A7C7F2AC0D0825C3A42BDD006229F
:101200009A7405229A73B8E73C421AD00133DBB2D4
:101210001A0044329200925D002AF7D07F2AACD0A7
:101220000F498A5C3A42A8D09B00F318FF339A7C9E
:10123000520801329A746246FF32937C5B08013394
:1012400092E710231A4298D04B7BC35C3B4294D068
:101250008B7C023BC2E705B0F0BDC04640250300D1
:10126000EF24030070B50400FFF7E0FB2000FFF758
:1012700083FC23000022FC33DA601A61904226D0FE
:101280002500224E11353368FF35934203D02900E3
:101290001F4808F057FE2000FFF7E2FD2000FFF78F
:1012A0004BFC2000FFF712FD2000FFF715FF200088
:1012B000FFF724FDC4222B009200A1181A78502AAF
:1012C00006D97F2A07D00020124B134A1A6070BD3E
:1012D00004338B42F2D13368002B02D00F481FF049
:1012E0003FFD2000FFF7CCFB3368002B03D0290023
:1012F0000B4808F027FE200020F01CFC054B094994
:10130000186828F055F843425841E0E7642A002065
:101310009724030004000020A6240300CC2403002B
:10132000DC2403005D240300F0B5802787B02B4D3B
:1013300002907F422C78002C1CD063B2002B12DA72
:101340006E787C40E4B2002E14D0013CE4B2FF2C55
:1013500002D101350135EDE704AB981D012106707E
:1013600012F0CCF9F1E704ABD81D0121047012F0A2
:10137000C5F9EFE70527029825F0E7FB0124BC42F9
:1013800027DA0025164E22002900300004F08AFBDF
:101390006B4601901B79002B15D0631E1A002900A3
:1013A0003000039304F07EFB031E0CD122002900C1
:1013B000300004F043FBFF22019B29001340300062
:1013C000621E04F03BFB0135052DDBD10134E4B294
:1013D000D5E7013F002FCED107B0F0BDD9260300DD
:1013E0001000002010B5C820FFF79EFF004810BD78
:1013F000A8C8020070B5FFF7F3F80F4C0F4B00259B
:10140000A3620F4BE562636323002563A8330321C6
:101410000C481D60A5640DF03DF90B4E0121300014
:101420000DF038F93000094A094923F00EFE266014
:101430006660E56570BDC046782E0020E4D40200E9
:1014400078950200B02E0020C42E0020760F0000F8
:10145000860F000070B50624134EC3001C4373684A
:10146000002205002100181D03F0F8FA021E18D111
:10147000F06D002807D00430210003F0EFFA0028B7
:1014800001D0406870BD00222100084803F0E6FA50
:10149000021E06D12A00064906480EF09BFAFFF705
:1014A0008BFA5068EEE7C046782E002098C1020003
:1014B0009E28030098D502000A4B10B50400186856
:1014C0005B6898420AD00621E300194304300022E9
:1014D00003F0C4FA002801D0406810BD2000FFF7D7
:1014E000B9FFFAE7782E0020074B10B5D86D002819
:1014F00001D1064810BD04300022054903F0AEFAC0
:101500000028F6D04068F5E7782E002060C0020081
:10151000DE0E00000A00C100062010B5024B014398
:10152000186823F092FD10BD782E0020062110B51A
:10153000034BC0000143186823F091FD10BDC04665
:10154000782E00200A00C100062010B5024B01438E
:10155000586823F07AFD10BD782E0020062110B5C2
:10156000034BC0000143586823F079FD10BDC0460D
:10157000782E002037B505000C00062806D108009B
:1015800004F0F8FC00280DD02C483EBDCB071BD53D
:101590004B10042816D818F03DFD03154E4E0700D9
:1015A000002BF1D02648F0E7C0221206934204D166
:1015B0008020C00526F086F8E7E75B425B0001204B
:1015C0001843E2E7DB43F9E702281AD11D4B0B4031
:1015D000062B08D08B0714D10A681B4B92699A42DC
:1015E0000FD1486802E0C80820F050FA002806D160
:1015F00001A9200005F096F80199FEF7DFFF4300EE
:10160000DDE7200004F090FA4369002B0DD10F4B69
:10161000AD002000ED5821F0D7FC2A0003000C4952
:101620000C480EF0D7F9FFF7C7F9210028009847BA
:101630000028AAD1EBE70800A7E7C04680DE020039
:1016400088DE0200070080FFFD7400005CB102002C
:101650002A29030078D70200F7B50400019116008B
:101660001F0004F061FA0569002D09D1200021F066
:10167000ABFC0649020006480EF0ACF9FFF79CF9F6
:101680003B00320001992000A847FEBD312803002D
:1016900078D70200F8B50E0015001C00930714D18E
:1016A00013681E4A934202D16B682360F8BD1C4A3E
:1016B000934207D1002802D004F036FA06006B6886
:1016C00048C4F3E7174A934201D12560EEE75A6810
:1016D000022117008F4314498F4202D013498A42D6
:1016E000F3D1002817D1124A93420BD0114A9342EA
:1016F00008D0114A934205D0104A934202D0104AB2
:10170000934208D10C2025F09CF80E4B46600360F4
:1017100085602060CAE725606060C7E7A8B0020066
:101720006CB0020020B10200450200001A02000065
:10173000C0A50200FCA5020038A6020074A60200A3
:10174000B0A60200ECA20200F8B5002313605360BB
:1017500006000D00140004F0E7F9F92307005B0010
:101760009D4205D1836A002B02D00F4B48C4F8BDBF
:10177000FB69002B04D02200290030009847F6E7CF
:10178000B86B0028F3D00621ED00294304301A007D
:1017900003F064F90028EAD04268230039003000E1
:1017A000FFF778FFE3E7C04628C1020070B51600D6
:1017B00004000D00FFF7C8FF3368002B15D10B4E56
:1017C000A3070BD10A4B22689A4207D12B0062680B
:1017D000084930000EF0FEF8FFF7EEF8200021F087
:1017E000F3FB2B0002000449F3E770BDC8D20200EE
:1017F00020B10200B7280300DE28030073B50400FF
:101800000D00160004F090F9C369002B09D00422E2
:101810000196009229006A4620009847009B002B01
:101820000AD0200021F0D0FB2B000200034904481D
:101830000EF0D0F8FFF7C0F873BDC046DE280300F5
:10184000C8D2020073B504000D0004F06DF9174B07
:10185000426A06009A4226D0002D03D1102024F0BF
:10186000F0FF0500736A002B12D1E6216A46FF31B2
:101870002000FFF769FF009B002B0FD1200021F013
:10188000A3FB0B4902000B480EF0A4F8FFF794F8F5
:101890002900200098470028E7D076BD2900684637
:1018A0000DF0B2FBF9E72000F7E7C046F52F020084
:1018B0004D28030078D7020037B5040004F034F94E
:1018C000856A002D02D02000A8473EBDF9216A4656
:1018D00049002000FFF738FF009B002B05D06A4627
:1018E0002900280020F061F9EFE7200021F06CFBCF
:1018F0000349020003480EF06DF8FFF75DF8C0469B
:101900007F28030078D7020030B505008FB001F0C2
:1019100059FC280004F008F9846A002C05D028003E
:10192000A047040020000FB030BDF9216A464900ED
:101930002800FFF709FF009B002B16D002A8FFF735
:1019400015F8002807D16A46010020F02EF904009E
:10195000FFF72AF8E6E7039B0849186802F012F837
:101960000028DFD10398FFF727F8280021F02CFB8F
:101970000349020003480EF02DF8F4E7C4D6020034
:101980007F28030078D70200F0B513688FB0079363
:10199000002800D073E00400131D0393FF220B0006
:1019A000090A1340114001934B000693069A019BCC
:1019B00005919B18039A9B00D2580492039AD3185E
:1019C0005F68381E09D00020BB0706D1944B3A68E7
:1019D0009A4202D1380023F035FB059B1818049B6E
:1019E0004600002B50D1019B581C8319980000938E
:1019F00024F027FF26000500002C01D001260460FA
:101A0000019BB0009A002818039927F06BFC019BFA
:101A10009B190293029B9800059B2818DA00019BF2
:101A20009900039B591827F05DFC029A069B944687
:101A300063440193002F12D003243C4000D0A9E05E
:101A4000774B3A689A4200D0A4E0380023F012FBAA
:101A500003230600009373689C4200D27DE0019B43
:101A6000029A02999A1A52082B000798FFF7F4FD80
:101A70000400280024F014FF20000FB0F0BD130074
:101A800008330393546889E7049B9B072FD1049B79
:101A9000644A1B68934202D0634A934227D10AAA40
:101AA00009A9049804F0CAF9099B581C019BC018A5
:101AB00083199800009324F0C4FE26000500002C32
:101AC00001D001260460019BB0009A0003992818F8
:101AD00027F008FC019B0A999819099B80009A003D
:101AE000281827F0FFFB019B099A9B1890E7019BA0
:101AF000181D83199800009324F0A3FE260005000A
:101B0000002C01D001260460019BB0009A000399CB
:101B1000281827F0E7FB019B0AA99B190498029358
:101B2000FFF790FE029B04909C000498FFF7ECFEE8
:101B3000061E00D16EE7009B029A934207D8D90097
:101B4000280024F09CFE0500009B5B000093029B94
:101B50002E51013302930434E7E7B368E700D85904
:101B6000002815D0042813D0009B184205D12F4B14
:101B700002689A4201D121F016FC019B019A9B0058
:101B8000E85002320192B268EB18D7197A685A60AD
:101B9000013460E70AAA26493800FFF707FE002152
:101BA0000AAA080020F001F80021FFF74BFE019B74
:101BB00003909E000398FFF7A7FE041E00D14EE796
:101BC000019B009A01339A420BD853000093042BD7
:101BD00001D204230093009B2800990024F04FFEBB
:101BE000050003231C4207D1104B22689A4203D1FF
:101BF000200021F0D8FB0400E6210AAAFF313800BA
:101C0000FFF7D4FD0AAA002101200C941FF0CDFF9C
:101C1000019BAC5102330193AB1958600836C9E7F8
:101C200060CC020080950200D8BF020094C402007C
:101C30006B02000070B50C0086B0160083071CD143
:101C40000368204A934202D01F4A934215D102AA48
:101C500001A904F0F3F8019BA3422CD31BD8002365
:101C6000029DA000A34201D106B070BD9900421AA6
:101C7000043AAA5801337250F4E702A9FFF7E2FDD3
:101C8000002305000193019B2800A34206D3FFF720
:101C90003BFE0028E8D022000C490EE0FFF734FE9E
:101CA000002808D0019A0A49A31A5B189B00013248
:101CB00098510192E7E7019A064907480DF08AFE1C
:101CC000FEF77AFE80950200D8BF02006B29030060
:101CD000FFFFFF3F48290300F0D70200F7B5FF24BC
:101CE0000E00090A264015000C40830731D1036815
:101CF000384A934202D0384A93422AD101AA69460F
:101D000004F09CF80098331983425BD883009C460A
:101D1000002301999A00A3420FD1B400801B091936
:101D2000C01AAD1821F0E1FD019B28601C190023A9
:101D3000013601339E4207D1F7BD6746BF1A043F03
:101D4000CF590133AF50E5E79A0051426158A9508D
:101D5000EFE70021FFF776FD002307000093009BCB
:101D6000B34218D30021080021F0BFFD060038005F
:101D7000FFF7CAFD011E1BD1B168A14222D3A30007
:101D80008A00EB181E60AA18091B9D4214D130006E
:101D900021F0C7FDD0E73800FFF7B6FD002811D0CD
:101DA000009AB31A1B199B00013258510092D6E7D2
:101DB000300006F0C5FADAE7F468D01A2058043B80
:101DC0001860E2E7009A054905480DF003FEFEF7AA
:101DD000F3FDC04680950200D8BF020048290300E9
:101DE000F0D70200F0B591B01D0006000C001700FE
:101DF00003F09AFE334B984207D12B003A002100A2
:101E0000300010F01FF811B0F0BD826A2E4B002A8E
:101E100008D09C4230D13000904728600028F2D092
:101E20000120F0E79C4227D1F92101AA49003000A6
:101E3000FFF78AFC019B002B0DD1D72101AA490095
:101E40003000FFF7B3FC039401AA002101201FF02A
:101E5000ACFE2860E4E704A8FEF788FD002807D15F
:101E600001AA01001FF0A1FE2860FEF79DFDD7E743
:101E7000059B2B600220C6E7002CDED1380003F062
:101E800053FE124901F07EFD01AA00280ED0104930
:101E90003000FFF759FC019B002B10D001AA210054
:101EA00020001FF082FE28602000ACE709493000C6
:101EB000FFF74AFC019B002B01D00397C4E72F607A
:101EC000D8E7C046DCE10200A8C80200B8D302008F
:101ED00019020000CD02000010B504000DF0C0FD95
:101EE000002808D0002320001A001900FFF7B4FBD7
:101EF0000400200010BD200023F01AFB0028F8D1B8
:101F00000249034823F010FBF2E7C0460029030012
:101F100078D702007FB5C30006201843054B019017
:101F20000491052001A902930393059209F034FF5F
:101F300007B000BDA8C802001423F0B58DB000AFF3
:101F4000FA1805000C00FFF7FFFBBB69002B06D059
:101F500022002C492C480DF03DFDFEF72DFD78693F
:101F600000284CD1280022F087FE0028F0D014234E
:101F7000F821FA1828004900FFF7E6FB10227869DB
:101F8000B91804F0EDFFB86020001FF084FD6A4628
:101F90003E69B968731C7B60C318FB600E33DB08B5
:101FA000DB00D31A9D466D463200280027F09AF9CF
:101FB0002E23AB557B682000EB18BB601FF070FD33
:101FC000060020001FF067FD31000200B86827F00E
:101FD00089F9F9682800FEF741FBC3000620184381
:101FE0000A4B10223B627B62094BBA18BB62012389
:101FF000FB620B33F861D118052009F0CDFEBD4618
:102000000DB0F0BD69280300F4D30200A8C8020097
:1020100088DE0200F0B5174C0F00616895B003919F
:102020002168060008A8049162602360FEF79EFC08
:10203000051E06D0039B09986360049B2360FEF78E
:10204000BBFC33683A00310005A8019305F020FF7E
:102050002B002A00019905A809F0EEFC1FF096FD5F
:102060000500FEF7A1FC2800039B6360049B23602E
:1020700015B0F0BD782E002010B504000BF03AFC2E
:10208000031E054802D005491FF0CBFD220004497C
:102090000DF0A0FCFEF790FC5CD502008F2703003A
:1020A000B8270300010010B501481FF0BAFDC04673
:1020B000F0D70200F0B58BB004900F0003922028F7
:1020C00003D191420FD0AF4EBFE0049B1B2B01D038
:1020D0001E2B0DD10399380003F0BCFD049B002892
:1020E00003D01B2BEFD1A84EAFE01B2BFBD1EAE7AF
:1020F000049B212B3FD103980DF0B2FC002806D0A1
:102100000399380023F01AFA0028ECD1DBE7032406
:10211000039B1C4005D1039A9C4B126805929A427E
:1021200023D0049B9A4A9B0038009C5820F04CFF17
:102130000500039820F048FF2B00009022009549ED
:1021400095480DF047FC47E1039AA300D3189D681A
:1021500028000DF085FC002800D158E12900380046
:1021600023F0ECF90028BED10134039B5B68059392
:10217000A342E9D8A7E70126314200D116E1039B2B
:102180004D101E4000D1E7E05C10049B1D2BC8D809
:10219000180017F049FF1E0028002A002D004500F6
:1021A0004C004E0050005D0066007B008300B400D0
:1021B0001E0028002A002D0045004C004E00500053
:1021C0005D0066007B008300CC00D000C6FFD40019
:1021D000D80025432E0070000300734000D5B6E000
:1021E0000126064331E06540F4E72C402600F2E783
:1021F000002C02DA6948FFF755FF1F2C08DC684BFA
:102200002341AB4204DBC0231B062341AB4205DD67
:10221000E917280025F047FA07004BE0A540D9E769
:10222000002CE7DB1F2C00DD1F242541D2E72E19EF
:10223000D1E72E1BCFE72100280012F067FD002810
:10224000E6D1012665436D002E4330000BB0F0BD92
:10225000002C00D1DDE02100280025F064F8060004
:10226000B9E7002C00D1D4E0280019F06DF8051C66
:10227000200019F069F8011C281C18F061FB0323E9
:1022800002269843474B0643F618DEE7002C00D1A0
:10229000BFE02100280025F036F8E0E72F00002CF1
:1022A0002ADA280019F050F80323022798433D4BFF
:1022B0000743FF18380003F037FC8369002B00D177
:1022C0002FE7039A39000498984756E001231C42EF
:1022D00006D03900300012F019FD002898D17E4355
:1022E000012C00D177E739003800641012F00EFDA0
:1022F000002800D08CE77F43002CE7D16BE7002C4F
:1023000000D186E000210220FDF7A2FF2100060097
:10231000280025F008F8012740003843B06021006C
:10232000280024F0F0FFB8400743F7608DE7A5428E
:1023300000DAD8E6C7E6A54200DDD4E6C3E6A5424A
:1023400000DCD0E6BFE6A54200DBCCE6BBE6300011
:1023500025F0B8F9060078E70323039A1340022B0F
:1023600024D1114B1340062B20D0280018F0ECFF8D
:10237000039A011C04980FF0FFF9061E00D064E7D1
:10238000CFE6C04680DE020088DE020080950200B3
:10239000D4AF0200FB27030078D70200E627030032
:1023A000FFFFFF3F00008080070080FF049B1F2B82
:1023B00000D07FE7039803F0B7FB83690400002B8C
:1023C0000CD1636A002B11D1039820F0FDFD134955
:1023D000020013480DF0FEFAFEF7EEFA3A000399F8
:1023E00004989847061E00D02FE7EAE706A903984D
:1023F000FFF728FA04002000FFF786FA002800D132
:1024000061E6390003F026FC0028F4D06BE6039562
:1024100087E6044904481FF004FCC0464D28030029
:1024200078D70200202803002CD80200010010B544
:1024300001481FF0F6FBC04678D70200F8B504004B
:102440000D0017001E00002908D0186803F06CFB6F
:102450006368834202D00548FFF7E8FF33003A0083
:102460002900A068FFF7F8F8F8BDC04677270300F9
:1024700001214000014310B5024823F04EF8FEF759
:102480009BFAC04610D60200010010B501481FF0AB
:10249000C8FBC046D4D50200054B10B5186825F01E
:1024A000D6FB044B002800D1034B180010BDC046DA
:1024B0006029002088DE020080DE020010B5034B98
:1024C000186825F0CCFB024810BDC04660290020EA
:1024D000A8C8020010B5034B186825F02EFC25F0A3
:1024E000F1F810BD6029002010B5034B186825F0E5
:1024F0002BFC25F0E7F810BD6029002010B5034B38
:10250000186825F028FC25F0DDF810BD60290020B2
:1025100010B5034B186825F0D3FB25F0D3F810BD98
:102520006029002030B593B006F0FAF9184C20006D
:1025300025F0D3FF174D286814F0A0FB200025F0EC
:10254000D1FF06F0DDF920F031FD1FF074FB04002F
:10255000296803A825F071FB0F4B20000A93039B09
:102560000B93049B0C93059B0D93069B0E93079B6B
:102570000F93089B1093099B019311931FF050FC3C
:10258000200020220AA900F0D3FD044813B030BD7A
:10259000682900206029002055BA11C0A8C802008F
:1025A000F8B5114D0400286825F051FB002802D130
:1025B0002000FFF7B7FF0D4B1B78002B0DD10C4E01
:1025C0003478E4B2002C08D10127286837700368FA
:1025D0005B689847054B34701F70286814F02AFC1C
:1025E00025F070F8F8BDC04660290020C62D0020F7
:1025F000C72D0020F0B58DB01FF01DFB0E4B0268FB
:102600009A4217D104694168089444698268C36892
:1026100009948469C0690A9484466C4605910692BF
:10262000079308A8E0C8E0C460462060034800683B
:1026300025F0EDFA0DB0F0BD55BA11C060290020AB
:102640000048704784A402000139C9B2054B401804
:1026500080301970044A03781370044AD25C044B2A
:102660001A707047C92D0020CA2D0020CD3B0300F1
:10267000C82D00200131C9B2054B401880301970B7
:10268000044A03781370044AD25C044B1A707047F2
:10269000C92D0020CA2D0020CD3B0300C82D0020ED
:1026A000074B984206D9074B1818074B4118C91811
:1026B00008787047054B18184118054BF7E7C046D6
:1026C000A49200000E3A03005B6DFFFF222A030074
:1026D0000083FFFF03002022F0B57F254F265F27F0
:1026E000803304001A7089B003007F3019780A0023
:1026F0002A406F2A26D90A003A4019000133813155
:102700000A709842F2D17F22B64B1A702300643AC5
:10271000FF331A70E4320292531CB348DBB20493C5
:102720000370E31880331B78B0490B705B2B0ED11C
:102730009B22029B0A700133DBB20370E25401203A
:1027400009B0F0BD5F2AD8D90A003240D5E72E2B58
:1027500013D10232D2B20270A21880321278A1488C
:102760000270A348825C0120024206D1029A0B70DB
:102770001218D2B20292A354CEE10220994A1370E9
:102780009B4AD25C104000D0A1E0002A15D19648A7
:10279000203203780A70E31880331A70029B0133E9
:1027A000DBB202930370782B01D8E254B4E19B238F
:1027B000029AA354049B0B70C1E716007F2552B206
:1027C000AE430E70002A03DB8A4B8B4A1A60B7E7D0
:1027D000413B8A4ADBB28A49D25CCB5C120213438A
:1027E0000393039B002101339BB218000393FFF76F
:1027F00057FF0306F5D5012300260127794D2B70DD
:1028000039000398FFF74CFF7B1CDBB201932828AB
:102810005FD1002E00D02F702D780135EDB2290048
:102820000398FFF73DFF6B1CDBB2292854D17F26AC
:10283000069306990398FFF733FF069B3040013358
:10284000DBB23D284AD10026684B049A1870664BCB
:102850001A70644B019A1A70049B0593059B0199A9
:10286000E31880331B7803980793FFF719FF079B42
:102870009842B6D1019B0133DBB20193AB422FD119
:10288000002E02D0584B059A1A70049D013FFFB2EA
:10289000544B390003981F70FFF702FF534E030695
:1028A00000D509E1504B7F211870514B1B5C1A0079
:1028B0005BB28A433270002B18DA4B4B013DEDB20C
:1028C0001D70631980331B789842DFD089E74D4B28
:1028D00086E70126019F93E71D00A0E70693A8E77E
:1028E000059B01260133DBB20593B7E73070202842
:1028F0001BD0232825D02E282CD0262832D04028A3
:102900004ED05E2856D02B285CD03A2800D02EE13D
:10291000202629002000FFF797FE344A1378334021
:102920001370B3D0304B1D78F3E729002000FFF778
:102930008BFE0023F356002B00DA52E72A4B1D785A
:10294000A4E729002000FFF77FFE402233781342DE
:10295000F4D146E729002000FFF776FE33781B0705
:10296000ECD43EE729002000FFF76EFE10223378FA
:1029700013403370E2D11C4B1B78E1188031097889
:102980003170482900D02CE7013B1749DBB20B70AE
:10299000E31880331B789343432B00D021E7CDE726
:1029A00029002000FFF750FE0422337813403370D3
:1029B000C4D116E729002000FFF746FE33789B06B6
:1029C000BCD40EE7084B013DEDB21D706519803592
:1029D0002B78452BB2D010229343492B00D000E72F
:1029E000ACE7C046CA2D0020C92D0020C82D00200C
:1029F000CD3B0300040000200E2A0300533C0300DB
:102A0000393C0300A59200006B1C924ADBB21370A4
:102A1000E31880331B7890490B70452B36D1A81CE6
:102A2000C0B2231880331B788C4E33708C4EF65610
:102A3000002E02DB874B1D783FE010700B70522B8D
:102A4000F8D0532BF6D0442BF4D04C2B08D10335BF
:102A5000EDB21570651980352B78592BEAD0C0E698
:102A6000462B00D0BDE6EB1CDBB21370E3188033BD
:102A70001B780B70552B00D0B3E60435EDB2157002
:102A8000651980352B784C2BD4D0AAE6492B00D081
:102A9000A7E6AB1CDBB21370E31880331B780B7016
:102AA0004E2B00D09DE60335EDB2157065198035CB
:102AB0002B78472BBED094E6059D019B03980133EC
:102AC000DBB20193019A654B11001A70FFF7E8FD24
:102AD000019B069A5F4F934220D100257F272E004D
:102AE00001990398FFF7DCFD03003B403D2B04D028
:102AF000029A0132D2B20292A354019A0132D2B2A6
:102B0000010600D4A2E0002E02D0544A01991170AF
:102B1000514A1370059B0493049AFDE5504B7F21A5
:102B20001B5C4D4E1A005BB28A4338703270002B2A
:102B300008DA0135EDB2631980331B783D708342AA
:102B4000BBD04EE63070202816D023281ED02E2869
:102B500026D026282DD0402848D05E2851D02B28BA
:102B600058D020263A2864D0252800D14CE73D4B88
:102B70003D4A00201A60E3E529002000FFF77AFDB6
:102B80000023F356002B00DB54E72AE6290020003F
:102B9000FFF770FD40223378134200D04AE720E669
:102BA00029002000FFF766FD33781B0700D541E7B9
:102BB00017E629002000FFF75DFD1022337813404F
:102BC000337000D036E73B78E118803109783170F6
:102BD000482900D005E60133DBB23B70E3188033AF
:102BE0001B789343432B00D0FBE523E7290020000B
:102BF000FFF740FD042233781340337000D019E70B
:102C0000EFE529002000FFF735FD33789B0600D55E
:102C100010E7E6E50135EDB23D70651980352B789A
:102C2000452B00D106E710229343492B00D0D8E56D
:102C300000E729002000FFF71DFD074A1378334005
:102C4000137000D139E7034B1D78F2E7019201269A
:102C500046E7C046C92D0020C82D0020CA2D0020FF
:102C6000CD3B030004000020182A0300F0B589B012
:102C7000002807D1664B6748196823F0A2FF664811
:102C800009B0F0BD0D68654B9D425BD10021080085
:102C900020F02BFE002405000590614B5A6801923C
:102CA000944217D300255F4A05A9012005F0A8FB2F
:102CB00007AA06A9059820F02FFE069B03339B0860
:102CC00001939B000393019B524EAB4210D1564996
:102CD0003000D2E79B680193019AE30099580029DC
:102CE00004D0042902D0280005F02AFB0134D4E7DF
:102CF0002F00AB000293079B029A985804F01AF930
:102D00000100300023F05DFF019BFF18069B9F42EE
:102D100012D212231C1A002C07DD013C07D2039AA1
:102D2000029B944663440293E5E71234F3E73F497C
:102D3000300023F046FFF0E73D49300023F041FF2B
:102D40000135C0E7280002F0EFFE3A4B42689A4294
:102D500000D16D6828000DF0ADF8061E00D08EE79A
:102D60002C4C3549200023F02CFF3100280002F0C4
:102D70000DFF280020F028F930490200200023F040
:102D8000E1FFAB0732D12B682D4A93422BD12800AB
:102D900023F0F7FE22F06EF900250600A84200D1CC
:102DA0006DE773689D4200D369E7B268EB00D31802
:102DB0001F68002F15D05B6822492000019323F083
:102DC00000FF0021380002F0E1FE1F49200023F03F
:102DD000F8FE0021019802F0D9FE1549200023F0E9
:102DE000F0FE0135DDE7194A934203D0280002F0D6
:102DF0009BFE0500A86B002800D140E7830700D0A8
:102E00003DE7134B02689A4200D038E7C2E7C0465C
:102E1000640000200CE90200A8C80200461400006B
:102E200030E60200ACB602006D3C0300EB8203000A
:102E3000270503000D020000913C0300993C0300AC
:102E40000CE70200EA820300A93C030020B1020063
:102E500060CC02000379044AD35C002B00D1837953
:102E60000248DB00C0187047CB2D0020E8A4020008
:102E700010B50400FFF7EEFF22790368024903480A
:102E80000CF0A8FDFDF798FDAE3C0300F0D7020062
:102E9000002803D001210379014AD1547047C0466C
:102EA000CB2D002010B5FFF7D5FF034B4068C01AAB
:102EB000431E9841C0B210BD712E000070B50600CF
:102EC0000C00FFF7C7FF0C4D2B002833984204D1AC
:102ED0002A001032002394420BD00023A04208D0D5
:102EE000436830009847641B3379044AE410D45493
:102EF0000123180070BDC046E8A40200CB2D0020BD
:102F0000F0B5060087B000AF7B60F960BA6000F0F2
:102F100059F9B06821F010FF3861B06821F012FF54
:102F200021F00AFF032358433B69C01883001D00AA
:102F30007B6114352C2B2CD86B460E35ED08ED003B
:102F40005B1B9D4600236C467B610023266063600B
:102F5000BA687B68F968200009F0F2FB154D002182
:102F60006B682000236173686B6009F08FFD236933
:102F7000061E6B6013D1A3681D687B69002B04D00B
:102F8000200023F08DFC002E11D12800BD4607B093
:102F9000F0BD280023F062FC041ED6D1CCE73B69CB
:102FA00003339B00E3185D687B69002BE8D12800A0
:102FB000FDF702FD782E00200122030030B51340FA
:102FC00085B004004510002B14D125491D0088420E
:102FD00010D0244988420DD0234B1500984209D0C7
:102FE0000323034009D1214A0168914205D124F00D
:102FF000A6FB0500280005B030BD1D4A2500224073
:10300000062A05D0002B08D11A4B22689A4204D117
:1030100001A9200003F0A4FFEBE7200002F084FDEB
:10302000154B984207D1FF23DB05E0180323984393
:1030300018F06AF9DDE7114B984202D0104B984224
:1030400006D101AA6946200002F0F8FE019DD1E7F1
:10305000022201A920001FF0CEFF0028CAD0F5E708
:10306000A8C8020080DE020088DE020078E30200C9
:10307000070080FF94C402006CDF0200809502000C
:10308000D8BF0200F7B506000F0000920193041E9E
:1030900000D044683800431E984120180430800056
:1030A00023F0CFFB0C4B050003600C4B5B684360C7
:1030B000009B8360019BC360002E05D03100A200FD
:1030C0000831103026F00EF9002F02D00434A4008D
:1030D00067512800FEBDC04684A50200782E00205E
:1030E00070B5060010200D00140023F0AAFB034B5E
:1030F000466085600360C46070BDC04648A502009C
:10310000F8B5050010200C001F00160023F099FBF5
:10311000054B44608460A4190760C4606B60034B76
:103120002860AB60F8BDC046DB1D0200F11D020047
:10313000F8B50E000500140005F0F2FB330003277C
:103140002B433B420BD1BC4209D9A20831002800D5
:1031500015F08AFE2300BB43ED18F6183C40002C06
:1031600004D022003100280025F0E6FC802204492A
:10317000D2008B58002BFCD005F0C2FBF8BDC04636
:1031800000E00140014BD8607047C046782E002017
:10319000034B82B0D86801ABC01A02B07047C0467A
:1031A000782E0020014B18617047C046782E002011
:1031B00010B54E21024822F0B0F9FDF7FDFBC046E4
:1031C00088D6020007B5054A01ABD1681269CB1A4F
:1031D0009A4201D8FFF7ECFF07BDC046782E0020C9
:1031E000F8B5124A0E00124B124990421AD0C46828
:1031F0008C4203D0012430602000F8BD406B0028D1
:1032000012D004689C42F0D10500002447680835BC
:10321000BF00EF19BD42EFD2310001CDFFF7E0FF53
:103220002418F7E70024E7E70400E5E79CE4020040
:103230008095020029330000F7B505000C00AB684B
:10324000002B0AD0344AE168914206D0E358002BA3
:1032500003D00422EB681A60F7BDA06B002820D0D1
:103260006B680430D90006230022194301F0F6FBF5
:10327000002816D0297C4268EB682868002904D011
:1032800001000020FEF706FAE6E7002807D02249F1
:10329000E5688D4203D021498C4200D000692100AD
:1032A000F0E72B68002B16D1646B002CD4D01C4B9C
:1032B00022681A4F9A420BD126006368194A0836D1
:1032C0009B189B00F3180193019B34689E4216D310
:1032D000BC42B4D1C0E72A7C002AE5D10E4AE1689D
:1032E0009142E1D00D4A9442DED01869EA686968DB
:1032F000FEF72AFAEB681B68002BD5D0ACE7BC427E
:1033000001D10436E0E721002800FFF795FFEB68C4
:103310001B68002BF5D09FE7293300009CE40200D6
:1033200080950200FFFFFF3FF0B58FB00E0005A9AA
:10333000019202930700FFF753FF041DA400200031
:1033400023F07FFA0500002180C01FF06EFC2200F0
:103350002800103A1030002125F0E0FF012E05D1A1
:10336000029B1B680393042B00D189E007AC082261
:103370000021200025F0D2FFF222002309A8FF320D
:103380004260E63AFF3A39008260C46003740993F0
:10339000FFF752FF079804282FD10598029BC468B5
:1033A000019A3100A0472861280002F0BDFBB84215
:1033B00066D1EA220023FF32390009A80893079357
:1033C0000B9309950A92FFF737FF079B002B57D005
:1033D0000198304336D107AA01001EF0E6FB040035
:1033E000294B9C424CD020001FF0EEFD27490200E3
:1033F00027480CF0EFFAFDF7DFFA0028D4D0019A45
:10340000324306D106AB01210697FEF725F90500E8
:10341000CAE7019B5D00AD190135AD00280023F01E
:1034200010FA2A1F0390029980C025F05BFF711CDF
:10343000039B019A2068FEF70FF90500039823F01B
:103440002FFAB1E7019B5C00A4190234A40020000C
:1034500023F0F7F922000700079B0299036003930A
:10346000089B083A4360083025F03CFF3A00019978
:1034700030001EF09AFB0400380023F011FAAFE789
:1034800028000FB0F0BDC046A8C80200F53C0300FC
:1034900078D70200F0B5146889B01700002C0ED15F
:1034A000436803AD82686960596B0392AC60EF605A
:1034B0002C74002905D111492800FFF7BDFE09B081
:1034C000F0BD0F4B0A689A4210D14B6808310E00CC
:1034D0000193019B9C42EED0A300F1582800FFF716
:1034E000ABFE3B68002BEAD10134F2E72800FFF77E
:1034F000A3FE3B68002BE2D1DDE7C0469CE402005E
:103500008095020010B54A68014923F01BFC10BDEC
:10351000EF3D0300F0B58BB005000E001400002154
:103520000822684625F0FAFE0021102206A825F0A0
:10353000F5FE202307936B46059508932968E02341
:10354000002C02D0042C10D1E623FF3305A80693EB
:10355000FFF772FE0221009F042F0ED122003100DE
:10356000286902F051FD0BB0F0BDFC2305A85B00FB
:103570000693FFF761FE0321EDE7381EF3D002AB9F
:103580000022029503960494FEF766F8042CEAD014
:103590000048E8E7A8C80200F0B5204B8BB08200D5
:1035A000D35803AF0C000822002106003800019315
:1035B00025F0B4FE019B05AD6B601423AB600023C6
:1035C000280021680594EF602B74FFF735FE0398FF
:1035D000042805D121693000FDF7CCFF0BB0F0BD08
:1035E00000280AD021001EF0D8FA022EF6D102F0EF
:1035F000AFFB440001202043F0E7022E01D0002061
:10360000ECE7E2232168FF3328006B60FFF714FE2C
:103610003B68002BF3D16400ECE7C0465CB10200CC
:10362000F0B55642564103238BB00C0001900021A7
:1036300017007642082203A81E4025F06FFE0823DB
:10364000079303AB0893002305ADF736FF362168D7
:1036500028002B7405940696FFF7EEFD039B002BC4
:1036600009D1002F07D1F733FF33216828006B60A1
:10367000AF60FFF7E1FD039804281AD1206902F03A
:1036800053FA154BC2689A4211D1002F07D0236814
:1036900058681EF005FA0100019823F092FA802282
:1036A0003A432169019802F057FA0BB0F0BD3A0095
:1036B000F7E7002805D021001EF06FFA0022010074
:1036C000F0E720001FF080FC23000200034901986E
:1036D00023F038FBE9E7C04695F80000C03C030042
:1036E00070B504000D000B4923F06BFA69680022E5
:1036F000200002F031FA0849200023F062FAA9689C
:103700000022200002F028FA0449200023F059FA90
:1037100070BDC046AD3D0300C2040300FA3D030086
:1037200010B5C468002C06D14268044904480CF066
:1037300051F9FDF741F9A04710BDC046B63D030061
:1037400078D70200F0B5154B89B016008200D55825
:103750000C000C2200210700684625F0DFFD18232D
:1037600003A84560836000256B462168C36003940D
:103770000574FFF761FD009B042B06D1320021691F
:103780003800FEF797FC09B0F0BD181EFBD06A4662
:103790002900012002961EF008FAF4E7D4AF0200D7
:1037A000F0B51700EE228DB004000393002307A8A4
:1037B00052004260CD3A05ADFF3A0E0021688260AA
:1037C000C560037405936B600794FFF735FD05989A
:1037D000002809D120001FF0F7FB0C4902000C481B
:1037E0000CF0F8F8FDF7E8F8039B042806D13A003E
:1037F00031002069FDF730FF0DB0F0BD00933200BD
:103800003B0069681EF0FDFCF6E7C0463128030066
:1038100078D70200F0B50D0085B001A907001600A9
:10382000280002AA1DF0F9FF00230199029899428D
:103830002CD13C2023F017F82A4B019A03602A4B25
:1038400004008360294B4760C360294B0361294B07
:103850004361294B8361294BC361294B0362294B87
:103860004362294BC362002A06D0029B1968096B88
:103870000163012A18D94563A66303A92000FFF755
:10388000AFFC012813D92148FEF7D0FD9A008258D9
:10389000D468002C06D152681D491E480CF09AF8D5
:1038A000FDF78AF80133C2E71B684363E4E7A36BC3
:1038B0000022181D184901F0D1F8051E0ED0032270
:1038C00043681A400AD11968144B4968994205D1D6
:1038D000031D012112481EF0FEFA6860200005B0A9
:1038E000F0BDC04620B1020021360000293300009F
:1038F000A13700009935000045370000491E02003D
:1039000015350000C91F02007F1F02007F3D030024
:10391000563D030078D702008E0F000045020000DC
:10392000A8B0020037B50D001C0000231100009361
:10393000012203332800FCF75FFF012D04D0032D83
:1039400006D00748FEF772FD206802F0EDF83EBD94
:10395000206802F0CFFEA2686168FFF75BFFF6E720
:10396000D33D03001FB5064B0A0001934B68029339
:103970008B68010001A80393FDF718FF05B000BD97
:10398000E4B00200F8B50E0003271349134AB04211
:103990001CD003003B401BD104688C421AD1406B01
:1039A000002814D003689342F1D1050044680C4B01
:1039B0000835E418A4002C192868A542E5D2310086
:1039C000FFF7E0FF002802D10435F5E70120F8BD3C
:1039D0000020FCE71800FAE720B102008095020001
:1039E000FFFFFF3FF0B585B00500019108008B0790
:1039F00017D10B68134A93420BD10123029301ABF9
:103A000003930024029E039FA6420DD10E4805B0E9
:103A1000F0BD0E4A934204D103AA02A91DF0FDFE97
:103A2000EFE70B48FEF702FDA300F958094B994256
:103A300006D02800FFF7A6FF002801D10134E3E7F4
:103A40000548E4E720B1020080DE02008095020014
:103A50001D3D03009CE4020088DE020010B58307D0
:103A600003D1054B02689A4202D00448FEF7DEFCFF
:103A7000FFF7B8FF10BDC04620B10200D23C0300E2
:103A8000F0B585B005001600080003AB02AA01A935
:103A900022F053F80398364FB84209D0032807D0D4
:103AA00002F02AF9B060002804D13248FEF7FAFA91
:103AB0000123B3600198B84229D10024B368A3421E
:103AC00000DC6C1E0298B84225D1B368002B47DD9C
:103AD0002800002C2ADA641901D5B368DC17002805
:103AE00034DA401901D501204042B368002B00DAD6
:103AF0000130B368002B2DDDA04200DA2000013B2D
:103B0000706058425841C0B2346005B0F0BD02F058
:103B1000F3F80400D6E702F0EFF8B368002801DB01
:103B2000DA0F8018002CD6DB002B03DDAC42D6D98F
:103B30002C00D4E7002BD2D0A54200D86C1E002860
:103B400004DA4019D4D501204042D1E7A842D0D9A7
:103B50002800CEE7002BD2D0A042D0DD601CCEE7FB
:103B6000002C01DA0020B6E700208342E4D1C0E750
:103B7000A8C80200FC3D0300F0B5060085B01700A0
:103B80001B2805D10A9A974209D0002005B0F0BD44
:103B900019281AD01C281AD00A9A0A9717001A0056
:103BA0000B0011000A9A0192BA4200D901971D0038
:103BB0000C0000230093009B019A934209D10A9BB9
:103BC000BB4220D0E1D30120E0E71A26EAE71D2618
:103BD000E8E70295039401CD02CC02F03BF80028FF
:103BE00002D0009B0133E5E71B2ECED0039B3000B3
:103BF0001A68029B1968FEF75DFA044BC01A43422B
:103C00005841C0B2C2E71A2EDDD1BEE788DE0200FD
:103C1000F0B51E0085B0039018680D00170001F084
:103C200083FF7368019002930024022F0ED90123B1
:103C3000B268290002F038F90400032F06D02900E9
:103C40000123F268019802F02FF90500A54202D87D
:103C50000848FEF727FA039AA3000299D05801F00A
:103C6000F9FF002801D10134F0E70120640020436E
:103C700005B0F0BD163E0300A3230021024A5B00FD
:103C80000248D1527047C046782E0020A8C80200D2
:103C9000A3230121024A5B000248D1527047C0466B
:103CA000782E0020A8C80200A323044A5B00D35A40
:103CB0000348002B00D103487047C046782E0020EF
:103CC00088DE020080DE020010B50BF05FF90148CB
:103CD00010BDC046A8C8020010B50C4C002808D181
:103CE000FC34236D18005A1C02D0180123F0EAFCA2
:103CF00010BD086802F000F8FC34031E044803DA23
:103D000001235B422365F3E71B09FBE7782E0020C4
:103D1000A8C8020070B505000C200C0022F091FD2F
:103D2000024B45600360846070BDC04648B202002B
:103D3000F0B5304B8FB007AE013800930431072344
:103D40000196FCF789FD0023B0682B4F0393B8421E
:103D500003D001F0D1FFC3B2039370691825B842B4
:103D600002D023F03EFC45B2B0691924B84202D01B
:103D700023F037FC44B23069B8420DD005AA0221C5
:103D800002F07EF8059B186823F02BFC059B45B2DA
:103D9000586823F026FC44B201210E00A022AE4058
:103DA000A140164BD205D75815483E430590D65032
:103DB000D6588E43D650134A03218550C45028004C
:103DC00025F089F92000032125F085F9079905A838
:103DD00015F034FD0A9B039A089905A815F03EFDDD
:103DE0000799094816F0B4F9084B013018800248C9
:103DF0000FB0F0BD20B30200A8C8020014050000F7
:103E0000002000400C050000C8320000BC2D00203E
:103E100010B50FF041FC034B002800D1024B1800F5
:103E200010BDC04688DE020080DE0200F7B50D003E
:103E300014001E00002A07D00FF02EFC002805D128
:103E40000B230124336064422000FEBD2E002F1995
:103E50000FF02EFC741C3070BC4213D00A4B1B8830
:103E6000009322F08AFE01900FF016FC2600002835
:103E7000EED122F082FE019BC01A009B8342F3D850
:103E8000641BE1E73C00FBE7BC2D002010B5034BB1
:103E9000186823F036FE23F015FC10BD5C290020C5
:103EA00010B5034B186823F033FE23F00BFC10BD54
:103EB0005C29002010B5034B186823F030FE23F076
:103EC00001FC10BD5C2900201FB500210320FCF778
:103ED000BFF90A4B0400196801A823F005FE0198F8
:103EE00023F0F0FBA060029823F0ECFBE060039865
:103EF00023F0E8FB2061200004B010BD5C29002005
:103F000010B502F0F7FB0023064A99008958814258
:103F100005D001330C2BF8D10348FEF7C3F8180085
:103F200010BDC0466CB302002D3E0300094A70B5B7
:103F30001378002B0DD1084D2C78E4B2002C08D159
:103F4000013313702B70054B186803685B68984742
:103F50002C7070BDEB2D0020EC2D00205C29002082
:103F600010B5FFF7E3FF054B186823F0F9FD044B8C
:103F70008000C3580620DB00184310BD5C290020D8
:103F80006CB3020010B50800FFF7BAFF0400FFF79A
:103F9000CDFF054B186823F0E3FD044BA04200D091
:103FA000034B180010BDC0465C29002088DE0200CB
:103FB00080DE020010B50800FFF7A2FF0400FFF743
:103FC000B5FF0123A340064A064811880B4200D1E1
:103FD00005481188994311800022044B1A7010BDC6
:103FE000BE2D002088DE020080DE0200F52D0020BC
:103FF000F8B5FFF79BFF134C13482378002B1FD015
:1040000020780021C0B2FCF723F9012600220F4FCF
:104010002378934212D915005308FB5C3540AD005C
:104020002B410F252B400A4D9B005B590625910023
:10403000DB0041182B438B600132E9E7002323703A
:10404000F8BDC046F52D002078950200ED2D00202A
:104050006CB3020070B543885A1E0A2A1FD8012586
:104060002A009A400F490888024392B20E480A80FB
:1040700002780F2A13D802780C4CEA40A25C06782A
:10408000D2B20F212E420BD00A401B0113430278FB
:10409000DBB25208A35403780133DBB2037070BD66
:1040A0008A43F3E7BE2D0020F52D0020ED2D0020E2
:1040B00010B50D4C206823F0CEFD002807D00B4B27
:1040C0001B78002B03D1206803685B6898470023A6
:1040D000074A1370074A13700DF0CAFD01F002FB86
:1040E0000CF0E8FA10BDC04660290020C72D002062
:1040F000C62D0020EB2D002070B5050094B00028DF
:1041000004D13F481CF02CFE14B070BD08A8FCF789
:104110002DFC041E19D12E68290004A8012203F0E9
:10412000B7FE23002200310004A807F085FC04003C
:10413000032010F013FD20001DF028FD0120404257
:1041400010F00CFDFCF730FCDEE70120404210F0DF
:1041500005FD09992B4801F023FD099801F0E4FCC5
:1041600029490400FFF70EFC0028CDD12749200083
:10417000FFF708FC0028C7D1099C01AA6946200066
:104180000BF0C8FC02AA322104A811F0BFF9009B71
:10419000022B05D9019B1E495A6802A822F0D2FDC4
:1041A000200001F0C1FC1B4BC2689A4210D1236869
:1041B00019495A6802A822F0C5FDE368002B07D010
:1041C0005A68002A04D00022996802A801F0C4FCB1
:1041D000032010F0C3FC04A823F080F90FF0CCFA00
:1041E00004A823F04FF90120404210F0B7FC0B4B1C
:1041F0009A6C002A00D187E700229A6484E7C046BF
:10420000733E03000CE902003CD70200E4D4020034
:10421000A03E030095F80000A93E0300782E002080
:10422000F8B54E4C1321200024F039FE2000032164
:1042300024F0CBFE4A4C01234A4A1321200015F0FA
:104240006FF801220221200015F09AF8464C200058
:1042500012F04AFA454F3860200012F061FC444DDC
:104260002860102024F0D4FF040029680025414E66
:104270003A68330012F09AFF3F4B1C603F48FEF74C
:1042800081FFE120C000FEF78DFF3D493D4809F068
:10429000F3FAFDF7AFF80FF0EBF901F053FF12F06E
:1042A00089F8300024F01EF91EF080FE11F0FCFCAD
:1042B00011F0D2FAFEF79EF90CF05CFB324C334859
:1042C000230088331D6004F03DFB04F019FB0CF063
:1042D00063FB2F4F3B78012B0ED1002307211A00DF
:1042E0002C4811F0E9FD031E1DD00100F72040000D
:1042F00011F06AFFFFF700FF3B78002B2AD10AF08C
:1043000065FD0028F8D0244822F012FC04F008FBD8
:1043100008220021214825F001F8230098348C332D
:104320001D602560AAE7F822920211784D2909D173
:104330005178502906D1F72052881949400021F0C0
:10434000C2F8D7E7012217491720FDF7E3FD1DF05A
:1043500047FCD1E70AF08AFDD3E7C0464029002098
:10436000582900208F220200E02900205C2900202B
:1043700060290020682900206429002000400020D6
:104380004029002040010020782E0020B14000008C
:10439000D8000020AD3E0300B53E0300F82E0020FB
:1043A00004E003007895020010B5084C084A062185
:1043B000200012F0CDFF074A0749200024F021FF1A
:1043C00000221E21054824F097F810BD682900201E
:1043D0006CB402000000002009730100E0290020F5
:1043E000F7B503780400002B1FD0402B20D1012308
:1043F0000193002304221E001D0019009446227818
:10440000002A3ED10132002910DC002D0EDC002EE6
:104410000CDC033B934209D9013C23785C2B05D08B
:104420000199002901D00A2B00D100221000FEBD05
:104430003F491DF041FF0028D9D13E4920001DF021
:104440003BFF0028D3D13C4920001DF035FF002858
:10445000CDD13A4920001DF02FFF0028C7D138499F
:1044600020001DF029FF0028C1D1364920001DF091
:1044700023FF0028BBD1344920001DF01DFF01900F
:10448000B7E76778272A11D1002B4DD0032B09D12C
:10449000272F05D1A278272A04D10234243AD31A2F
:1044A0000134ACE7012BFBD80122F8E7222A11D115
:1044B0001A006046824309D1222F05D1A278222A10
:1044C00002D102346246EAE7002B01D0022BE7D189
:1044D0000222E4E75C2A0AD1272F03D0222F01D041
:1044E0005C2F04D11A00571EBA41A418D8E7002B3C
:1044F000D6D15B2A12D006D8282A0DD0293A5742A5
:104500005741C91BCCE77B2A0AD07D2A0AD05D3AE5
:1045100057425741ED1BC3E70131C1E70135BFE702
:104520000136BDE7013EBBE7272FBDD1B2E7C0464C
:1045300063550300CF3E0300D53E0300D93E030080
:10454000341A03007B930300EF3C0300F0B58BB0FB
:10455000079343180390049201930093009B5C1E01
:10456000039BA34201D9009310E020780EF0E0FBFA
:10457000002801D00094F1E720780EF0E5FB002838
:10458000F8D123785F2BF5D02E2BF3D07D4B1D680F
:10459000009C019B9C4202D223782E2B21D1009BB0
:1045A000E71A019B9C4241D3002426000294019407
:1045B000AB68A34256D8019B002B00D084E0009B3F
:1045C000039A93422FD1704C3A002100180024F036
:1045D0007AFE002827D1079BE41907301C60C01B16
:1045E00022E00134D5E70136AB68B3421BD9F300B2
:1045F0000293EB68F20098580028F4D00428F2D017
:1046000009A902F0ADFC099B0100BB42EBD13A00C5
:10461000009824F0DEFE0028E5D1EB68029A9B1892
:104620005868002804D100200BB0F0BD0026DBE75D
:10463000032318420CD10368544A934205D122F057
:10464000A0FA0500631C0093A2E7514A934201D0EF
:1046500001F06AFA856B002DE5D04E4B2A689A422C
:10466000F0D0E0E7EA68E300985800281CD004285E
:104670001AD009A902F074FC099B06900593BB426D
:1046800012D301003A00009824F0A3FE00280BD1B9
:10469000029B002B12D03B009E4202D3059A9A4205
:1046A00004D2019B01330193013481E7029AD15C6A
:1046B000069AD25C914205D10133EDE7069B059E37
:1046C0000293EEE71E00ECE7019B012B01D0BE42F6
:1046D00054D9029B079ADB191360F01BA4E7029BD5
:1046E000EA68DB00985800283AD0042838D009A995
:1046F00002F036FC099B03900593BB4230D30100C6
:104700003A00009824F065FE0190002828D133007B
:104710000F220F33DC171440E41824112401A41BCA
:10472000012C00DC1034059A33199B18402B0DD94D
:10473000039A1949049822F005FB099E10E01749D5
:10474000049822F03EFA019B01330193019B9C42A5
:10475000F5DC0399049822F034FA099BF61836190F
:10476000029B01330293AB68029A9342B7D80C497B
:10477000049822F026FA0120404255E70023402603
:104780000293F0E7782E0020C33E03000CE70200FE
:1047900020B1020060CC0200CB3E0300EB8203009C
:1047A0002705030070B5150004001DF0E2FD2A0086
:1047B000024920001DF09BFD70BDC046552302003C
:1047C00070B543790D000024032B06D9836A074C8A
:1047D0009200E41AC369D358E41803211DF0BAFD0E
:1047E000447024120570847070BDC046FD7F0000C7
:1047F000F7B500230400617183608371E260036197
:1048000001330F0015004361032906D80121836994
:1048100049429A00C06924F081FD0023A36223620B
:10482000AA8BEB8BD218002A00D10132384E20001F
:1048300031001DF05CFD2A8C310020001DF057FD79
:10484000E3682000197D1DF07EFDE3682000997D5E
:104850001DF079FDE3682000197E1DF074FDE3680A
:104860002000997E1DF06FFD042F27D1636A226A14
:1048700031009A1A20001DF03AFD3100EA8920002B
:104880001DF035FD3100AA8920001DF030FD002605
:10489000AB8CB34217DCFF2120001DF06AFD042F12
:1048A00035D1EA8A2B8B0237D31801930023019A62
:1048B0009A422CD0AA8C0021009223E002212000F1
:1048C0001DF034FDD9E7AA6AF300D3181A78032A39
:1048D00003D1997820001DF04CFD0136D8E7012660
:1048E000A86ACA008218507830420AD0508898428C
:1048F00007D15268D200606B99003A430A500133E5
:10490000D5E70131009A8A42E9DC0222F2E7F7BDDD
:104910002D230200F7B5234B0500A8331B68019136
:10492000022B0DD847698F420AD2836A0269CF1BD6
:104930009C1A3B00234304D1AB6A2B61019B6B6142
:10494000F7BD062F01D90F2C18D900941F2C01D9BF
:104950001F230093009B00269C4203D83E00032F98
:1049600000D90326012128001DF0E0FC009A730104
:1049700013430370009BBF1BE41ADAE70A4B3E00A7
:104980009F4200D91E00022128001DF0CFFC70229A
:1049900033091340F03A22431343037046700094E6
:1049A000E8E7C046782E0020FF07000070B50D0034
:1049B000012104001DF05BFD0E2D14D00F2D17D02A
:1049C00010210D2D10D0172120001DF0D2FC032244
:1049D000A36A042103339343A36220001DF0BAFCB1
:1049E000044B036003E0112120001DF0C2FC70BDE8
:1049F0001221F9E7E8CE0200F8B5174F05000C00C8
:104A000016000F40002A1AD111001DF030FD2304BA
:104A10000FD5322128001DF0ACFC322128001DF0FA
:104A2000A8FC322128001DF0A4FC322128001DF032
:104A3000A0FC3A0035212800FFF7C2FEF8BD3A007D
:104A40004621FFF7BDFE7F23210A99433143C9B2B6
:104A500028001DF08EFCF1E7FF7FFFFFF0B587B067
:104A60000092027804000F00930703D5009B002BEF
:104A700000D0F5E0D307DB0F0ED07A4B3B40062B7E
:104A800043D003233B4003D177493868884203D0A1
:104A9000009B012B00D0E3E0019353075FD523680F
:104AA000A568DE08F600AE19B54230D3009B012B95
:104AB00000D0D5E02368D9086368994210D1043149
:104AC0006160A068C90021F0DAFE23686268DB0833
:104AD000D21ADB00A060D200C018002124F01EFC16
:104AE00007212368DD086A1CD2000B4013432360B2
:104AF000A368ED005D195B4B2F601F40062F21D08E
:104B000001222378934323701CE00123C4E7286823
:104B1000B8421AD1009B022B14D129002368721BC2
:104B2000D210083B013A6F6828002360D200083198
:104B300024F0E1FB2368DD08A368ED005D19002384
:104B40006F602B60280007B0F0BD019B002B04D1E3
:104B5000390001F07FF80028DCD10835A4E763684C
:104B6000002B05D1009B012B7AD1200000F07EF8AC
:104B70003C4B3B400593062B27D1F8081CF086FFE1
:104B800003906168039815F0DFFA00260491049BF6
:104B90000293029BDD00A3685D19286800281BD1E1
:104BA000009B012B5CD107212368DA080132D20077
:104BB0000B4013432360002E00D0350000236B60B0
:104BC000059B2F60062B9BD1BCE739000220FCF728
:104BD000D1FC43100393D4E7042803D1002E1DD148
:104BE0002E001BE0B84211D1009B022BAAD12368F2
:104BF0000298083B23600130616815F0A5FAA368AC
:104C0000C900CB58002B25D12B609BE7019B002BC3
:104C100004D1390001F01EF80028E5D1029861683E
:104C2000013015F091FA049B02918B42B1D1009BA7
:104C3000012B15D1002E0FD02368350008332360D7
:104C400000237360059B3760062B00D17AE7237839
:104C5000009A57E70423D7E7200000F007F890E711
:104C600000256FE7070080FF94C40200F7B5436892
:104C7000040001935A1C002317495800455AAA42C0
:104C800006D90133222BF8D15508AD18213B1D431D
:104C9000E800A76821F0E7FD07232268656013405C
:104CA00001220025236013432370A060019B9D42D5
:104CB00003D1380021F0F4FDF7BDEE00B959002909
:104CC00008D0042906D001222000FFF7C7FEBE1934
:104CD000736843600135E9E784FF0200F8B5050019
:104CE0000023046886681449621C5800405A8242B6
:104CF00006D90133222BF8D1500882180120104325
:104D0000002328606B60800021F0ADFD3700A40017
:104D1000A860A419A74203D1300021F0C1FDF8BD5D
:104D20003968002905D0042903D0012228001DF08C
:104D3000B6FF0437EEE7C04684FF0200F0B58BB043
:104D40000600080011001A0010AB1F78314B05ADAA
:104D5000019500930523FBF77FFD9120000121F0D1
:104D600070FD2D4B04A91860059B476043706B686C
:104D70002A4F0370AB6804008370EB68C3702B7C10
:104D800030003B6002F0ECF80025254B03900C202E
:104D90001D6021F056FD234B060003600DF042FF1D
:104DA000B0600DF03FFF204B204A1860204B1100EF
:104DB0001D70204B70601D701F4B30001D602B005C
:104DC0000DF004FE2000049A03991CF0AFFE2000B1
:104DD000FCF748FA0400A84207D10DF0FDFC0E4B89
:104DE0001C60164B1868FDF75DF90122144B1A7010
:104DF0000DF012FF0028FBD1124B943318603B6872
:104E0000002B04D00C4B104819681BF02FFF0748EB
:104E10000BB0F0BD10B702000C2F0020642A002058
:104E2000FC2900205CB70200F8290020A8C8020075
:104E3000F82D0020F62D0020002A0020040000207C
:104E4000F72D0020782E0020DD3E030000220D49C2
:104E500010B50B78DBB2934210D10B4A1478002CBA
:104E600002D001240C701370084B1B78002B07D064
:104E7000074A136820331360064B1A68100010BDF0
:104E80008268FBE7F62D0020F72D0020F82D00208A
:104E9000FC290020F829002073B501A902F060F870
:104EA000019B06001748502B17D88020400021F0A6
:104EB000C8FC154C05002300943318600023019AA8
:104EC0009A420CD15B232800AB54FDF703FC2B0066
:104ED000002808D1943420600C48FDF7E3F8F15C19
:104EE000E9540133ECE75A1B0133591E09789B2919
:104EF000F9D1290006481EF01BF9002394342360E1
:104F000076BDC046EC3E0300782E0020FA3E03003A
:104F100094C40200D2235B005843134AF0B51368CF
:104F2000000C834206D9114C2368013323601368B7
:104F3000203B13601F23050001270D4E9D4314687D
:104F4000A5420BD803401A1D202A00D92022094C63
:104F50002468934204D3084B1860F0BD3770EEE725
:104F6000E51829710133F4E7FC290020002A00200C
:104F7000F82D0020F8290020042A002010B5040094
:104F80000C2021F05EFC034B4460036001235B4274
:104F9000836010BDA8B7020010B50400002906D038
:104FA000044B8A6B0360096800230AF07FFD200030
:104FB000FBF702FD00D70200F0B5040087B00392B2
:104FC00002936618002A06D0023A222A03D93548ED
:104FD000FDF768F80134B44229D220780DF09CFE28
:104FE000071EF7D123782B2B1CD10134311B200055
:104FF00003AA1EF018FD23181C0000250193B442DB
:1050000017D3002F00D06D4201236D001D43019B7B
:105010009C422FD12449039A24480AF0DBFC0299D0
:10502000FFF7BAFF2D2BE1D101340127DEE700277E
:10503000DCE723781A00303A0092092A07D92022A7
:1050400013431A00613A192ADBD8573B009303999E
:10505000009B9942D5D928000FF058FE002816D1A0
:10506000039B5D43009BED186B006B400FD4013434
:10507000C5E70134B44205D220780DF04DFE00287A
:10508000F7D1C7E7B442C5D1280007B0F0BD019BF6
:105090003A000593F11A05A8039B22F039FB059C01
:1050A0000500B4E7473F03006A3F0300F0D7020062
:1050B000F0B504008BB00893431804920193019B50
:1050C0009C4200D3F6E020780DF026FE071E38D172
:1050D00023782B2B37D101340590019B9C4200D3C0
:1050E000EAE0202322781A43692A33D10199A21CCD
:1050F000914200D8E6E062781A436E2A00D0E1E0DF
:10510000A2781A43662A00D0DCE0E21DE51C914239
:1051100014D9E2781A43692A10D122791A436E2AE7
:105120000CD162791A43692A08D1A2791A43742AE8
:1051300004D1E2791343792B00D10535FF26F6051A
:105140001BE00134BBE705902D2BCAD12C3B013469
:105150000593C2E76E2A2ED10199A21C914200D874
:10516000B0E062781A43612A00D0ABE0A278134322
:105170006E2B00D0A6E05D4EE51C059B002B02D0F7
:1051800080231B06F618A5427BD159498CE03D00CF
:105190002B786F1C18003038092834D8022E15D10E
:1051A0000A23029A53431B180293019BBB42EED879
:1051B000002304934DE00022079202924D4A2500FD
:1051C00006920022002603920993E1E716F006F901
:1051D000051C012E0DD1069915F08AFD011C0398BE
:1051E00015F014FA43490390069815F081FD0690D6
:1051F000DBE74149039815F07BFD291C15F006FA01
:1052000000260390D1E7002E03D12E2B03D10126D7
:10521000CBE7022E16D0099A1A43652A12D1019BB8
:10522000BB4256D96B782B2B05D1AF1C019B9F42FB
:10523000ABD00226B9E702262D2BA8D12C3BAF1903
:105240000793F3E7049A002A04D0202213436A2B21
:1052500013D13D00079B002B02D0029B5B420293BF
:10526000029816F071F8011C234818F02DFD0399DF
:1052700015F03EFD049F061C7FE700230493E9E739
:105280000135019B9D4205D228780DF045FD00288F
:10529000F6D17AE7019B9D4200D076E7089B002B70
:1052A00001D1002F1AD01549154820F03DF9109969
:1052B000FFF772FE002305930023039300232500CC
:1052C0000493CCE7059B002B00D15EE72500002668
:1052D00056E7019BBB4200D157E769E70323022051
:1052E0009E43084B3043C0180BB0F0BD0000C07F98
:1052F0002D3F0300CDCCCC3D00002041103F0300EA
:10530000F0D7020000008080F0B5060000248BB0CA
:10531000194B1A48E1580FF027FB03AFE051043452
:105320001C2CF5D114230024734301930025AB00FA
:10533000F95813481DF0B4FD0135300021F005FC8B
:10534000072DF4D1013DAB000D48F9581DF0A8FD23
:10535000300021F0FAFB013DF5D20134082C03D1D5
:1053600000F04CFB0BB0F0BD01231C42DED10198D4
:1053700021F0EBFBDAE7C04644B80200BCB50200FE
:105380001000002010B51920FFF7BEFF004810BD27
:10539000A8C80200012201000300114010000029EA
:1053A0000CD10800990709D11B68054910008B42F0
:1053B00004D00448181A43425841C0B27047C0464E
:1053C00078E3020090DE02000023FA21094A8900F6
:1053D0001360094A1370094A1360094A1160094AA7
:1053E0001370094A111D0832D3670122CB67074B9E
:1053F0001A7070470C2A0020F92D0020082A00207E
:105400000C000020FA2D0020782E0020FB2D00201B
:1054100010B5084B084A1978002907D1916C00296A
:1054200002D0FFF7D1FF10BD30BFF4E700221A70A1
:10543000F9E7C046FB2D0020782E0020837F02482C
:10544000002B00D10148704788DE020080DE020098
:105450000023A022E02110B583770C4BD20509026E
:10546000D1500B48FDF714FD0A48FDF711FD0A481D
:10547000FDF70EFD0948FDF70BFD0948FDF708FD96
:105480000848FDF705FD084810BDC0460C050000A2
:1054900078F3020080F3020090F3020098F3020018
:1054A000A8F3020020F30200A8C80200F8B5164CC9
:1054B0002368002B07D1482023F0AAFE05001349DA
:1054C00012F0AAF925601248124902680B68D21A34
:1054D0000123312A04D9623393429B415B42023358
:1054E000002201260C4D2E702F78032FFCD10132A3
:1054F0009342F8D1036820680B6023F056F843000C
:1055000001201843F8BDC046102A002070B80200E0
:10551000CC2F0020142A0020FC2D002030B50D4C8B
:1055200087B02378012B13D10B4B02221D68062173
:10553000002302A822F0C2F9082204A9684623F039
:10554000D1FE039B029A280012F0E2F80223237096
:1055500007B030BDFC2D0020102A0020A02010B57F
:105560001049C0054B7F5A1C002B09D14C8C0E4BA7
:10557000A3430E4C03510E4B4A775200D05A0FE012
:1055800010335B00CB185C88A123DB00C450092AD0
:10559000F1D1012003F0AAFAFFF7C0FF0120404239
:1055A00010BDC04610000020F01F00000C050000D8
:1055B000C8FF020073B5041E09D11A4D2B78002BC9
:1055C0002CD0194919481DF06BFC2C7073BD184D77
:1055D0002B1DDE6F00F0A8FA164B2100984214D064
:1055E000154B2340062B05D0A30712D1134B22687D
:1055F0009A420ED101A9200001F0B2FC019B012BBF
:105600000CD1007821F073FE010030001DF048FC41
:10561000DCE70B490B481FF087FFA864FFF7D4FEB7
:10562000D4E7C046FA2D0020C4EC02001000002090
:10563000782E002024ED0200070080FF94C40200B1
:10564000FE3F030078D70200F7B5A123A021214A2D
:10565000C905DB00CA500123C27F0D3293401E4AA8
:105660008B50C37F01920133DBB2032B2FD0C37762
:1056700002000300002122333632198002339342A4
:10568000FBD10424C17F154F4D000522EB5D7E192F
:105690005343134A7678D3189B190126A640B44683
:1056A00062461B7901345B00C3185E8C06351643D5
:1056B0005E840D2CE9D101220D318A40A023A12165
:1056C000DB05C9005A50828E01995A50F7BD00235C
:1056D000CDE7C046F01F00000C050000923F03001C
:1056E0001000002070B5394B8CB01A78022A07D10F
:1056F000A0223749D2008A58012A07D003221A7003
:10570000344DAB7F002B03D1FFF708FF0CB070BD09
:105710002800FFF799FF304A3049136809680633BB
:1057200013608B4207D300242D4B14601B78012B90
:105730000FD0022B45D000232A8C6B77FF33FF3329
:105740001A42E1D0E1222749D200012003F09AF960
:10575000DCE7254E331DDB6F002B04D0330008330C
:10576000DB6F002B02D1FFF72FFEE4E708F0AEF865
:105770006846FBF7FBF800280CD11C4B1868FCF7B7
:105780009BF80400FBF710F908F0AAF82000FFF7D7
:1057900011FFD0E708F0A4F8019B15491868FEF73F
:1057A000F1F80028F2D1019800F0BEF9114B9842AF
:1057B00003D11149114821F0C5FA019B0024B364BB
:1057C000E4E70F4928001DF06BFBCCE7FC2D00201F
:1057D0000070004010000020082A00200C0000206B
:1057E000F92D00205D550000782E00200C2A0020A5
:1057F000C4D602005CD50200384003000CE9020068
:10580000C4EC0200F0B5002485B0154D02930AAB3C
:105810001B782E1D07000835080021000192039314
:10582000F467EC67FCF70EF80E4B019A18600E4B0C
:10583000F7671A60029A0D4BE8671A700C4B1C70E0
:10584000FCF73AF8FFF7B6FE01220A4B1C600A4B40
:105850001A70039BA34201D0FFF7DAFD05B0F0BD3B
:10586000782E00200C2A00200C000020FA2D0020A9
:10587000FB2D0020082A0020F92D0020F0B500247F
:10588000384B8FB01D1D0833DC67374BEC6709AD13
:1058900080C90138019500930523FAF7DDFF6B6895
:1058A000099C049307942B7B2E7A05932B7C200074
:1058B0000393FFF76FFD2D4D002806D103232340EE
:1058C000022B09D12C40062C06D007AB0022012167
:1058D000274800F037FF079007980540062D05D0B0
:1058E000830730D1224B02689A422CD108A901F0DB
:1058F00037FB089B002B23D0012B0DD1002E0BD1A1
:10590000039B002B08D1007821F0F1FC0790079948
:1059100038001DF0C5FA13E007980FF00DF9079055
:1059200009AB1B7C002B03D00798FFF727FB0790E0
:10593000059B049A0093079933003800FFF762FF34
:105940000C480FB0F0BD00F0EFF80B4B9842E7D1D8
:10595000002E02D1039B002BD9D007A90120FAF712
:1059600077FCDCE7782E00201CB90200070080FFDE
:1059700094C40200A8C8020024ED020070B51B4BBD
:105980008AB005AD40C90138009301950523FAF7A7
:1059900063FF059C20000494FFF7FCFC002807D15E
:1059A00003232340022B0AD1114B1C40062C06D0A6
:1059B00004AB002201210F4800F0C4FE049003A9AB
:1059C000049801F0CDFA2A7C2B7B03990092059A6A
:1059D0000FF09CF82B7A01000093300000236A68D6
:1059E000FFF710FF04480AB070BDC04644B902007A
:1059F000070080FF94C40200A8C802000022074BE1
:105A000010B51A70064B02321A70064B064A1B6814
:105A1000063B1360FFF7FCFC10BDC046FB2D0020C9
:105A2000F92D00200C000020082A002010B5FFF7F7
:105A3000E5FF014810BDC046A8C8020010B5042902
:105A400001D8042A02D90948FCF72CFB092B01D9FB
:105A50000748F9E70524614341188A1813710122A8
:105A60009A40038C1343038410BDC0460B400300CF
:105A70001F400300F8B548680C000D6800F03CF9C1
:105A80000600A06800F038F90700E06800F034F97B
:105A90003A00030031002800FFF7D0FF0048F8BDAE
:105AA000A8C8020010B5042901D8042A02D9044864
:105AB000FCF7F8FA0523594340188018007910BD07
:105AC0000B40030070B5104C050021000F48FDF796
:105AD000F5F921000E48FDF7F1F921000D48FDF719
